S0190000636F6C6F725F7265636F676E6974696F6E2E73726563EC
S11300000C9424010C9469010C9489010C94410111
S11300100C9441010C9441010C9441010C94410154
S11300200C9441010C9441010C9441010C94410144
S11300300C9441010C9441010C9441010C94410134
S11300400C9441010C9441010C9441010C94410124
S11300500C9441010C9441010C9441010C94410114
S11300600C9441010C944101000000000000002F99
S113007000000007000700147F147F14242A7F2A3D
S11300801223130864623649552250000503000008
S1130090001C2241000041221C0014083E081408E0
S11300A0083E08080000A06000080808080800606E
S11300B060000020100804023E5149453E00427F82
S11300C0400042615149462141454B311814127F89
S11300D01027454545393C4A494930017109050312
S11300E03649494936064949291E0036360000007A
S11300F0563600000814224100141414141400414C
S11301002214080201510906324959513E7C121148
S1130110127C7F494949363E414141227F41412277
S11301201C7F494949417F090909013E4149497AEE
S11301307F0808087F00417F41002040413F017F44
S1130140081422417F404040407F020C027F7F041C
S113015008107F3E4141413E7F090909063E415155
S1130160215E7F09192946464949493101017F0128
S1130170013F4040403F1F2040201F3F4038403F48
S11301806314081463070870080761514945430064
S11301907F41410055AA55AA550041417F00040200
S11301A00102044040404040000305000020545434
S11301B054787F48444438384444442038444448BC
S11301C07F3854545418087E09010218A4A4A47C4E
S11301D07F0804047800447D40004080847D007FD3
S11301E01028440000417F40007C041804787C08F7
S11301F00404783844444438FC242424181824245F
S113020018FC7C080404084854545420043F444017
S1130210203C4040207C1C2040201C3C4030403C82
S113022044281028441CA0A0A07C4464544C4400DE
S1130230107C82000000FF000000827C1000000699
S11302400909063C7E7E7E3C11241FBECFEFD8E018
S1130250DEBFCDBF11E0A0E0B1E0EAE1F2E202C00E
S113026005900D92A439B107D9F721E0A4E9B1E0D2
S113027001C01D92A53BB207E1F70E947A070C94D6
S11302800B110C94000084EA8093BC008091BC00A4
S11302908823E4F7089584E98093BC00089580934B
S11302A0BB0084E88093BC008091BC008823E4F701
S11302B00895882321F084E88093BC0003C084EC73
S11302C08093BC008091BC008823E4F78091BB003C
S11302D008951F920F920FB60F9211242F938F93AC
S11302E09F934A990EC02FE788E391E02150804004
S11302F09040E1F700C000004A9903C081E0809378
S113030094019F918F912F910F900FBE0F901F908A
S113031018951F920F920FB60F9211242F938F935B
S11303209F934B9915C02FE788E391E021508040BB
S11303309040E1F700C000004B990AC080919401FD
S1130340823019F41092940103C082E080939401E6
S11303509F918F912F910F900FBE0F901F90189522
S11303600F931F93CF93DF938C01D62F0E944301E9
S113037088E70E944F0180E00E944F01C0E007C05F
S1130380F801EC0FF11D80810E944F01CF5FCD1762
S1130390B8F30E944B01DF91CF911F910F91089503
S11303A0CF93DF931F92CDB7DEB7898361E0CE018F
S11303B001960E94B0010F90DF91CF910895CF93E1
S11303C0DF9300D0CDB7DEB789836A8362E0CE01C4
S11303D001960E94B0010F900F90DF91CF91089584
S11303E0CF93DF9300D01F92CDB7DEB789836A83A2
S11303F04B8363E0CE0101960E94B0010F900F90F1
S11304000F90DF91CF910895CF93C82F0E9443019D
S113041088E70E944F0180E40E944F018C2F0E94C4
S11304204F010E944B01CF910895CF93883080F4FF
S1130430662374F0C82F80939F0160939A014FE75D
S113044081E20E94F00147E06C2F82E20E94F001F9
S1130450CF910895CF93DF934FE760E081E20E944C
S1130460F00147E060E082E20E94F001D0E009C0C0
S113047080E00E940402CF5F01C0C0E0CC23C4F737
S1130480DF5FD830D0F360E080E00E941502DF9196
S1130490CF91089580919F018F5F877080939F0112
S11304A060E00E9415020895CF93DF93D82F8091C6
S11304B09A0190E005968038910514F4DA3011F42D
S11304C00E944A02DA3011F1D052C0E02D2F30E000
S11304D0F901EE0FFF1FEE0FFF1FE20FF31FEC0FEA
S11304E0F11DE859FF4F84910E94040290919A01F2
S11304F09F5F90939A01CF5FC53041F780E00E94DF
S1130500040280919A018F5F80939A01DF91CF91C9
S11305100895CF93DF93EC0103C021960E94540207
S113052088818111FACFDF91CF910895CF93DF9322
S113053000D000D0CDB7DEB78EEA0E94D00160E8CB
S113054085ED0E94DF016FE388EA0E94DF0160E02D
S113055083ED0E94DF0180E40E94D00164E18DE814
S11305600E94DF0160E080E20E94DF0181EA0E94D4
S1130570D00188EC0E94D00162E18AED0E94DF0183
S11305806FEC81E80E94DF0161EF89ED0E94DF01D9
S113059060E48BED0E94DF0184EA0E94D00186EAC8
S11305A00E94D0018FEA0E94D0010E942A0282E5B3
S11305B094E49A83898389E590E09C838B8367E341
S11305C082E00E941502CE0101960E94890280E019
S11305D00F900F900F900F90DF91CF910895CF93CC
S11305E0282F22952F70982F9F702A3010F087E3C0
S11305F001C080E3820F9A3010F0C7E301C0C0E36A
S1130600C90F0E9454028C2F0E945402CF91089566
S11306100F931F93CF93DF938C01892BB9F0C1E023
S113062001C0CD2FD1E0DC0F6C2FC8010E94080E51
S11306308823B9F308C06C2FC8010E94080E805D9E
S11306400E945402CF5FC630B0F303C080E30E941F
S11306505402DF91CF911F910F910895DF92EF9291
S1130660FF920F931F93CF93DF93C82F0E942A0208
S1130670C23009F46DC1C33009F496C2C13009F027
S113068099C2B2C080919501811107C081E0809325
S1130690950187EA0E94D00105C01092950186EA6F
S11306A00E94D001CE33F8F045C061E06C0F8D2F6D
S11306B00E9415028AE20E9454026AE76C1B87E0DA
S11306C08D1B0E9415028AE20E9454022FEF81EED4
S11306D094E0215080409040E1F700C00000E09990
S11306E06BC2DF5F01C0D0E0D830FCF218E01C0F11
S11306F0D0E01DC069E06C0F87E08D1B0E941502DD
S11307008AE20E9454026AE7611B8D2F0E9415023F
S11307108AE20E9454022FEF81EE94E0215080403F
S11307209040E1F700C00000E09948C2DF5FD83094
S113073008F3C55F80919501811107C081E0809322
S1130740950187EA0E94D00105C01092950186EABE
S11307500E94D001CE33F8F445C061E06C0F8D2FB8
S11307600E94150280E20E94540269E76C1B87E034
S11307708D1B0E94150280E20E9454022FEF81EE2D
S113078094E0215080409040E1F700C00000E099DF
S113079017C2DF5F01C0D0E0D830FCF218E01C0FB4
S11307A0D0E01DC069E06C0F87E08D1B0E9415022C
S11307B080E20E94540269E7611B8D2F0E9415029A
S11307C080E20E9454022FEF81EE94E02150804099
S11307D09040E1F700C00000E099F4C1DF5FD83039
S11307E008F3C55FCB5F01C0C0E0CB3708F44ACF44
S11307F081E0F9C180919501811107C081E0809366
S1130800950187EA0E94D00105C01092950186EAFD
S11308100E94D001C430F8F043C061E06D0F8C2F0A
S11308200E9415028AE20E94540269E76D1B87E068
S11308308C1B0E9415028AE20E9454022FEF81EE63
S113084094E0215080409040E1F700C00000E0991E
S1130850BBC1D85F01C0D0E0DB37F8F2CF5FD0E096
S11308601DC069E76D1B8C2F0E9415028AE20E944D
S1130870540261E06D0F87E08C1B0E9415028AE22E
S11308800E9454022FEF81EE94E02150804090406A
S1130890E1F700C00000E09999C1D85FDB3708F3A5
S11308A080919501811107C081E08093950187EAC9
S11308B00E94D00105C01092950186EA0E94D001E1
S11308C0C430F8F443C061E06D0F8C2F0E94150210
S11308D080E20E94540269E76D1B87E08C1B0E9432
S11308E0150280E20E9454022FEF81EE94E0215021
S11308F080409040E1F700C00000E09969C1D85FF2
S113090001C0D0E0DB37F8F2CF5FD0E01DC069E76B
S11309106D1B8C2F0E94150280E20E94540261E03C
S11309206D0F87E08C1B0E94150280E20E94540226
S11309302FEF81EE94E0215080409040E1F700C019
S11309400000E09947C1D85FDB3708F3CF5F01C0EF
S1130950C0E0C83008F44ECF81E045C180919501D4
S1130960811108C081E08093950187EA0E94D0013B
S1130970C1E035C01092950186EA0E94D001F8CFFB
S11309806C2F802F0E9415028FE70E9454021BE7F0
S11309901C1BD7E0D01B612F8D2F0E9415028FE7FF
S11309A00E9454022FE788E391E021508040904058
S11309B0E1F700C000006C2F802F0E94150280E236
S11309C00E945402612F8D2F0E94150280E20E9422
S11309D0540280919401823009F0FEC0CF5FCB377E
S11309E078F280919501811107C081E0809395018F
S11309F087EA0E94D00105C01092950186EA0E9400
S1130A00D001EE24E394E00EC1E02FC01BE71C1BD1
S1130A10612F8E2D0E9415028FE70E945402D7E0A9
S1130A20DE196C2F8D2F0E9415028FE70E9454024D
S1130A302FE788E391E0215080409040E1F700C027
S1130A400000612F8E2D0E94150280E20E94540244
S1130A506C2F8D2F0E94150280E20E945402809117
S1130A609401823009F0BAC0CF5FCB3778F20E5FC1
S1130A7001C000E0043008F471CFE12C8FC08091F4
S1130A809501811108C081E08093950187EA0E9455
S1130A90D001C1E037C01092950186EA0E94D001CE
S1130AA0F8CF03E00E196C2F802F0E9415028FE7F8
S1130AB00E9454021BE71C1B612FD4E0DE0D8D2F16
S1130AC00E9415028FE70E9454022FE788E391E009
S1130AD0215080409040E1F700C000006C2F802F2F
S1130AE00E94150280E20E945402612F8D2F0E9401
S1130AF0150280E20E94540280919401823009F030
S1130B006FC0CF5FCB3768F280919501811107C028
S1130B1081E08093950187EA0E94D00105C010927C
S1130B20950186EA0E94D001DE2CE394C1E030C036
S1130B300BE70C1B13E01E19602F812F0E94150276
S1130B408FE70E9454026C2FD5E0DD0D8D2F0E949B
S1130B5015028FE70E9454022FE788E391E02150A9
S1130B6080409040E1F700C00000602F812F0E9478
S1130B70150280E20E9454026C2F8D2F0E941502F0
S1130B8080E20E94540280919401823059F5CF5F33
S1130B90CB3770F26894EE24E1F8ED0C23E02E15C7
S1130BA00CF06DCFF39401C0F12C81E08F1508F0A7
S1130BB060CF19C081E017C080E015C080E013C089
S1130BC080E011C080E00FC080E00DC080E00BC069
S1130BD080E009C080E007C080E005C080E003C079
S1130BE080E001C080E0DF91CF911F910F91FF90D1
S1130BF0EF90DF900895CF93DF9360347CF5962FC8
S1130C00662314F497E0960FC62FD82F892F859565
S1130C108595859580550E94D0018D2F8F700E94F7
S1130C20D0018D2FDD0F990B807F9927959587959E
S1130C3095958795959587959595879580610E945B
S1130C40D0016C2F67781CF46150686F6F5F81E08E
S1130C5001C0880F6A95EAF70E940402DF91CF91E0
S1130C6008958F929F92AF92BF92CF92DF92EF92AC
S1130C70FF920F931F93CF93DF934C016B017A0183
S1130C805901EA01C81BD90B8901061B170BCE01B8
S1130C90DD2324F4882799278C1B9D0B98011123AD
S1130CA024F422273327201B310B28173907BCF5DE
S1130CB08E149F04BCF054012EC0950128193909E3
S1130CC0029FC001039F900D129F900D1124BE013D
S1130CD00E94D4106C0D8A2D0E94FB058FEFA81A78
S1130CE0B80A01C05401EA14FB043CF750C0950152
S1130CF028193909029FC001039F900D129F900D7E
S1130D001124BE010E94D4106C0D8A2D0E94FB0593
S1130D1081E0A81AB108AE14BF044CF738C0CA1455
S1130D20DB04C4F0760130C097012C193D09C29F41
S1130D30C001C39F900DD29F900D1124B8010E9451
S1130D40D410862F6E2D880D0E94FB058FEFE81AB4
S1130D50F80A01C07601AE14BF0434F718C0970135
S1130D602C193D09C29FC001C39F900DD29F900DC5
S1130D701124B8010E94D410862F6E2D880D0E9474
S1130D80FB0581E0E81AF108EA14FB0444F7DF915B
S1130D90CF911F910F91FF90EF90DF90CF90BF9074
S1130DA0AF909F908F90089580919501811104C018
S1130DB081E08093950102C0109295010E942A025D
S1130DC06AE081E00E94150283E791E00E948902B3
S1130DD061E083E00E94150288E091E00E948902AC
S1130DE06091A9017091AA018091AB019091AC012D
S1130DF00E941F0F862F0E94EF026091A401709140
S1130E00A5018091A6019091A7010E941F0F862F32
S1130E100E94EF026091AD017091AE018091AF012B
S1130E209091B0010E941F0F862F0E94EF0261E093
S1130E3084E00E94150280E091E00E9489026091A2
S1130E409B0170919C0180919D0190919E010E9453
S1130E501F0FCB010E9408038CE20E945402609190
S1130E6096017091970180919801909199010E9447
S1130E701F0FCB010E9408038CE20E945402609170
S1130E80B1017091B2018091B3019091B4010E94BB
S1130E901F0FCB010E94080361E086E00E94150247
S1130EA081E691E00E9489026091B1017091B201E2
S1130EB08091B3019091B40120E030E040E050E42F
S1130EC00E94621088238CF08091A80190E09C011C
S1130ED0220F331F220F331F220F331F820F931F42
S1130EE0805F9E4F0E94890208958AE691E00E94E5
S1130EF089020895CF93DF93CDB7DEB729970FB654
S1130F00F894DEBF0FBECDBF2FEF84E39CE02150E9
S1130F1080409040E1F700C0000081E884BD82E099
S1130F2085BD83E08DBB8AE0809369008AB18064CB
S1130F308AB98CE08093B8000E94DA0D89E20E949D
S1130F4047098CE30E94960289E0E6E8F1E0DE01BD
S1130F50119601900D928A95E1F7CE0101960E94B7
S1130F60AE0D82E10E942E0990E00E94BB0D8DE03F
S1130F700E94810D81E087BD2FEF84E39CE0215026
S1130F8080409040E1F700C0000017BC7894809145
S1130F90940190E00E94880D809194018130A1F128
S1130FA0C0F0823009F43FC1F2CF612F70E02FE32B
S1130FB030E0261B370B4FE750E080E090E00E94C2
S1130FC031068FE39CE90197F1F700C000001F5F31
S1130FD001C010E0103448F310E013C0212F30E0BA
S1130FE06FE370E0621B730B4FE750E080E090E02A
S1130FF00E9431068FE39CE90197F1F700C00000DD
S11310001F5F103458F3C3CF83E0809394010E9490
S113101057090E941D0C88E091E00E94AE0D60917A
S1131020A9017091AA018091AB019091AC010E9439
S11310301F0FCB010E94BB0D6091A4017091A5010B
S11310408091A6019091A7010E941F0FCB010E94DD
S1131050BB0D6091AD017091AE018091AF01909193
S1131060B0010E941F0FCB010E94BB0D8DE00E94B6
S1131070810D80E091E00E94AE0D60919B01709122
S11310809C0180919D0190919E010E941F0FCB01B4
S11310900E94880D8CE20E94810D609196017091EE
S11310A0970180919801909199010E941F0FCB01A3
S11310B00E94880D8CE20E94810D6091B1017091B3
S11310C0B2018091B3019091B4010E941F0FCB0132
S11310D00E94880D8DE00E94810D6091B101709194
S11310E0B2018091B3019091B40120E030E040E07E
S11310F050E40E94621088230CF48BC081E691E0D6
S11311000E94AE0DC0909B01D0909C01E0909D0187
S1131110F0909E0120E030E04FEA53E4C701B601AD
S11311200E946210882324F082E08093A80160C0AA
S113113020E030E040E753E4C701B6010E946210AA
S1131140882324F088E08093A80152C020E030E096
S113115042E553E4C701B6010E946210882324F0DB
S113116087E08093A80144C020E030E042E053E4EB
S1131170C701B6010E946210882324F086E08093A0
S1131180A80136C020E030E040EA52E4C701B601CD
S11311900E946210882324F085E08093A80128C06F
S11311A020E030E040E751E4C701B6010E9462103C
S11311B0882324F084E08093A8011AC020E030E062
S11311C040EA50E4C701B6010E946210882324F06B
S11311D083E08093A8010CC020E030E0A901C7019E
S11311E0B6010E94621088231CF082E08093A8015B
S11311F08091A80190E09C01220F331F220F331F1E
S1131200220F331F820F931F805F9E4F0E94AE0DEB
S113121004C08AE691E00E94AE0D8DE00E94810D2B
S11312200E94D406B4CE83E00E942E038111FBCF2A
S1131230AECECF93DF93D82FC62F0E94430182E511
S11312400E944F018D2F80680E944F018C2F0E94B5
S11312504F010E944B01DF91CF910895CF93C82F86
S11312600E94430182E50E944F018C2F80680E94F6
S11312704F010E94430183E50E944F0181E00E94D7
S11312805901C82F0E944B018C2FCF91089561E022
S113129080E00E94190966EF81E00E9419098FED30
S11312A09EE20197F1F700C0000080E00895DF920C
S11312B0EF92FF920F931F93CF93DF93CDB7DEB7D7
S11312C068970FB6F894DEBF0FBECDBF1A8219829D
S11312D01C821B821E821D8218861F821A86198612
S11312E01C861B861E861D86188A1F861A8A198AE2
S11312F01C8A1B8A1E8A1D8A188E1F8A63E080E05E
S11313000E941909D12C67C084E6D89E802D11242F
S11313108E5C87BD0D2D10E084E10E942E09E82E1D
S1131320F12C000F111F81E090E08C0F9D1F080F1E
S1131330191FF801F38AE28A85E10E942E0990E0E0
S1131340982F88278E299F29F801938B828B86E119
S11313500E942E09E82EF12CF801F182E08287E147
S11313600E942E0990E0982F8827E82AF92AF8018C
S1131370F182E08288E10E942E09E82EF12CF80126
S1131380F782E68289E10E942E0990E0982F88274F
S1131390E82AF92AF801F782E6828AE10E942E09F6
S11313A0E82EF12CF801F586E4868BE10E942E09E3
S11313B090E0982F8827E82AF92AF801F586E48630
S11313C017BCFFEF26E781E0F15020408040E1F7B1
S11313D000C00000D39492E09D1508F095CF2B89AE
S11313E03C898D899E89280F391F8F89988D280FF4
S11313F0391FABEABAEA0E94E81096958795BC01BA
S113140080E090E00E944E0F6093A0017093A101D0
S11314108093A2019093A30129813A818B819C81BD
S1131420280F391F8D819E81280F391FABEABAEA34
S11314300E94E81096958795BC0180E090E00E9498
S11314404E0F6093A9017093AA018093AB0190930E
S1131450AC012F81388589859A85280F391F8B85A2
S11314609C85280F391FABEABAEA0E94E8109695CA
S11314708795BC0180E090E00E944E0F6093A40128
S11314807093A5018093A6019093A7012D853E85B5
S11314908F859889280F391F89899A89280F391FC0
S11314A0ABEABAEA0E94E81096958795BC0180E001
S11314B090E00E944E0F6093AD017093AE01809353
S11314C0AF019093B00168960FB6F894DEBF0FBEDB
S11314D0CDBFDF91CF911F910F91FF90EF90DF90DF
S11314E008958F929F92AF92BF92CF92DF92EF9224
S11314F0FF920F931F93CF93DF93D62ED72FC82F2E
S1131500C92EB22EA32E942E852E0E94A80E8823B7
S113151009F444C02E2D3F2D402F512F6D2D7D2FCA
S11315208C2F9C2D0E94A80E8823C1F12E2D3F2DB7
S1131530402F512F6B2D7A2D892D982D0E94A80EA6
S1131540882361F12B2D3A2D492D582D6D2D7D2F9A
S11315508C2F9C2D0E946210181674F42E2D3F2D92
S1131560402F512F6D2D7D2F8C2F9C2D0E946210AA
S113157018160CF063C07AC02E2D3F2D402F512F2A
S11315806B2D7A2D892D982D0E94621018160CF05F
S11315905AC0DB2CDA2DC92DC82C68C02B2D3A2D4E
S11315A0492D582D6D2D7D2F8C2F9C2D0E94A80E1A
S11315B081110EC02E2D3F2D402F512F6D2D7D2FCB
S11315C08C2F9C2D0E94621018160CF041C04EC046
S11315D02E2D3F2D402F512F6D2D7D2F8C2F9C2D87
S11315E00E94A80E81110DC02B2D3A2D492D582D86
S11315F06D2D7D2F8C2F9C2D0E94621018166CF57A
S113160035C02E2D3F2D402F512F6B2D7A2D892D36
S1131610982D0E94A80E811125C02B2D3A2D492DFD
S1131620582D6D2D7D2F8C2F9C2D0E94A80E882364
S1131630ECF4DB2CDA2DC92DC82C18C0DE2CDF2DE0
S1131640C02FC12E13C0DE2CDF2DC02FC12E0EC023
S1131650DE2CDF2DC02FC12E09C0DB2CDA2DC92DC5
S1131660C82C04C0D12CD0E0C0E0C12C6D2D7D2F3E
S11316708C2F9C2DDF91CF911F910F91FF90EF90B4
S1131680DF90CF90BF90AF909F908F9008958F92EE
S11316909F92AF92BF92CF92DF92EF92FF920F93FD
S11316A01F93CF93DF93D62ED72FC82FC92EB22ED8
S11316B0A32E942E852E0E94A80E882309F444C0DC
S11316C02E2D3F2D402F512F6D2D7D2F8C2F9C2D96
S11316D00E94A80E8823C1F12E2D3F2D402F512F9B
S11316E06B2D7A2D892D982D0E94A80E882361F1E7
S11316F02B2D3A2D492D582D6D2D7D2F8C2F9C2D62
S11317000E94A80E882374F42E2D3F2D402F512FB4
S11317106D2D7D2F8C2F9C2D0E94A80E88230CF0FC
S113172063C07AC02E2D3F2D402F512F6B2D7A2D63
S1131730892D982D0E94A80E88230CF05AC0DB2C0A
S1131740DA2DC92DC82C68C02B2D3A2D492D582DC2
S11317506D2D7D2F8C2F9C2D0E94A80E81110EC003
S11317602E2D3F2D402F512F6D2D7D2F8C2F9C2DF5
S11317700E94A80E88230CF041C04EC02E2D3F2D90
S1131780402F512F6D2D7D2F8C2F9C2D0E94A80E44
S113179081110DC02B2D3A2D492D582D6D2D7D2FE6
S11317A08C2F9C2D0E94A80E88236CF535C02E2DFD
S11317B03F2D402F512F6B2D7A2D892D982D0E946E
S11317C0A80E811125C02B2D3A2D492D582D6D2D94
S11317D07D2F8C2F9C2D0E9462101816ECF4DB2CAC
S11317E0DA2DC92DC82C18C0DE2CDF2DC02FC12E38
S11317F013C0DE2CDF2DC02FC12E0EC0DE2CDF2D3A
S1131800C02FC12E09C0DB2CDA2DC92DC82C04C071
S1131810D12CD0E0C0E0C12C6D2D7D2F8C2F9C2DC0
S1131820DF91CF911F910F91FF90EF90DF90CF90B8
S1131830BF90AF909F908F9008954F925F926F9258
S11318407F928F929F92AF92BF92CF92DF92EF924C
S1131850FF920F931F93CF93DF93CDB7DEB72C97EF
S11318600FB6F894DEBF0FBECDBF6091A901709191
S1131870AA018091AB019091AC0120E030E04FE7E8
S113188053E40E94AD0E2B013C016091A4017091C0
S1131890A5018091A6019091A70120E030E04FE7D7
S11318A053E40E94AD0E69837A838B839C83609199
S11318B0AD017091AE018091AF019091B00120E033
S11318C030E04FE753E40E94AD0E6D837E838F8337
S11318D098877B018C0129813A814B815C81C3010A
S11318E0B2010E94710A4B015C0129813A814B814A
S11318F05C81C301B2010E94470B6B017C019B0117
S1131900AC01C501B4010E943B0E69877A878B87BD
S11319109C87A7019601C501B4010E94A80E8111FC
S113192009C010929B0110929C0110929D0110928B
S11319309E0198C0A5019401C301B2010E94A80EA2
S113194081112BC02D813E814F81588569817A8117
S11319508B819C810E943B0E29853A854B855C8551
S11319600E94AD0E20E030E040E752E40E94671090
S113197020E030E044EB53E40E943C0E20E030E0F1
S113198044EB53E40E94960F60939B0170939C0177
S113199080939D0190939E0165C0A5019401698186
S11319A07A818B819C810E94A80E811129C0A30198
S11319B092016D817E818F8198850E943B0E2985DD
S11319C03A854B855C850E94AD0E20E030E040E70F
S11319D052E40E94671020E030E040EF52E40E949D
S11319E03C0E20E030E044EB53E40E94960F6093F9
S11319F09B0170939C0180939D0190939E0132C042
S1131A00A50194016D817E818F8198850E94A80E25
S1131A10811128C029813A814B815C81C301B201C3
S1131A200E943B0E29853A854B855C850E94AD0E4C
S1131A3020E030E040E752E40E94671020E030E00C
S1131A4040E753E40E943C0E20E030E044EB53E4D2
S1131A500E94960F60939B0170939C0180939D015B
S1131A6090939E0120E030E0A901C501B4010E94D9
S1131A70A80E811109C0109296011092970110923C
S1131A8098011092990116C0A501940169857A857F
S1131A908B859C850E94AD0E20E030E048EC52E43A
S1131AA00E94671060939601709397018093980148
S1131AB09093990120E030E048EC52E4C501B40170
S1131AC00E9467106093B1017093B2018093B301D7
S1131AD09093B4012C960FB6F894DEBF0FBECDBF21
S1131AE0DF91CF911F910F91FF90EF90DF90CF90F6
S1131AF0BF90AF909F908F907F906F905F904F902A
S1131B0008959091C00095FFFCCF8093C60008957E
S1131B100F931F93CF93DF938C01892BB9F0C1E00E
S1131B2001C0CD2FD1E0DC0F6C2FC8010E94080E3C
S1131B308823B9F308C06C2FC8010E94080E805D89
S1131B400E94810DCF5FC630B0F303C080E30E94D2
S1131B50810DDF91CF911F910F910895CF93DF9362
S1131B60EC0103C021960E94810D88818111FACF76
S1131B70DF91CF910895CF939C01207F3327329535
S1131B8022952F7023273F702327982F9F702A3088
S1131B9010F087E301C080E3820F9A3010F0C7E3AE
S1131BA001C0C0E3C90F0E94810D8C2F0E94810DDA
S1131BB0CF910895CF93DF9300D000D01F92CDB77B
S1131BC0DEB785E0EFE8F1E0DE01119601900D92B9
S1131BD08A95E1F7E1ECF0E0808188618083E2ECB2
S1131BE0F0E08081866080831092C50087E6809350
S1131BF0C400CE0101960E94AE0D8DE00E94810DBD
S1131C000F900F900F900F900F90DF91CF91089548
S1131C10CF93DF93FC01D62F45E027C09F01ADECA5
S1131C20BCEC0E94E81096958795969587959695B5
S1131C3087959C01220F331F880F991F880F991FC6
S1131C40880F991F820F931FCE2FC81B5FEF540F6D
S1131C504D1769F09F010E94E810FC01F695E79585
S1131C60F695E795F695E795452F4111D7CF8C2F3B
S1131C70DF91CF9108955058BB27AA270E94530E95
S1131C800C9428100E941A1038F00E94211020F0A1
S1131C9039F49F3F19F426F40C9417100EF4E095D0
S1131CA0E7FB0C940310E92F0E94391058F3BA177C
S1131CB0620773078407950720F079F4A6F50C945E
S1131CC05B100EF4E0950B2EBA2FA02D0B01B90179
S1131CD090010C01CA01A0011124FF27591B99F09E
S1131CE0593F50F4503E68F11A16F040A22F232FAA
S1131CF0342F4427585FF3CF469537952795A795FA
S1131D00F0405395C9F77EF41F16BA0B620B730BA0
S1131D10840BBAF09150A1F0FF0FBB1F661F771F11
S1131D20881FC2F70EC0BA0F621F731F841F48F4C6
S1131D30879577956795B795F7959E3F08F0B0CF4F
S1131D409395880F08F09927EE0F97958795089536
S1131D500E94DF0F08F481E008950E94C10E0C94E4
S1131D6028100E94211058F00E941A1040F029F403
S1131D705F3F29F00C94031051110C945C100C94E7
S1131D8017100E94391068F39923B1F3552391F386
S1131D90951B550BBB27AA2762177307840738F0D6
S1131DA09F5F5F4F220F331F441FAA1FA9F335D033
S1131DB00E2E3AF0E0E832D091505040E695001CE7
S1131DC0CAF72BD0FE2F29D0660F771F881FBB1FA1
S1131DD0261737074807AB07B0E809F0BB0B802D7F
S1131DE0BF01FF2793585F4F3AF09E3F510578F0AB
S1131DF00C9403100C945C105F3FE4F3983ED4F30E
S1131E00869577956795B795F7959F5FC9F7880F7E
S1131E10911D9695879597F90895E1E0660F771FD0
S1131E20881FBB1F621773078407BA0720F0621B61
S1131E30730B840BBA0BEE1F88F7E09508950E948C
S1131E40411088F09F5798F0B92F9927B751B0F0F7
S1131E50E1F0660F771F881F991F1AF0BA95C9F72A
S1131E6014C0B13091F00E945B10B1E008950C945D
S1131E705B10672F782F8827B85F39F0B93FCCF310
S1131E80869577956795B395D9F73EF490958095A7
S1131E90709561957F4F8F4F9F4F0895E89409C0C7
S1131EA097FB3EF490958095709561957F4F8F4F89
S1131EB09F4F9923A9F0F92F96E9BB279395F6959F
S1131EC0879577956795B795F111F8CFFAF4BB0F1D
S1131ED011F460FF1BC06F5F7F4F8F4F9F4F16C081
S1131EE0882311F096E911C0772321F09EE8872F0B
S1131EF0762F05C0662371F096E8862F70E060E0C7
S1131F002AF09A95660F771F881FDAF7880F96953F
S1131F10879597F908950E941A1020F019F00E94ED
S1131F20211050F40C9417100C945C10E92F0E94AB
S1131F30391088F35523B1F3E7FB6217730784075D
S1131F409507A8F189F3E92FFF2788232AF0319711
S1131F50660F771F881FDAF7952F5527442332F031
S1131F6091505040220F331F441FD2F7BB27E91B67
S1131F70F50B621B730B840BB109B1F222F4620FEF
S1131F80731F841FB11D31972AF0660F771F881FB6
S1131F90BB1FEFCF9150504062F041F0882332F0E4
S1131FA0660F771F881F91505040C1F793950C948A
S1131FB009108695779567959F5FD9F7F7CF990FA5
S1131FC00008550FAA0BE0E8FEEF16161706E807FF
S1131FD0F907C0F012161306E407F50798F0621B20
S1131FE0730B840B950B39F40A2661F0232B242BF5
S1131FF0252B21F408950A2609F4A140A6958FEF14
S1132000811D811D089597F99F6780E870E060E065
S113201008959F3F31F0915020F487957795679507
S1132020B795880F911D9695879597F908959FEF19
S113203080EC089500240A9416161706180609065B
S1132040089500240A94121613061406050608952A
S1132050092E0394000C11F4882352F0BB0F40F4B2
S1132060BF2B11F460FF04C06F5F7F4F8F4F9F4FF2
S1132070089557FD9058440F551F59F05F3F71F074
S11320804795880F97FB991F61F09F3F79F08795DB
S11320900895121613061406551FF2CF4695F1DF64
S11320A008C0161617061806991FF1CF86957105F4
S11320B0610508940895E894BB2766277727CB0128
S11320C097F908950E94DF0F08F48FEF08950E9496
S11320D07A100C9428100E941A1038F00E942110D3
S11320E020F0952311F00C9403100C941710112474
S11320F00C945C100E94391070F3959FC1F3950FF6
S113210050E0551F629FF001729FBB27F00DB11D77
S1132110639FAA27F00DB11DAA1F649F6627B00D07
S1132120A11D661F829F2227B00DA11D621F739FF0
S1132130B00DA11D621F839FA00D611D221F749FFE
S11321403327A00D611D231F849F600D211D822F45
S1132150762F6A2F11249F5750409AF0F1F088236C
S11321604AF0EE0FFF1FBB1F661F771F881F915099
S11321705040A9F79E3F510580F00C9403100C9435
S11321805C105F3FE4F3983ED4F3869577956795AA
S1132190B795F795E7959F5FC1F7FE2B880F911DC3
S11321A09695879597F9089597FB072E16F4009452
S11321B007D077FD09D00E94F71007FC05D03EF444
S11321C0909581959F4F0895709561957F4F0895DF
S11321D0A29FB001B39FC001A39F700D811D112464
S11321E0911DB29F700D811D1124911D0895AA1B8C
S11321F0BB1B51E107C0AA1FBB1FA617B70710F0EE
S1132200A61BB70B881F991F5A95A9F7809590951F
S10D2210BC01CD010895F894FFCF3E
S113221A4853563A202020005247423A2030780048
S113222A426C61636B0000000057686974650000C2
S113223A00005265640000000000004F72616E677E
S113224A6500000059656C6C6F7700000047726581
S113225A656E000000004379616E000000000042D0
S113226A6C756500000000004D6167656E7461005D
S113227A003F5F636F6C3A2000006E6F5F646174A5
S113228A6100002A20436F6C6F7220646574656371
S113229A746F72202A0049442069732030780054EC
S10722AA4553540040
S9030000FC
