:100000000C9424010C9469010C9489010C94410115
:100010000C9441010C9441010C9441010C94410158
:100020000C9441010C9441010C9441010C94410148
:100030000C9441010C9441010C9441010C94410138
:100040000C9441010C9441010C9441010C94410128
:100050000C9441010C9441010C9441010C94410118
:100060000C9441010C944101000000000000002F9D
:1000700000000007000700147F147F14242A7F2A41
:10008000122313086462364955225000050300000C
:10009000001C2241000041221C0014083E081408E4
:1000A000083E08080000A060000808080808006072
:1000B00060000020100804023E5149453E00427F86
:1000C000400042615149462141454B311814127F8D
:1000D0001027454545393C4A494930017109050316
:1000E0003649494936064949291E0036360000007E
:1000F0005636000008142241001414141414004150
:100100002214080201510906324959513E7C12114C
:10011000127C7F494949363E414141227F4141227B
:100120001C7F494949417F090909013E4149497AF2
:100130007F0808087F00417F41002040413F017F48
:10014000081422417F404040407F020C027F7F0420
:1001500008107F3E4141413E7F090909063E415159
:10016000215E7F09192946464949493101017F012C
:10017000013F4040403F1F2040201F3F4038403F4C
:100180006314081463070870080761514945430068
:100190007F41410055AA55AA550041417F00040204
:1001A0000102044040404040000305000020545438
:1001B00054787F48444438384444442038444448C0
:1001C0007F3854545418087E09010218A4A4A47C52
:1001D0007F0804047800447D40004080847D007FD7
:1001E0001028440000417F40007C041804787C08FB
:1001F0000404783844444438FC2424241818242463
:1002000018FC7C080404084854545420043F44401B
:10021000203C4040207C1C2040201C3C4030403C86
:1002200044281028441CA0A0A07C4464544C4400E2
:10023000107C82000000FF000000827C100000069D
:100240000909063C7E7E7E3C11241FBECFEFD8E01C
:10025000DEBFCDBF11E0A0E0B1E0EAE2F2E202C011
:1002600005900D92A439B107D9F721E0A4E9B1E0D6
:1002700001C01D92A53BB207E1F70E946C0C0C94E3
:1002800013110C94000084EA8093BC008091BC00A0
:100290008823E4F7089584E98093BC00089580934F
:1002A000BB0084E88093BC008091BC008823E4F705
:1002B0000895882321F084E88093BC0003C084EC77
:1002C0008093BC008091BC008823E4F78091BB0040
:1002D00008951F920F920FB60F9211242F938F93B0
:1002E0009F934A990EC02FE788E391E02150804008
:1002F0009040E1F700C000004A9903C081E080937C
:1003000094019F918F912F910F900FBE0F901F908E
:1003100018951F920F920FB60F9211242F938F935F
:100320009F934B9915C02FE788E391E021508040BF
:100330009040E1F700C000004B990AC08091940101
:10034000823019F41092940103C082E080939401EA
:100350009F918F912F910F900FBE0F901F90189526
:10036000CF93DF93D82FC62F0E94430182E50E94CE
:100370004F018D2F80680E944F018C2F0E944F01EA
:100380000E944B01DF91CF910895CF93C82F0E9417
:10039000430182E50E944F018C2F80680E944F012B
:1003A0000E94430183E50E944F0181E00E945901B0
:1003B000C82F0E944B018C2FCF910895CF93DF93CC
:1003C000CDB7DEB729970FB6F894DEBF0FBECDBF0D
:1003D00061E080E00E94B00166EF81E00E94B00120
:1003E0008FED9EE20197F1F700C0000089E0E6E89A
:1003F000F1E0DE01119601900D928A95E1F7CE01B0
:1004000001960E94B60D82E10E94C50190E00E9413
:10041000C30D8DE00E94890D80E029960FB6F894F7
:10042000DEBF0FBECDBFDF91CF910895DF92EF9277
:10043000FF920F931F93CF93DF93CDB7DEB76897EB
:100440000FB6F894DEBF0FBECDBF1A8219821C8290
:100450001B821E821D8218861F821A8619861C86A0
:100460001B861E861D86188A1F861A8A198A1C8A70
:100470001B8A1E8A1D8A188E1F8A63E080E00E94F4
:10048000B001D12C67C084E6D89E802D11248E5CEB
:1004900087BD0D2D10E084E10E94C501E82EF12CEE
:1004A000000F111F81E090E08C0F9D1F080F191F96
:1004B000F801F38AE28A85E10E94C50190E0982F55
:1004C00088278E299F29F801938B828B86E10E94D1
:1004D000C501E82EF12CF801F182E08287E10E944B
:1004E000C50190E0982F8827E82AF92AF801F182BF
:1004F000E08288E10E94C501E82EF12CF801F78224
:10050000E68289E10E94C50190E0982F8827E82AB9
:10051000F92AF801F782E6828AE10E94C501E82EF5
:10052000F12CF801F586E4868BE10E94C50190E08C
:10053000982F8827E82AF92AF801F586E48617BC5F
:10054000FFEF26E781E0F15020408040E1F700C056
:100550000000D39492E09D1508F095CF2B893C893B
:100560008D899E89280F391F8F89988D280F391FF3
:10057000ABEABAEA0E94F01096958795BC0180E03C
:1005800090E00E94560F6093A0017093A1018093A8
:10059000A2019093A30129813A818B819C81280F2C
:1005A000391F8D819E81280F391FABEABAEA0E945C
:1005B000F01096958795BC0180E090E00E94560F60
:1005C0006093A9017093AA018093AB019093AC0151
:1005D0002F81388589859A85280F391F8B859C85C1
:1005E000280F391FABEABAEA0E94F010969587955A
:1005F000BC0180E090E00E94560F6093A4017093CC
:10060000A5018093A6019093A7012D853E858F8536
:100610009889280F391F89899A89280F391FABEAD1
:10062000BAEA0E94F01096958795BC0180E090E0B0
:100630000E94560F6093AD017093AE018093AF019D
:100640009093B00168960FB6F894DEBF0FBECDBF91
:10065000DF91CF911F910F91FF90EF90DF90089560
:100660008F929F92AF92BF92CF92DF92EF92FF92C2
:100670000F931F93CF93DF93D62ED72FC82FC92E5A
:10068000B22EA32E942E852E0E94B00E882309F43C
:1006900044C02E2D3F2D402F512F6D2D7D2F8C2F9F
:1006A0009C2D0E94B00E8823C1F12E2D3F2D402F8E
:1006B000512F6B2D7A2D892D982D0E94B00E8823F5
:1006C00061F12B2D3A2D492D582D6D2D7D2F8C2F1D
:1006D0009C2D0E946A10181674F42E2D3F2D402F69
:1006E000512F6D2D7D2F8C2F9C2D0E946A10181676
:1006F0000CF063C07AC02E2D3F2D402F512F6B2D53
:100700007A2D892D982D0E946A1018160CF05AC067
:10071000DB2CDA2DC92DC82C68C02B2D3A2D492D84
:10072000582D6D2D7D2F8C2F9C2D0E94B00E811188
:100730000EC02E2D3F2D402F512F6D2D7D2F8C2F34
:100740009C2D0E946A1018160CF041C04EC02E2D30
:100750003F2D402F512F6D2D7D2F8C2F9C2D0E94D2
:10076000B00E81110DC02B2D3A2D492D582D6D2D18
:100770007D2F8C2F9C2D0E946A1018166CF535C0A9
:100780002E2D3F2D402F512F6B2D7A2D892D982DF9
:100790000E94B00E811125C02B2D3A2D492D582DC8
:1007A0006D2D7D2F8C2F9C2D0E94B00E8823ECF494
:1007B000DB2CDA2DC92DC82C18C0DE2CDF2DC02F64
:1007C000C12E13C0DE2CDF2DC02FC12E0EC0DE2C9B
:1007D000DF2DC02FC12E09C0DB2CDA2DC92DC82C6E
:1007E00004C0D12CD0E0C0E0C12C6D2D7D2F8C2F0A
:1007F0009C2DDF91CF911F910F91FF90EF90DF9093
:10080000CF90BF90AF909F908F9008958F929F92BE
:10081000AF92BF92CF92DF92EF92FF920F931F930E
:10082000CF93DF93D62ED72FC82FC92EB22EA32E4B
:10083000942E852E0E94B00E882309F444C02E2DDC
:100840003F2D402F512F6D2D7D2F8C2F9C2D0E94E1
:10085000B00E8823C1F12E2D3F2D402F512F6B2D2F
:100860007A2D892D982D0E94B00E882361F12B2DB1
:100870003A2D492D582D6D2D7D2F8C2F9C2D0E94AA
:10088000B00E882374F42E2D3F2D402F512F6D2D47
:100890007D2F8C2F9C2D0E94B00E88230CF063C0FE
:1008A0007AC02E2D3F2D402F512F6B2D7A2D892D63
:1008B000982D0E94B00E88230CF05AC0DB2CDA2D44
:1008C000C92DC82C68C02B2D3A2D492D582D6D2DC2
:1008D0007D2F8C2F9C2D0E94B00E81110EC02E2DCD
:1008E0003F2D402F512F6D2D7D2F8C2F9C2D0E9441
:1008F000B00E88230CF041C04EC02E2D3F2D402F4E
:10090000512F6D2D7D2F8C2F9C2D0E94B00E8111AB
:100910000DC02B2D3A2D492D582D6D2D7D2F8C2F4F
:100920009C2D0E94B00E88236CF535C02E2D3F2DD6
:10093000402F512F6B2D7A2D892D982D0E94B00EAE
:10094000811125C02B2D3A2D492D582D6D2D7D2F30
:100950008C2F9C2D0E946A101816ECF4DB2CDA2DDB
:10096000C92DC82C18C0DE2CDF2DC02FC12E13C0FE
:10097000DE2CDF2DC02FC12E0EC0DE2CDF2DC02FB0
:10098000C12E09C0DB2CDA2DC92DC82C04C0D12CF6
:10099000D0E0C0E0C12C6D2D7D2F8C2F9C2DDF91E0
:1009A000CF911F910F91FF90EF90DF90CF90BF906C
:1009B000AF909F908F9008954F925F926F927F9229
:1009C0008F929F92AF92BF92CF92DF92EF92FF925F
:1009D0000F931F93CF93DF93CDB7DEB72C970FB64E
:1009E000F894DEBF0FBECDBF6091A9017091AA013E
:1009F0008091AB019091AC0120E030E04FE753E4EF
:100A00000E94B50E2B013C016091A4017091A501DB
:100A10008091A6019091A70120E030E04FE753E4D8
:100A20000E94B50E69837A838B839C836091AD01AC
:100A30007091AE018091AF019091B00120E030E063
:100A40004FE753E40E94B50E6D837E838F839887B2
:100A50007B018C0129813A814B815C81C301B20108
:100A60000E9430034B015C0129813A814B815C81FA
:100A7000C301B2010E9406046B017C019B01AC0121
:100A8000C501B4010E94430E69877A878B879C87D2
:100A9000A7019601C501B4010E94B00E811109C0E1
:100AA00010929B0110929C0110929D0110929E0148
:100AB00098C0A5019401C301B2010E94B00E81113A
:100AC0002BC02D813E814F81588569817A818B8130
:100AD0009C810E94430E29853A854B855C850E9446
:100AE000B50E20E030E040E752E40E946F1020E0B5
:100AF00030E044EB53E40E94440E20E030E044EB4D
:100B000053E40E949E0F60939B0170939C0180931D
:100B10009D0190939E0165C0A501940169817A8130
:100B20008B819C810E94B00E811129C0A30192018A
:100B30006D817E818F8198850E94430E29853A853B
:100B40004B855C850E94B50E20E030E040E752E422
:100B50000E946F1020E030E040EF52E40E94440E0B
:100B600020E030E044EB53E40E949E0F60939B0131
:100B700070939C0180939D0190939E0132C0A501CA
:100B800094016D817E818F8198850E94B00E8111C4
:100B900028C029813A814B815C81C301B2010E9446
:100BA000430E29853A854B855C850E94B50E20E071
:100BB00030E040E752E40E946F1020E030E040E770
:100BC00053E40E94440E20E030E044EB53E40E94E2
:100BD0009E0F60939B0170939C0180939D01909365
:100BE0009E0120E030E0A901C501B4010E94B00ED1
:100BF000811109C0109296011092970110929801EC
:100C00001092990116C0A501940169857A858B859A
:100C10009C850E94B50E20E030E048EC52E40E9432
:100C20006F10609396017093970180939801909351
:100C3000990120E030E048EC52E4C501B4010E9483
:100C40006F106093B1017093B2018093B3019093E0
:100C5000B4018BE191E00E94B60D6091A901709101
:100C6000AA018091AB019091AC010E94270FCB01AA
:100C70000E94C30D6091A4017091A5018091A6010D
:100C80009091A7010E94270FCB010E94C30D609194
:100C9000AD017091AE018091AF019091B0010E94C1
:100CA000270FCB010E94C30D8DE00E94890D83E1C7
:100CB00091E00E94B60D60919B0170919C01809122
:100CC0009D0190919E010E94270FCB010E94900DE3
:100CD0008CE20E94890D609196017091970180913C
:100CE0009801909199010E94270FCB010E94900DCD
:100CF0008CE20E94890D6091B1017091B2018091E6
:100D0000B3019091B4010E94270FCB010E94900D76
:100D10008DE00E94890D2C960FB6F894DEBF0FBEB1
:100D2000CDBFDF91CF911F910F91FF90EF90DF909A
:100D3000CF90BF90AF909F908F907F906F905F907B
:100D40004F9008950F931F93CF93DF938C01D62F6D
:100D50000E94430188E70E944F0180E00E944F01FA
:100D6000C0E007C0F801EC0FF11D80810E944F0127
:100D7000CF5FCD17B8F30E944B01DF91CF911F9148
:100D80000F910895CF93DF931F92CDB7DEB789837C
:100D900061E0CE0101960E94A2060F90DF91CF91F3
:100DA0000895CF93DF9300D0CDB7DEB789836A83F0
:100DB00062E0CE0101960E94A2060F900F90DF9193
:100DC000CF910895CF93DF9300D01F92CDB7DEB7B8
:100DD00089836A834B8363E0CE0101960E94A20659
:100DE0000F900F900F90DF91CF910895CF93C82F60
:100DF0000E94430188E70E944F0180E40E944F0156
:100E00008C2F0E944F010E944B01CF910895CF93E8
:100E1000883080F4662374F0C82F80939F0160931C
:100E20009A014FE781E20E94E20647E06C2F82E2DE
:100E30000E94E206CF910895CF93DF934FE760E0E1
:100E400081E20E94E20647E060E082E20E94E20660
:100E5000D0E009C080E00E94F606CF5F01C0C0E08C
:100E6000CC23C4F7DF5FD830D0F360E080E00E948D
:100E70000707DF91CF91089580919F018F5F877061
:100E800080939F0160E00E9407070895CF93DF934E
:100E9000D82F80919A0190E005968038910514F43E
:100EA000DA3011F40E943C07DA3011F1D052C0E080
:100EB0002D2F30E0F901EE0FFF1FEE0FFF1FE20FA5
:100EC000F31FEC0FF11DE859FF4F84910E94F606C5
:100ED00090919A019F5F90939A01CF5FC53041F73F
:100EE00080E00E94F60680919A018F5F80939A01BC
:100EF000DF91CF910895CF93DF93EC0103C021964A
:100F00000E94460788818111FACFDF91CF91089521
:100F1000CF93DF9300D000D0CDB7DEB78EEA0E942A
:100F2000C20660E885ED0E94D1066FE388EA0E9460
:100F3000D10660E083ED0E94D10680E40E94C206E3
:100F400064E18DE80E94D10660E080E20E94D10653
:100F500081EA0E94C20688EC0E94C20662E18AED24
:100F60000E94D1066FEC81E80E94D10661EF89ED05
:100F70000E94D10660E48BED0E94D10684EA0E94B3
:100F8000C20686EA0E94C2068FEA0E94C2060E943A
:100F90001C0782E594E49A83898389E590E09C8329
:100FA0008B8367E382E00E940707CE0101960E94CF
:100FB0007B0780E00F900F900F900F90DF91CF9103
:100FC0000895CF93282F22952F70982F9F702A3045
:100FD00010F087E301C080E3820F9A3010F0C7E37E
:100FE00001C0C0E3C90F0E9446078C2F0E9446072C
:100FF000CF9108950F931F93CF93DF938C01892B8B
:10100000B9F0C1E001C0CD2FD1E0DC0F6C2FC801D9
:101010000E94100E8823B9F308C06C2FC8010E94EB
:10102000100E805D0E944607CF5FC630B0F303C04C
:1010300080E30E944607DF91CF911F910F910895A1
:10104000DF92EF92FF920F931F93CF93DF93C82FFE
:101050000E941C07C23009F46DC1C33009F496C266
:10106000C13009F099C2B2C080919501811107C0C9
:1010700081E08093950187EA0E94C20605C0109224
:10108000950186EA0E94C206CE33F8F045C061E0C1
:101090006C0F8D2F0E9407078AE20E9446076AE7BD
:1010A0006C1B87E08D1B0E9407078AE20E9446079F
:1010B0002FEF81EE94E0215080409040E1F700C096
:1010C0000000E0996BC2DF5F01C0D0E0D830FCF2D5
:1010D00018E01C0FD0E01DC069E06C0F87E08D1B8D
:1010E0000E9407078AE20E9446076AE7611B8D2F6C
:1010F0000E9407078AE20E9446072FEF81EE94E0E4
:10110000215080409040E1F700C00000E09948C2C3
:10111000DF5FD83008F3C55F80919501811107C06A
:1011200081E08093950187EA0E94C20605C0109273
:10113000950186EA0E94C206CE33F8F445C061E00C
:101140006C0F8D2F0E94070780E20E94460769E717
:101150006C1B87E08D1B0E94070780E20E944607F8
:101160002FEF81EE94E0215080409040E1F700C0E5
:101170000000E09917C2DF5F01C0D0E0D830FCF278
:1011800018E01C0FD0E01DC069E06C0F87E08D1BDC
:101190000E94070780E20E94460769E7611B8D2FC6
:1011A0000E94070780E20E9446072FEF81EE94E03D
:1011B000215080409040E1F700C00000E099F4C168
:1011C000DF5FD83008F3C55FCB5F01C0C0E0CB372D
:1011D00008F44ACF81E0F9C180919501811107C0DF
:1011E00081E08093950187EA0E94C20605C01092B3
:1011F000950186EA0E94C206C430F8F043C061E05F
:101200006D0F8C2F0E9407078AE20E94460769E74C
:101210006D1B87E08C1B0E9407078AE20E9446072D
:101220002FEF81EE94E0215080409040E1F700C024
:101230000000E099BBC1D85F01C0D0E0DB37F8F215
:10124000CF5FD0E01DC069E76D1B8C2F0E940707A0
:101250008AE20E94460761E06D0F87E08C1B0E94C6
:1012600007078AE20E9446072FEF81EE94E02150A3
:1012700080409040E1F700C00000E09999C1D85F3C
:10128000DB3708F380919501811107C081E08093DD
:10129000950187EA0E94C20605C01092950186EA70
:1012A0000E94C206C430F8F443C061E06D0F8C2F79
:1012B0000E94070780E20E94460769E76D1B87E0EE
:1012C0008C1B0E94070780E20E9446072FEF81EEE9
:1012D00094E0215080409040E1F700C00000E09988
:1012E00069C1D85F01C0D0E0DB37F8F2CF5FD0E052
:1012F0001DC069E76D1B8C2F0E94070780E20E94CA
:10130000460761E06D0F87E08C1B0E94070780E2B3
:101310000E9446072FEF81EE94E0215080409040DC
:10132000E1F700C00000E09947C1D85FDB3708F360
:10133000CF5F01C0C0E0C83008F44ECF81E045C1A6
:1013400080919501811108C081E08093950187EA21
:101350000E94C206C1E035C01092950186EA0E9443
:10136000C206F8CF6C2F802F0E9407078FE70E94DC
:1013700046071BE71C1BD7E0D01B612F8D2F0E9457
:1013800007078FE70E9446072FE788E391E0215087
:1013900080409040E1F700C000006C2F802F0E9439
:1013A000070780E20E944607612F8D2F0E940707E2
:1013B00080E20E94460780919401823009F0FEC0CD
:1013C000CF5FCB3778F280919501811107C081E022
:1013D0008093950187EA0E94C20605C0109295018C
:1013E00086EA0E94C206EE24E394E00EC1E02FC01C
:1013F0001BE71C1B612F8E2D0E9407078FE70E94A1
:101400004607D7E0DE196C2F8D2F0E9407078FE764
:101410000E9446072FE788E391E0215080409040EA
:10142000E1F700C00000612F8E2D0E94070780E2C7
:101430000E9446076C2F8D2F0E94070780E20E94B2
:10144000460780919401823009F0BAC0CF5FCB3754
:1014500078F20E5F01C000E0043008F471CFE12C97
:101460008FC080919501811108C081E08093950122
:1014700087EA0E94C206C1E037C01092950186EA51
:101480000E94C206F8CF03E00E196C2F802F0E9435
:1014900007078FE70E9446071BE71C1B612FD4E05C
:1014A000DE0D8D2F0E9407078FE70E9446072FE76A
:1014B00088E391E0215080409040E1F700C00000B7
:1014C0006C2F802F0E94070780E20E944607612F41
:1014D0008D2F0E94070780E20E94460780919401A9
:1014E000823009F06FC0CF5FCB3768F280919501F1
:1014F000811107C081E08093950187EA0E94C206AE
:1015000005C01092950186EA0E94C206DE2CE39483
:10151000C1E030C00BE70C1B13E01E19602F812FB8
:101520000E9407078FE70E9446076C2FD5E0DD0D6C
:101530008D2F0E9407078FE70E9446072FE788E359
:1015400091E0215080409040E1F700C00000602F02
:10155000812F0E94070780E20E9446076C2F8D2F83
:101560000E94070780E20E94460780919401823022
:1015700059F5CF5FCB3770F26894EE24E1F8ED0CAB
:1015800023E02E150CF06DCFF39401C0F12C81E017
:101590008F1508F060CF19C081E017C080E015C03A
:1015A00080E013C080E011C080E00FC080E00DC07B
:1015B00080E00BC080E009C080E007C080E005C08B
:1015C00080E003C080E001C080E0DF91CF911F91F7
:1015D0000F91FF90EF90DF900895CF93DF936034E9
:1015E0007CF5962F662314F497E0960FC62FD82F1C
:1015F000892F85958595859580550E94C2068D2FEA
:101600008F700E94C2068D2FDD0F990B807F992766
:1016100095958795959587959595879595958795B2
:1016200080610E94C2066C2F67781CF46150686F5D
:101630006F5F81E001C0880F6A95EAF70E94F606A5
:10164000DF91CF9108958F929F92AF92BF92CF92E8
:10165000DF92EF92FF920F931F93CF93DF934C0192
:101660006B017A015901EA01C81BD90B8901061BDC
:10167000170BCE01DD2324F4882799278C1B9D0BA3
:101680009801112324F422273327201B310B28171C
:101690003907BCF58E149F04BCF054012EC095018F
:1016A00028193909029FC001039F900D129F900DC8
:1016B0001124BE010E94DC106C0D8A2D0E94ED0ADF
:1016C0008FEFA81AB80A01C05401EA14FB043CF7D2
:1016D00050C0950128193909029FC001039F900D40
:1016E000129F900D1124BE010E94DC106C0D8A2DFA
:1016F0000E94ED0A81E0A81AB108AE14BF044CF7AD
:1017000038C0CA14DB04C4F0760130C097012C192C
:101710003D09C29FC001C39F900DD29F900D11241F
:10172000B8010E94DC10862F6E2D880D0E94ED0AF4
:101730008FEFE81AF80A01C07601AE14BF0434F73F
:1017400018C097012C193D09C29FC001C39F900D7D
:10175000D29F900D1124B8010E94DC10862F6E2DAF
:10176000880D0E94ED0A81E0E81AF108EA14FB04F2
:1017700044F7DF91CF911F910F91FF90EF90DF9091
:10178000CF90BF90AF909F908F90089580919501DA
:10179000811104C081E08093950102C010929501EF
:1017A0000E941C076AE081E00E94070780E091E048
:1017B0000E947B0761E083E00E9407078BE191E0D4
:1017C0000E947B076091A9017091AA018091AB01F1
:1017D0009091AC010E94270F862F0E94E107609133
:1017E000A4017091A5018091A6019091A7010E948A
:1017F000270F862F0E94E1076091AD017091AE0125
:101800008091AF019091B0010E94270F862F0E9416
:10181000E10761E084E00E94070783E191E00E9414
:101820007B0760919B0170919C0180919D0190913B
:101830009E010E94270FCB010E94FA078CE20E94B2
:10184000460760919601709197018091980190915F
:1018500099010E94270FCB010E94FA078CE20E9497
:1018600046076091B1017091B2018091B3019091EE
:10187000B4010E94270FCB010E94FA0761E086E0C5
:101880000E94070784E791E00E947B076091B10105
:101890007091B2018091B3019091B40120E030E0E9
:1018A00040E050E40E946A1088238CF08091A801E7
:1018B00090E09C01220F331F220F331F220F331F92
:1018C000820F931F8D5D9E4F0E947B0708958DE7C9
:1018D00091E00E947B0708952FEF84E39CE0215064
:1018E00080409040E1F700C0000081E884BD82E0C4
:1018F00085BD83E08DBB8AE0809369008AB18064F6
:101900008AB98CE08093B8000E94E20D89E20E94BF
:10191000DE018CE30E94880781E087BD2FEF84E31E
:101920009CE0215080409040E1F700C0000017BCCF
:1019300078948091940190E00E94900D80919401A0
:101940008130A1F1C0F0823009F4DDC0F2CF6C2FFC
:1019500070E02FE330E0261B370B4FE750E080E0CC
:1019600090E00E94230B8FE39CE90197F1F700C000
:101970000000CF5F01C0C0E0C03448F3C0E013C036
:101980002C2F30E06FE370E0621B730B4FE750E0E9
:1019900080E090E00E94230B8FE39CE90197F1F730
:1019A00000C00000CF5FC03458F3C3CF83E0809302
:1019B00094010E9416020E94DC046091B1017091B2
:1019C000B2018091B3019091B40120E030E040E099
:1019D00050E40E946A1088230CF48BC084E791E0E5
:1019E0000E94B60DC0909B01D0909C01E0909D019B
:1019F000F0909E0120E030E04FEA53E4C701B601C9
:101A00000E946A10882324F082E08093A80160C0BD
:101A100020E030E040E753E4C701B6010E946A10BD
:101A2000882324F088E08093A80152C020E030E0B1
:101A300042E553E4C701B6010E946A10882324F0EE
:101A400087E08093A80144C020E030E042E053E406
:101A5000C701B6010E946A10882324F086E08093B3
:101A6000A80136C020E030E040EA52E4C701B601E8
:101A70000E946A10882324F085E08093A80128C082
:101A800020E030E040E751E4C701B6010E946A104F
:101A9000882324F084E08093A8011AC020E030E07D
:101AA00040EA50E4C701B6010E946A10882324F07E
:101AB00083E08093A8010CC020E030E0A901C701B9
:101AC000B6010E946A1088231CF082E08093A8016E
:101AD0008091A80190E09C01220F331F220F331F39
:101AE000220F331F820F931F8D5D9E4F0E94B60DF4
:101AF00004C08DE791E00E94B60D8DE00E94890D33
:101B00000E94C60B16CF83E00E9420088111FBCFF4
:101B100010CF9091C00095FFFCCF8093C600089530
:101B20000F931F93CF93DF938C01892BB9F0C1E002
:101B300001C0CD2FD1E0DC0F6C2FC8010E94100E28
:101B40008823B9F308C06C2FC8010E94100E805D75
:101B50000E94890DCF5FC630B0F303C080E30E94BE
:101B6000890DDF91CF911F910F910895CF93DF934E
:101B7000EC0103C021960E94890D88818111FACF62
:101B8000DF91CF910895CF939C01207F3327329529
:101B900022952F7023273F702327982F9F702A307C
:101BA00010F087E301C080E3820F9A3010F0C7E3A2
:101BB00001C0C0E3C90F0E94890D8C2F0E94890DBE
:101BC000CF910895CF93DF9300D000D01F92CDB76F
:101BD000DEB785E0EFE8F1E0DE01119601900D92AD
:101BE0008A95E1F7E1ECF0E0808188618083E2ECA6
:101BF000F0E08081866080831092C50087E6809344
:101C0000C400CE0101960E94B60D8DE00E94890DA0
:101C10000F900F900F900F900F90DF91CF9108953C
:101C2000CF93DF93FC01D62F45E027C09F01ADEC99
:101C3000BCEC0E94F01096958795969587959695A1
:101C400087959C01220F331F880F991F880F991FBA
:101C5000880F991F820F931FCE2FC81B5FEF540F61
:101C60004D1769F09F010E94F010FC01F695E79571
:101C7000F695E795F695E795452F4111D7CF8C2F2F
:101C8000DF91CF9108955058BB27AA270E945B0E81
:101C90000C9430100E94221038F00E94291020F07D
:101CA00039F49F3F19F426F40C941F100EF4E095BC
:101CB000E7FB0C940B10E92F0E94411058F3BA1760
:101CC000620773078407950720F079F4A6F50C9452
:101CD00063100EF4E0950B2EBA2FA02D0B01B90165
:101CE00090010C01CA01A0011124FF27591B99F092
:101CF000593F50F4503E68F11A16F040A22F232F9E
:101D0000342F4427585FF3CF469537952795A795ED
:101D1000F0405395C9F77EF41F16BA0B620B730B94
:101D2000840BBAF09150A1F0FF0FBB1F661F771F05
:101D3000881FC2F70EC0BA0F621F731F841F48F4BA
:101D4000879577956795B795F7959E3F08F0B0CF43
:101D50009395880F08F09927EE0F9795879508952A
:101D60000E94E70F08F481E008950E94C90E0C94C8
:101D700030100E94291058F00E94221040F029F4DF
:101D80005F3F29F00C940B1051110C9464100C94CB
:101D90001F100E94411068F39923B1F3552391F36A
:101DA000951B550BBB27AA2762177307840738F0CA
:101DB0009F5F5F4F220F331F441FAA1FA9F335D027
:101DC0000E2E3AF0E0E832D091505040E695001CDB
:101DD000CAF72BD0FE2F29D0660F771F881FBB1F95
:101DE000261737074807AB07B0E809F0BB0B802D73
:101DF000BF01FF2793585F4F3AF09E3F510578F09F
:101E00000C940B100C9464105F3FE4F3983ED4F3F1
:101E1000869577956795B795F7959F5FC9F7880F72
:101E2000911D9695879597F90895E1E0660F771FC4
:101E3000881FBB1F621773078407BA0720F0621B55
:101E4000730B840BBA0BEE1F88F7E09508950E9480
:101E5000491088F09F5798F0B92F9927B751B0F0E3
:101E6000E1F0660F771F881F991F1AF0BA95C9F71E
:101E700014C0B13091F00E946310B1E008950C9449
:101E80006310672F782F8827B85F39F0B93FCCF3FC
:101E9000869577956795B395D9F73EF4909580959B
:101EA000709561957F4F8F4F9F4F0895E89409C0BB
:101EB00097FB3EF490958095709561957F4F8F4F7D
:101EC0009F4F9923A9F0F92F96E9BB279395F69593
:101ED000879577956795B795F111F8CFFAF4BB0F11
:101EE00011F460FF1BC06F5F7F4F8F4F9F4F16C075
:101EF000882311F096E911C0772321F09EE8872FFF
:101F0000762F05C0662371F096E8862F70E060E0BA
:101F10002AF09A95660F771F881FDAF7880F969533
:101F2000879597F908950E94221020F019F00E94D9
:101F3000291050F40C941F100C946410E92F0E9487
:101F4000411088F35523B1F3E7FB62177307840749
:101F50009507A8F189F3E92FFF2788232AF0319705
:101F6000660F771F881FDAF7952F5527442332F025
:101F700091505040220F331F441FD2F7BB27E91B5B
:101F8000F50B621B730B840BB109B1F222F4620FE3
:101F9000731F841FB11D31972AF0660F771F881FAA
:101FA000BB1FEFCF9150504062F041F0882332F0D8
:101FB000660F771F881F91505040C1F793950C947E
:101FC00011108695779567959F5FD9F7F7CF990F91
:101FD0000008550FAA0BE0E8FEEF16161706E807F3
:101FE000F907C0F012161306E407F50798F0621B14
:101FF000730B840B950B39F40A2661F0232B242BE9
:10200000252B21F408950A2609F4A140A6958FEF07
:10201000811D811D089597F99F6780E870E060E059
:1020200008959F3F31F0915020F4879577956795FB
:10203000B795880F911D9695879597F908959FEF0D
:1020400080EC089500240A9416161706180609064F
:10205000089500240A94121613061406050608951E
:10206000092E0394000C11F4882352F0BB0F40F4A6
:10207000BF2B11F460FF04C06F5F7F4F8F4F9F4FE6
:10208000089557FD9058440F551F59F05F3F71F068
:102090004795880F97FB991F61F09F3F79F08795CF
:1020A0000895121613061406551FF2CF4695F1DF58
:1020B00008C0161617061806991FF1CF86957105E8
:1020C000610508940895E894BB2766277727CB011C
:1020D00097F908950E94E70F08F48FEF08950E9482
:1020E00082100C9430100E94221038F00E942910A7
:1020F00020F0952311F00C940B100C941F10112458
:102100000C9464100E94411070F3959FC1F3950FD9
:1021100050E0551F629FF001729FBB27F00DB11D6B
:10212000639FAA27F00DB11DAA1F649F6627B00DFB
:10213000A11D661F829F2227B00DA11D621F739FE4
:10214000B00DA11D621F839FA00D611D221F749FF2
:102150003327A00D611D231F849F600D211D822F39
:10216000762F6A2F11249F5750409AF0F1F0882360
:102170004AF0EE0FFF1FBB1F661F771F881F91508D
:102180005040A9F79E3F510580F00C940B100C9421
:1021900064105F3FE4F3983ED4F386957795679596
:1021A000B795F795E7959F5FC1F7FE2B880F911DB7
:1021B0009695879597F9089597FB072E16F4009446
:1021C00007D077FD09D00E94FF1007FC05D03EF430
:1021D000909581959F4F0895709561957F4F0895D3
:1021E000A29FB001B39FC001A39F700D811D112458
:1021F000911DB29F700D811D1124911D0895AA1B80
:10220000BB1B51E107C0AA1FBB1FA617B70710F0E1
:10221000A61BB70B881F991F5A95A9F78095909513
:0A222000BC01CD010895F894FFCF32
:10222A002A20436F6C6F72206465746563746F72E1
:10223A00202A004853563A202020005247423A208A
:10224A00307800426C61636B000000005768697463
:10225A0065000000005265640000000000004F7233
:10226A00616E676500000059656C6C6F770000004D
:10227A00477265656E000000004379616E000000D8
:10228A000000426C756500000000004D6167656ED4
:10229A00746100003F5F636F6C3A2000006E6F5FED
:1022AA0064617461000049442069732030780054E5
:0422BA004553540034
:00000001FF
