:100000000C9434000C9449000C9449000C94490061
:100010000C9449000C9449000C9449000C9449003C
:100020000C9449000C9449000C9449000C9449002C
:100030000C9449000C9449000C9449000C9449001C
:100040000C9449000C9449000C9449000C9449000C
:100050000C9449000C9449000C9449000C944900FC
:100060000C9449000C94490011241FBECFEFD8E036
:10007000DEBFCDBF11E0A0E0B1E0EAEFF2E002C0E8
:1000800005900D92AC30B107D9F70E944E010C9447
:100090007B010C940000ECE7F0E09081892B8066F6
:1000A000808387EC90E00197F1F700C00000EAE759
:1000B000F0E080818064808380917A0084FFFCCFAF
:1000C000EAE7F0E080818061808380917900089583
:1000D00084B18D6284B983E58CBD0895CF93DF939D
:1000E000FC01D62F43E027C09F01ADECBCEC0E9481
:1000F0006C019695879596958795969587959C0121
:10010000220F331F880F991F880F991F880F991F7F
:10011000820F931FCE2FC81B5FEF540F4D1769F04E
:100120009F010E946C01FC01F695E795F695E79515
:10013000F695E795452F4111D7CF8C2FDF91CF91C1
:100140000895BF92CF92DF92EF92FF920F931F9389
:10015000CF93DF93CDB7DEB72F970FB6F894DEBFFE
:100160000FBECDBF7C0119821A821B828CE0E0E0B9
:10017000F1E0DE01149601900D928A95E1F7FF20DF
:100180002CF4CC24DD24CE18DF0801C06701BB2489
:10019000B39412C00B2D0B2C000C110B0150110944
:1001A0006B2DC6010E946E00E1E0F0E0EC0FFD1F38
:1001B000E00FF11F8083B39483E08B155CF7CD28AB
:1001C00021F480E043C08F5F01C080E0282F30E041
:1001D000E1E0F0E0EC0FFD1FE20FF31F90819923A7
:1001E00091F3FF2034F48FE78EBD0DB407FEFDCFF1
:1001F00005C08FEF8EBD0DB407FEFDCF80E01DC0A2
:10020000482F082E000C550B421753071CF49E85EF
:100210009EBD0FC0E1E0F0E0EC0FFD1FE40FF51F05
:100220009081E4E0F0E0EC0FFD1FE90FF11D9081FB
:100230009EBD0DB407FEFDCF8F5F83300CF30DC064
:100240009E859EBD0DB407FEFDCF8F5F8330C4F346
:100250008C818EBD0DB407FEFDCF85B18E7F85B933
:100260008AE68A95F1F700C085B1816085B98AE692
:100270008A95F1F700C085B18E7F85B92F960FB6AC
:10028000F894DEBF0FBECDBFDF91CF911F910F91CC
:10029000FF90EF90DF90CF90BF900895EAE7F0E0F5
:1002A0008081826880838AB180638AB983E284BD59
:1002B00081E085BD0E9468002FEF83EC99E021501A
:1002C00080409040E1F700C0000080E00E944B00B9
:1002D00090E00E94A100F9CFA29FB001B39FC0019E
:1002E000A39F700D811D1124911DB29F700D811D62
:0A02F0001124911D0895F894FFCF2A
:0C02FA0081F34961332505F10121FF7FEC
:00000001FF
