S01C000074726F796B615F726F626F745F636861737369732E737265639C
S11300000C9434000C9451000C9451000C94510045
S11300100C9451000C9446020C9451000C94510021
S11300200C9451000C9482050C9451000C945100D2
S11300300C9451000C9451000C9451000C945100F8
S11300400C94E5010C9451000C94D7060C945100C7
S11300500C9451000C9474000C9451000C945100B5
S11300600C9451000C94510011241FBECFEFD8E022
S1130070DEBFCDBF11E0A0E0B1E0E4E0F3E102C0F7
S113008005900D92A031B107D9F721E0A0E1B1E0CC
S113009001C01D92AD3BB207E1F70E9484030C94AA
S11300A080090C94000040E06FE070E08AE20E9456
S11300B0F80208951F93CF93DF9310E00DC0C12F72
S11300C0D0E0612F8AE20E942A03CC0FDD1FC05FBB
S11300D0DE4F998388831F5F143088F380E191E0B9
S11300E0DF91CF911F9108951F920F920FB60F9237
S11300F011248F929F92AF92BF92CF92DF92FF9280
S11301000F931F932F933F934F935F936F937F931B
S11301108F939F93AF93BF93CF93DF93EF93FF930B
S1130120809119018130F9F030F08230A1F18330EF
S113013009F449C05EC0E0911801F0E02091780014
S11301408091790090E0982F8827822BEE0FFF1F73
S1130150E65CFE4F9183808381E08093190181E402
S113016080937C0046C0E0911801F0E02091780073
S11301708091790090E0982F8827822BEE0FFF1F43
S1130180E65CFE4F9183808382E08093190182E4D0
S113019080937C002EC0E0911801F0E0209178005B
S11301A08091790090E0982F8827822BEE0FFF1F13
S11301B0E65CFE4F9183808383E08093190183E49E
S11301C080937C0016C0E0911801F0E02091780043
S11301D08091790090E0982F8827822BEE0FFF1FE3
S11301E0E65CFE4F918380831092190180E4809332
S11301F07C00809118018B3020F48F5F809318016C
S1130200B5C010921801CAE3D1E0288139818885EC
S11302109985280F391F88899989280F391FABEAD6
S1130220BAEA0E947109969587950AE211E0BC0129
S113023080E090E00E944D08F8016083718382831E
S113024093832A813B818A859B85280F391F8A895C
S11302509B89280F391FABEABAEA0E947109969567
S11302608795BC0180E090E00E944D08F80164830A
S11302707583868397832C813D818C859D85280F8A
S1130280391F8C899D89280F391FABEABAEA0E946D
S1130290710996958795BC0180E090E00E944D0815
S11302A0F80160877187828793872E813F818E85CD
S11302B09F85280F391F8E899F89280F391FABEA24
S11302C0BAEA0E94710996958795BC0180E090E096
S11302D00E944D08F8016487758786879787F12CFB
S11302E041C0CF2DD0E08E01000F111F000F111F50
S11302F0C801865E9E4F6C01FC0160817181828120
S1130300938120910401309105014091060150919F
S113031007010E9404094B015C01F801E65DFE4FF0
S1130320608171818281938120910001309101016A
S113033040910201509103010E9404099B01AC0108
S1130340C501B4010E94A607F6016083718382830C
S113035093830E941E08CC0FDD1FC05FDE4F79839C
S11303606883F394F3E0FF1508F0BBCFEAE7F0E00D
S1130370808180648083FF91EF91DF91CF91BF9161
S1130380AF919F918F917F916F915F914F913F9129
S11303902F911F910F91FF90DF90CF90BF90AF905E
S11303A09F908F900F900FBE0F901F90189581EA29
S11303B084BD84E085BD08950E94D7018AB1886018
S11303C08AB984B1806184B908951F920F920FB6DF
S11303D00F9211242F933F934F935F936F937F93C7
S11303E08F939F93AF93BF93CF93DF93EF938091BA
S11303F06401909165018931910578F50196909396
S113040065018093640130C04E2F50E0440F551FA6
S1130410EA01C45ADE4F688179818CE291E0689FD9
S11304209001699F300D789F300D112436952795E2
S113043036952795ADE3B5E20E94710996958795A7
S11304409695879596958795DA01AC5ABE4F8D930C
S11304509C9319821882EF5F01C0E0E0E430A0F2BF
S11304601092650110926401EF91DF91CF91BF91D9
S1130470AF919F918F917F916F915F914F913F9138
S11304802F910F900FBE0F901F9018951F920F92EF
S11304900FB60F9211242F933F938F939F93EF9353
S11304A0FF9399B19093520180915301892784FF5E
S11304B008C0ECE5F1E0208131812F5F3F4F3183AB
S11304C0208385FF08C0ECE5F1E0228133812F5FB2
S11304D03F4F3383228386FF08C0ECE5F1E024819B
S11304E035812F5F3F4F35832483882344F4ECE523
S11304F0F1E0268137812F5F3F4F37832683909326
S11305005301FF91EF919F918F913F912F910F9004
S11305100FBE0F901F901895CF93DF93D82FC62F3F
S11305200E9441038D2F880F0E944D038C2F0E943F
S11305304D030E944903DF91CF9108951F93CF93F8
S1130540DF93182FD62FC42F0E944103812F880FC9
S11305500E944D038D2F0E944D038C2F0E944D034A
S11305600E944903DF91CF911F9108950F931F9328
S1130570CF93DF93082F162FC42FD52F0E9441034A
S1130580802F880F0E944D03812F0E944D038D2FD1
S11305900E944D038C2F0E944D030E944903DF915A
S11305A0CF911F910F910895CF93DF93C82F0E948D
S11305B041038C2F90E0880F991F81600E944D03A6
S11305C080E00E945703C82FD0E0DC2FCC2781E0C5
S11305D00E945703C82B0E944903CE01DF91CF919B
S11305E0089561E00E948C0208950E94F10208952A
S11305F0411105C0AB0164E00E94B6020895413088
S113060029F4AB0167E00E94B6020895423029F450
S1130610AB0165E00E94B6020895433021F4AB01BA
S113062066E00E94B6020895641799F0461748F4EC
S113063070E0641B710902C0969587956A95E2F78C
S1130640089550E0461B510902C0880F991F4A952E
S1130650E2F70895462F6CE08AE20E949E0285E349
S11306608A95F1F700008AE20E94D402992324F0CB
S11306704AE06CE00E941403089588E78093B80070
S1130680089584EA8093BC008091BC008823E4F739
S1130690089584E98093BC0008958093BB0084E8A6
S11306A08093BC008091BC008823E4F708958823DC
S11306B021F084E88093BC0003C084EC8093BC00E8
S11306C08091BC008823E4F78091BB0008950E94C8
S11306D09C060E943D038AE20E94F5020E94530098
S11306E00E94DC010E94D60360E070E0CB010E940E
S11306F0E9042FEF81EE94E0215080409040E1F72F
S113070000C00000789408950E9467030E94CE06FA
S11307106B017C010E941708CB010E945A0689E0F4
S11307200E94530620E030E044EB52ECC701B601CE
S11307300E94FF08882374F020E030E044EB52E488
S1130740C701B6010E941208181624F0C701B601A9
S11307500E94E9040E945A008C01C0E00EC0EC2FF4
S1130760F0E0EE0FFF1FE00FF11F808191810E94E6
S11307705A0689E00E945306CF5FC43080F38DE0AF
S11307800E9453062FEF89EF90E021508040904063
S1130790E1F700C00000BACF84E08093B1008CE997
S11307A08093B20081E08093700008950E94CC038E
S11307B087B18F6087B984B1896384B908958F92B2
S11307C09F92AF92BF92CF92DF92EF92FF920F93DC
S11307D01F93CF93DF938230B1F018F4813031F05E
S11307E038C08330E9F0843041F133C04BE159E43F
S11307F062E97EE340936601509367016093680168
S11308007093690126C04EE952ED61E97EE340939D
S1130810660150936701609368017093690119C080
S113082042E650EC62E97EE340936601509367012F
S113083060936801709369010CC04EEB54E862E95F
S11308407EE340936601509367016093680170935F
S11308506901C82FD0E08E01015011090E945A008D
S1130860C150D048CC0FDD1FC80FD91F68817981D2
S113087080E090E00E944D089B01AC0160E070E0D4
S113088080E094E40E94A5072091660130916701FD
S113089040916801509169010E9404096B017C0137
S11308A0C801880F991F880F991FFC01E659FE4F54
S11308B0C082D182E282F382FC01E657FE4F80803F
S11308C09180A280B38020E030E040E050E4C50194
S11308D0B4010E94A5079B01AC01C701B6010E94A7
S11308E0FF088823ACF020E030E040E050E4C5018C
S11308F0B4010E94A6079B01AC01C701B6010E9486
S1130900120818162CF0F801E255FE4F108205C0AB
S113091081E0F801E255FE4F8083A7019601C501ED
S1130920B4010E94A5076B017C01F801EE0FFF1FC3
S1130930EE0FFF1FE658FE4F60837183828393831B
S113094020E030E0A9010E941208882334F481E0F9
S1130950F801E655FE4F808304C0F801E655FE4FCA
S11309601082C701B6010E9417089B01772324F463
S113097022273327261B370BB901330F880B990B1A
S11309800E944F08F801EE0FFF1FEE0FFF1FE658FD
S1130990FE4F608371838283938320E030E040E9DB
S11309A051E40E9404090E941E08000F111FF8015F
S11309B0E656FE4F71836083DF91CF911F910F91B3
S11309C0FF90EF90DF90CF90BF90AF909F908F906B
S11309D00895CF92DF92EF92FF92CF936B017C0147
S11309E020E030E044EB52EC0E941208882344F4E7
S11309F00F2EC12CD12CF4EBEF2EF2ECFF2EF02DA8
S1130A0020E030E044EB52E4C701B6010E94FF0845
S1130A10181644F40F2EC12CD12CF4EBEF2EF2E473
S1130A20FF2EF02DC1E026C08FEF8C0F823088F4AA
S1130A30EC2FF0E03197EE0FFF1FEE0FFF1FE6578C
S1130A40FE4FD701C601B05880839183A283B3833C
S1130A500DC0EC2FF0E03197EE0FFF1FEE0FFF1FDC
S1130A60E657FE4FC082D182E282F3828C2F0E942D
S1130A70DF03CF5FC530C0F2CF91FF90EF90DF90DE
S1130A80CF90089548B1282F30E02150310981E0FA
S1130A9090E002C0880F991F2A95E2F7842788B94D
S1130AA00895823051F018F4813069F004C0833025
S1130AB031F0843031F03FEF07C033E005C034E05B
S1130AC003C035E001C030E0E82FF0E0E755FE4F09
S1130AD08081882359F025B181E090E002C0880F1D
S1130AE0991F3A95E2F7822B85B9089525B181E0E3
S1130AF090E002C0880F991F3A95E2F7809582230F
S1130B0085B908951F920F920FB60F9211248F92F8
S1130B109F92AF92BF92CF92DF92EF92FF921F9378
S1130B202F933F934F935F936F937F938F939F93F1
S1130B30AF93BF93CF93DF93EF93FF938CE98093AD
S1130B40B20011E091C0C12FD0E02197FE01E2551F
S1130B50FE4F8081882309F486C0812F0E945105AD
S1130B60CE01880F991FFC01EE55FE4F2081318183
S1130B70FC01E656FE4F808191812817390708F45D
S1130B8067C0FE01EE0FFF1FEE55FE4F118210826B
S1130B900E945A00212F30E021503048220F331F89
S1130BA0820F931FFC016081718180E090E00E94BC
S1130BB04D089B01AC0160E070E080E094E40E9489
S1130BC0A507209166013091670140916801509119
S1130BD069010E9404096B017C01CE01880F991FF1
S1130BE0880F991FFC01E659FE4FC082D182E28230
S1130BF0F382FC01E657FE4F80809180A280B3808F
S1130C0020E030E040E050E4C501B4010E94A507B3
S1130C109B01AC01C701B6010E94FF088823A4F020
S1130C2020E030E040E050E4C501B4010E94A60792
S1130C309B01AC01C701B6010E941208181624F0EA
S1130C40C255DE4F18820FC0812F0E94DF030BC0F4
S1130C50CC0FDD1FCE55DE4F2F5F3F4F39832883E6
S1130C60812F0E9442051F5F153008F46CCFFF915D
S1130C70EF91DF91CF91BF91AF919F918F917F9130
S1130C806F915F914F913F912F911F91FF90EF9042
S1130C90DF90CF90BF90AF909F908F900F900FBE3A
S1130CA00F901F9018959091C00095FFFCCF8093F2
S1130CB0C6000895EF92FF920F931F93CF93DF9393
S1130CC08C01009711F134F41195019511098DE20D
S1130CD00E945306C1E001C0CE2DEE24E394EC0E35
S1130CE0D02FF12E6C2FC8010E9472078823A1F324
S1130CF009C06C2F8D2F9F2D0E947207805D0E946A
S1130D005306CF5FC630A8F303C080E30E945306A6
S1130D10DF91CF911F910F91FF90EF900895CF93A2
S1130D20DF93EC0103C021960E9453068881811150
S1130D30FACFDF91CF910895CF93DF93CDB7DEB78C
S1130D4028970FB6F894DEBF0FBECDBF88E0E8E069
S1130D50F1E0DE01119601900D928A95E1F7E1EC44
S1130D60F0E0808188698083E2ECF0E08081866035
S1130D7080831092C50083E38093C400CE01019662
S1130D800E948F068DE00E94530628960FB6F894B1
S1130D90DEBF0FBECDBFDF91CF9108956091B50145
S1130DA07091B6018091B7019091B80108951F9296
S1130DB00F920FB60F921124CF92DF92EF92FF920F
S1130DC02F933F934F935F936F937F938F939F934F
S1130DD0AF93BF93CF93EF93FF936091C60060935B
S1130DE0B4016D3011F41092B2016A3019F481E04B
S1130DF08093B2016D3219F481E08093B301C0EDA8
S1130E00C60FCA3020F5C093B40120E030E040E2C0
S1130E1051E46091B9017091BA018091BB01909144
S1130E20BC010E9404096B017C016C2F70E080E01E
S1130E3090E00E944F08A70196010E94A6076093C4
S1130E40B9017093BA018093BB019093BC01809166
S1130E50B201813089F58091B301813089F48091A8
S1130E60B9019091BA01A091BB01B091BC01B058F5
S1130E708093B9019093BA01A093BB01B093BC01D4
S1130E808091B9019091BA01A091BB01B091BC01CC
S1130E908093B5019093B601A093B701B093B801C4
S1130EA01092B2011092B3011092B9011092BA01DA
S1130EB01092BB011092BC01FF91EF91CF91BF91B1
S1130EC0AF919F918F917F916F915F914F913F91DE
S1130ED02F91FF90EF90DF90CF900F900FBE0F9067
S1130EE01F901895CF93DF93FC01D62F45E027C0C0
S1130EF09F01ADECBCEC0E9471099695879596957F
S1130F008795969587959C01220F331F880F991F0B
S1130F10880F991F880F991F820F931FCE2FC81B0C
S1130F205FEF540F4D1769F09F010E947109FC0196
S1130F30F695E795F695E795F695E795452F4111D2
S1130F40D7CF8C2FDF91CF9108955058BB27AA2774
S1130F500E94BD070C94C5080E94B70838F00E948F
S1130F60BE0820F039F49F3F19F426F40C94B40819
S1130F700EF4E095E7FB0C94AE08E92F0E94D60826
S1130F8058F3BA17620773078407950720F079F4BA
S1130F90A6F50C94F8080EF4E0950B2EBA2FA02DAC
S1130FA00B01B90190010C01CA01A0011124FF2712
S1130FB0591B99F0593F50F4503E68F11A16F0400D
S1130FC0A22F232F342F4427585FF3CF469537950C
S1130FD02795A795F0405395C9F77EF41F16BA0BD1
S1130FE0620B730B840BBAF09150A1F0FF0FBB1F7F
S1130FF0661F771F881FC2F70EC0BA0F621F731FC8
S1131000841F48F4879577956795B795F7959E3F24
S113101008F0B0CF9395880F08F09927EE0F9795B5
S1131020879508950E948A0808F481E008950E9433
S11310301E086894B1110C94F90808950E94DE0802
S113104088F09F5798F0B92F9927B751B0F0E1F085
S1131050660F771F881F991F1AF0BA95C9F714C035
S1131060B13091F00E94F808B1E008950C94F808AA
S1131070672F782F8827B85F39F0B93FCCF386956E
S113108077956795B395D9F73EF4909580957095CB
S113109061957F4F8F4F9F4F0895E89409C097FB48
S11310A03EF490958095709561957F4F8F4F9F4F3B
S11310B09923A9F0F92F96E9BB279395F69587957F
S11310C077956795B795F111F8CFFAF4BB0F11F442
S11310D060FF1BC06F5F7F4F8F4F9F4F16C08823E9
S11310E011F096E911C0772321F09EE8872F762F1F
S11310F005C0662371F096E8862F70E060E02AF060
S11311009A95660F771F881FDAF7880F969587954B
S113111097F90895990F0008550FAA0BE0E8FEEF20
S113112016161706E807F907C0F012161306E407A7
S1131130F50798F0621B730B840B950B39F40A26A0
S113114061F0232B242B252B21F408950A2609F47E
S1131150A140A6958FEF811D811D089597F99F6782
S113116080E870E060E008959FEF80EC089500242B
S11311700A941616170618060906089500240A94F8
S113118012161306140605060895092E0394000C7E
S113119011F4882352F0BB0F40F4BF2B11F460FF0D
S11311A004C06F5F7F4F8F4F9F4F089557FD905836
S11311B0440F551F59F05F3F71F04795880F97FB17
S11311C0991F61F09F3F79F08795089512161306D1
S11311D01406551FF2CF4695F1DF08C01616170600
S11311E01806991FF1CF8695710561050894089535
S11311F0E894BB2766277727CB0197F908950E94C7
S11312008A0808F48FEF08950E9417090C94C50802
S11312100E94B70838F00E94BE0820F0952311F010
S11312200C94AE080C94B40811240C94F9080E9490
S1131230D60870F3959FC1F3950F50E0551F629F38
S1131240F001729FBB27F00DB11D639FAA27F00D1B
S1131250B11DAA1F649F6627B00DA11D661F829F42
S11312602227B00DA11D621F739FB00DA11D621F27
S1131270839FA00D611D221F749F3327A00D611D44
S1131280231F849F600D211D822F762F6A2F112426
S11312909F5750409AF0F1F088234AF0EE0FFF1F59
S11312A0BB1F661F771F881F91505040A9F79E3FB0
S11312B0510580F00C94AE080C94F9085F3FE4F3F8
S11312C0983ED4F3869577956795B795F795E79506
S11312D09F5FC1F7FE2B880F911D9695879597F90F
S11312E00895A29FB001B39FC001A39F700D811DFB
S11312F01124911DB29F700D811D1124911D08951B
S1071300F894FFCF8B
S1131304295C8F3D7B146E3F554152545F4F4B0013
S9030000FC
