:100000000C9434000C9451000C9451000C94510049
:100010000C9451000C9432020C9451000C94510039
:100020000C9451000C944E040C9451000C9451000B
:100030000C9451000C9451000C9451000C945100FC
:100040000C94D1010C9451000C941F050C94510098
:100050000C9451000C946D000C9451000C945100C0
:100060000C9451000C94510011241FBECFEFD8E026
:10007000DEBFCDBF11E0A0E0B1E0EEE2FFE002C0E4
:1000800005900D92A830B107D9F721E0A8E0B1E0C2
:1000900001C01D92A53BB207E1F70E94FF020C943C
:1000A00095070C9400001F93CF93DF9310E00DC0D1
:1000B000C12FD0E0612F8AE20E94C302CC0FDD1F66
:1000C000C85FDE4F998388831F5F143088F388E010
:1000D00091E0DF91CF911F9108951F920F920FB67B
:1000E0000F9211248F929F92AF92BF92CF92DF9284
:1000F000FF920F931F932F933F934F935F936F93B1
:100100007F938F939F93AF93BF93CF93DF93EF939F
:10011000FF93809111018130F9F030F08230A1F12C
:10012000833009F449C05EC0E0911001F0E02091F5
:1001300078008091790090E0982F8827822BEE0F2D
:10014000FF1FEE5CFE4F9183808381E0809311015D
:1001500081E480937C0046C0E0911001F0E02091A2
:1001600078008091790090E0982F8827822BEE0FFD
:10017000FF1FEE5CFE4F9183808382E0809311012C
:1001800082E480937C002EC0E0911001F0E0209189
:1001900078008091790090E0982F8827822BEE0FCD
:1001A000FF1FEE5CFE4F9183808383E080931101FB
:1001B00083E480937C0016C0E0911001F0E0209170
:1001C00078008091790090E0982F8827822BEE0F9D
:1001D000FF1FEE5CFE4F918380831092110180E43B
:1001E00080937C00809110018B3020F48F5F80938E
:1001F0001001B5C010921001C2E3D1E0288139810D
:1002000088859985280F391F88899989280F391F72
:10021000ABEABAEA0E9486079695879502E211E05A
:10022000BC0180E090E00E946206F8016083718367
:10023000828393832A813B818A859B85280F391F7E
:100240008A899B89280F391FABEABAEA0E94860780
:1002500096958795BC0180E090E00E946206F801C7
:1002600064837583868397832C813D818C859D85EE
:10027000280F391F8C899D89280F391FABEABAEAEC
:100280000E94860796958795BC0180E090E00E94C9
:100290006206F80160877187828793872E813F818C
:1002A0008E859F85280F391F8E899F89280F391FBA
:1002B000ABEABAEA0E94860796958795BC0180E072
:1002C00090E00E946206F8016487758786879787A9
:1002D000F12C41C0CF2DD0E08E01000F111F000F77
:1002E000111FC8018E5E9E4F6C01FC0160817181FF
:1002F0008281938120910401309105014091060192
:10030000509107010E9419074B015C01F801EE5D55
:10031000FE4F608171818281938120910001309133
:10032000010140910201509103010E9419079B01B4
:10033000AC01C501B4010E94BB05F6016083718365
:10034000828393830E943306CC0FDD1FC85FDE4F8C
:1003500079836883F394F3E0FF1508F0BBCFEAE7F5
:10036000F0E0808180648083FF91EF91DF91CF91F5
:10037000BF91AF919F918F917F916F915F914F91BD
:100380003F912F911F910F91FF90DF90CF90BF90E1
:10039000AF909F908F900F900FBE0F901F90189569
:1003A000FFCF1F920F920FB60F9211242F933F93FE
:1003B0004F935F936F937F938F939F93AF93BF936D
:1003C000CF93DF93EF9380915C0190915D01893130
:1003D000910578F5019690935D0180935C0130C0A2
:1003E0004E2F50E0440F551FEA01CC5ADE4F688172
:1003F00079818CE291E0689F9001699F300D789F30
:10040000300D11243695279536952795ADE3B5E245
:100410000E948607969587959695879596958795D8
:10042000DA01A45BBE4F8D939C9319821882EF5F13
:1004300001C0E0E0E430A0F210925D0110925C0196
:10044000EF91DF91CF91BF91AF919F918F917F916C
:100450006F915F914F913F912F910F900FBE0F9031
:100460001F9018951F920F920FB60F9211242F9381
:100470003F938F939F93EF93FF9399B190934A018A
:1004800080914B01892784FF08C0E4E5F1E02081D9
:1004900031812F5F3F4F3183208385FF08C0E4E522
:1004A000F1E0228133812F5F3F4F3383228386FF28
:1004B00008C0E4E5F1E0248135812F5F3F4F3583AB
:1004C0002483882344F4E4E5F1E0268137812F5F1B
:1004D0003F4F3783268390934B01FF91EF919F917C
:1004E0008F913F912F910F900FBE0F901F901895F5
:1004F0001F93CF93DF93182FD62FC42F0E94D602BD
:10050000812F880F0E94E2028D2F0E94E2028C2F21
:100510000E94E2020E94DE02DF91CF911F910895B6
:10052000CF93DF93C82F0E94D6028C2F90E0880FC4
:10053000991F81600E94E20280E00E94EC02C82FB5
:10054000D0E0DC2FCC2781E00E94EC02C82B0E9477
:10055000DE02CE01DF91CF910895641799F046171E
:1005600048F470E0641B710902C0969587956A95FE
:10057000E2F7089550E0461B510902C0880F991F09
:100580004A95E2F70895462F6CE08AE20E947802CD
:1005900085E38A95F1F700008AE20E949002992390
:1005A00024F04AE06CE00E94AD02089584EA809352
:1005B000BC008091BC008823E4F7089584E980930F
:1005C000BC0008958093BB0084E88093BC008091B8
:1005D000BC008823E4F70895882321F084E8809301
:1005E000BC0003C084EC8093BC008091BC008823D5
:1005F000E4F78091BB0008950E94D00108950E9405
:10060000FC0280E090E008958F929F92AF92BF929B
:10061000CF92DF92EF92FF920F931F93CF93DF93CE
:100620008230B1F018F4813031F038C08330E9F015
:10063000843041F133C04BE159E462E97EE34093F9
:100640005E0150935F01609360017093610126C069
:100650004EE952ED61E97EE340935E0150935F0104
:10066000609360017093610119C042E650EC62E949
:100670007EE340935E0150935F016093600170934D
:1006800061010CC04EEB54E862E97EE340935E01E9
:1006900050935F016093600170936101C82FD0E0B7
:1006A0008E01015011090E945300C150D048CC0F57
:1006B000DD1FC80FD91F6881798180E090E00E941A
:1006C00062069B01AC0160E070E080E094E40E946F
:1006D000BA0520915E0130915F0140916001509117
:1006E00061010E9419076B017C01C801880F991FE5
:1006F000880F991FFC01EE59FE4FC082D182E28221
:10070000F382FC01EE57FE4F80809180A280B3807F
:1007100020E030E040E050E4C501B4010E94BA0599
:100720009B01AC01C701B6010E9414078823ACF0FD
:1007300020E030E040E050E4C501B4010E94BB0578
:100740009B01AC01C701B6010E94270618162CF0C8
:10075000F801EA55FE4F108205C081E0F801EA5524
:10076000FE4F8083A7019601C501B4010E94BA051E
:100770006B017C01F801EE0FFF1FEE0FFF1FEE581B
:10078000FE4F608371838283938320E030E0A90170
:100790000E942706882334F481E0F801EE55FE4FCD
:1007A000808304C0F801EE55FE4F1082C701B601E8
:1007B0000E942C069B01772324F422273327261B33
:1007C000370BB901330F880B990B0E946406F801AF
:1007D000EE0FFF1FEE0FFF1FEE58FE4F6083718379
:1007E0008283938320E030E040E951E40E941907BE
:1007F0000E943306000F111FF801EE56FE4F718361
:100800006083DF91CF911F910F91FF90EF90DF9068
:10081000CF90BF90AF909F908F90089548B1282FB0
:1008200030E02150310981E090E002C0880F991F2B
:100830002A95E2F7842788B90895823051F018F498
:10084000813069F004C0833031F0843031F03FEF03
:1008500007C033E005C034E003C035E001C030E03C
:10086000E82FF0E0EF55FE4F8081882359F025B145
:1008700081E090E002C0880F991F3A95E2F7822B41
:1008800085B9089525B181E090E002C0880F991FD5
:100890003A95E2F78095822385B908951F920F92C9
:1008A0000FB60F9211248F929F92AF92BF92CF9268
:1008B000DF92EF92FF921F932F933F934F935F939B
:1008C0006F937F938F939F93AF93BF93CF93DF9358
:1008D000EF93FF938CE98093B20011E091C0C12F98
:1008E000D0E02197FE01EA55FE4F8081882309F46C
:1008F00086C0812F0E941D04CE01880F991FFC0124
:10090000E656FE4F20813181FC01EE56FE4F80817C
:1009100091812817390708F467C0FE01EE0FFF1F09
:10092000E656FE4F118210820E945300212F30E0C4
:1009300021503048220F331F820F931FFC0160812A
:10094000718180E090E00E9462069B01AC0160E052
:1009500070E080E094E40E94BA0520915E0130913D
:100960005F0140916001509161010E9419076B0184
:100970007C01CE01880F991F880F991FFC01EE5949
:10098000FE4FC082D182E282F382FC01EE57FE4F1D
:1009900080809180A280B38020E030E040E050E48D
:1009A000C501B4010E94BA059B01AC01C701B601A3
:1009B0000E9414078823A4F020E030E040E050E4D7
:1009C000C501B4010E94BB059B01AC01C701B60182
:1009D0000E942706181624F0CA55DE4F18820FC051
:1009E000812F0E9404030BC0CC0FDD1FC656DE4FC3
:1009F0002F5F3F4F39832883812F0E940E041F5F92
:100A0000153008F46CCFFF91EF91DF91CF91BF913A
:100A1000AF919F918F917F916F915F914F913F9196
:100A20002F911F91FF90EF90DF90CF90BF90AF90EC
:100A30009F908F900F900FBE0F901F9018951F9250
:100A40000F920FB60F921124CF92DF92EF92FF9286
:100A50002F933F934F935F936F937F938F939F93C6
:100A6000AF93BF93CF93EF93FF936091C6006093D2
:100A7000AC016D3011F41092AA016A3019F481E0D2
:100A80008093AA016D3219F481E08093AB01C0ED2F
:100A9000C60FCA3020F5C093AC0120E030E040E240
:100AA00051E46091B1017091B2018091B3019091D4
:100AB000B4010E9419076B017C016C2F70E080E08B
:100AC00090E00E946406A70196010E94BB05609316
:100AD000B1017093B2018093B3019093B4018091FE
:100AE000AA01813089F58091AB01813089F4809130
:100AF000B1019091B201A091B301B091B401B0588D
:100B00008093B1019093B201A093B301B093B4016B
:100B10008091B1019091B201A091B301B091B40163
:100B20008093AD019093AE01A093AF01B093B0015B
:100B30001092AA011092AB011092B1011092B20171
:100B40001092B3011092B401FF91EF91CF91BF9138
:100B5000AF919F918F917F916F915F914F913F9155
:100B60002F91FF90EF90DF90CF900F900FBE0F90DE
:100B70001F9018955058BB27AA270E94D2050C94A5
:100B8000DA060E94CC0638F00E94D30620F039F431
:100B90009F3F19F426F40C94C9060EF4E095E7FB88
:100BA0000C94C306E92F0E94EB0658F3BA176207AC
:100BB00073078407950720F079F4A6F50C940D07C8
:100BC0000EF4E0950B2EBA2FA02D0B01B901900168
:100BD0000C01CA01A0011124FF27591B99F0593FAC
:100BE00050F4503E68F11A16F040A22F232F342FF4
:100BF0004427585FF3CF469537952795A795F04042
:100C00005395C9F77EF41F16BA0B620B730B840B56
:100C1000BAF09150A1F0FF0FBB1F661F771F881F0E
:100C2000C2F70EC0BA0F621F731F841F48F4879566
:100C300077956795B795F7959E3F08F0B0CF939558
:100C4000880F08F09927EE0F9795879508950E94D1
:100C50009F0608F481E008950E9433066894B1115C
:100C60000C940E0708950E94F30688F09F5798F0A1
:100C7000B92F9927B751B0F0E1F0660F771F881FA1
:100C8000991F1AF0BA95C9F714C0B13091F00E94BB
:100C90000D07B1E008950C940D07672F782F882772
:100CA000B85F39F0B93FCCF3869577956795B395E2
:100CB000D9F73EF490958095709561957F4F8F4F51
:100CC0009F4F0895E89409C097FB3EF49095809556
:100CD000709561957F4F8F4F9F4F9923A9F0F92F02
:100CE00096E9BB279395F695879577956795B79580
:100CF000F111F8CFFAF4BB0F11F460FF1BC06F5F66
:100D00007F4F8F4F9F4F16C0882311F096E911C077
:100D1000772321F09EE8872F762F05C0662371F098
:100D200096E8862F70E060E02AF09A95660F771FAC
:100D3000881FDAF7880F9695879597F90895990F88
:100D40000008550FAA0BE0E8FEEF16161706E80795
:100D5000F907C0F012161306E407F50798F0621BB6
:100D6000730B840B950B39F40A2661F0232B242B8B
:100D7000252B21F408950A2609F4A140A6958FEFAA
:100D8000811D811D089597F99F6780E870E060E0FC
:100D900008959FEF80EC089500240A941616170614
:100DA00018060906089500240A941216130614065C
:100DB00005060895092E0394000C11F4882352F0BF
:100DC000BB0F40F4BF2B11F460FF04C06F5F7F4F77
:100DD0008F4F9F4F089557FD9058440F551F59F05E
:100DE0005F3F71F04795880F97FB991F61F09F3F18
:100DF00079F087950895121613061406551FF2CF41
:100E00004695F1DF08C0161617061806991FF1CF90
:100E100086957105610508940895E894BB276627B7
:100E20007727CB0197F908950E949F0608F48FEF6A
:100E300008950E942C070C94DA060E94CC0638F024
:100E40000E94D30620F0952311F00C94C3060C9455
:100E5000C90611240C940E070E94EB0670F3959FAF
:100E6000C1F3950F50E0551F629FF001729FBB27A1
:100E7000F00DB11D639FAA27F00DB11DAA1F649F3D
:100E80006627B00DA11D661F829F2227B00DA11DF0
:100E9000621F739FB00DA11D621F839FA00D611D76
:100EA000221F749F3327A00D611D231F849F600D97
:100EB000211D822F762F6A2F11249F5750409AF0C0
:100EC000F1F088234AF0EE0FFF1FBB1F661F771F4C
:100ED000881F91505040A9F79E3F510580F00C9417
:100EE000C3060C940E075F3FE4F3983ED4F3869557
:100EF00077956795B795F795E7959F5FC1F7FE2BB7
:100F0000880F911D9695879597F90895A29FB00136
:100F1000B39FC001A39F700D811D1124911DB29F2D
:0E0F2000700D811D1124911D0895F894FFCFCE
:080F2E00295C8F3D7B146E3F2E
:00000001FF
