:100000000C9434000C9412010C9426010C945100B1
:100010000C9451000C9451000C9451000C9451001C
:100020000C9451000C9451000C9451000C9451000C
:100030000C9451000C943A010C9451000C94510012
:100040000C9451000C9451000C9451000C945100EC
:100050000C9451000C9451000C9451000C945100DC
:100060000C9451000C94510011241FBECFEFD8E026
:10007000DEBFCDBF11E0A0E0B1E0EAE6F3E002C0F0
:1000800005900D92A630B107D9F721E0A6E0B1E0C6
:1000900001C01D92A930B207E1F70E94EE000C9456
:1000A000B3010C9400009091C00095FFFCCF8093A9
:1000B000C6000895CF93DF93EC0103C021960E9400
:1000C000530088818111FACFDF91CF910895CF93AA
:1000D000DF93FC01D62F45E027C09F01ADECBCECBF
:1000E0000E94A401969587959695879596958795F4
:1000F0009C01220F331F880F991F880F991F880FAB
:10010000991F820F931FCE2FC81B5FEF540F4D17FF
:1001100069F09F010E94A401FC01F695E795F69510
:10012000E795F695E795452F4111D7CF8C2FDF91B5
:10013000CF9108950F931F93CF93DF938C01892B59
:10014000B9F0C1E001C0CD2FD1E0DC0F6C2FC801A8
:100150000E9467008823B9F308C06C2FC8010E9471
:100160006700805D0E945300CF5FC630B0F303C0CC
:1001700080E30E945300DF91CF911F910F9108956A
:10018000CF93DF9300D000D01F92CDB7DEB785E0CC
:10019000E0E0F1E0DE01119601900D928A95E1F721
:1001A000E1ECF0E0808188618083E2ECF0E0808126
:1001B000866080831092C50087E68093C400CE01DC
:1001C00001960E945A008DE00E9453000F900F90FC
:1001D0000F900F900F90DF91CF9108952FEF80E750
:1001E00092E0215080409040E1F700C000008AB1C9
:1001F00080668AB983EF84BD81E085BD92E09093EB
:10020000810091EB9093850090EE90938400809311
:100210006F0083E08DBB85E0809369000E94C00081
:100220007894FFCF1F920F920FB60F9211248F93E5
:100230004A9B04C081E08093070102C0109207012D
:100240008F910F900FBE0F901F9018951F920F92D5
:100250000FB60F9211248F934B9B04C081E08093C3
:10026000060102C0109206018F910F900FBE0F90F1
:100270001F9018951F920F920FB60F9211242F9373
:100280003F934F935F936F937F938F939F93AF931E
:10029000BF93EF93FF9381EB8093850080EE809373
:1002A0008400809108018A3020F48F5F80930801D8
:1002B0003AC0109208018091070181110EC080910F
:1002C000060181110AC08FEF87BD88BD84E090E0F0
:1002D0000E949A008DE00E945300809107018111D5
:1002E0000FC080910601813059F48FEF87BD80E205
:1002F00088BD83E090E00E949A008DE00E94530048
:1003000080910701813079F48091060181110BC041
:1003100080E287BD8FEF88BD82E090E00E949A0066
:100320008DE00E945300FF91EF91BF91AF919F919B
:100330008F917F916F915F914F913F912F910F908E
:100340000FBE0F901F901895A29FB001B39FC001E0
:10035000A39F700D811D1124911DB29F700D811DF1
:0A0360001124911D0895F894FFCFB9
:06036A005445535400004D
:00000001FF
