:100000000C94D5000C9487030C94A4030C94C103A6
:100010000C94DE030C9406010C9406010C9406016A
:100020000C9406010C9406010C9406010C94060134
:100030000C9406010C9406010C9406010C94A60580
:100040000C9406010C9406010C9406010C94060114
:100050000C9473090C9406010C9406010C9408018D
:100060000C9406010C9406010C9406010C940601F4
:100070000C9406010C94EC090C9406010C940601F6
:100080000C9406010C9406010C9406010C940601D4
:100090000C9406010C9406010C9406010C940601C4
:1000A0000C9406010C9406010C9406010C940601B4
:1000B0000C9406010C9406010C9406010C940601A4
:1000C0000C9406010C9406010C9406010C94060194
:1000D0000C9406010C9406010C9406010C94060184
:1000E0000C940601084AD73B3BCE016E84BCBFFD91
:1000F000C12F3D6C74319ABD56833DDA3D00C77FF8
:1001000011BED9E4BB4C3E916BAAAABE0000008090
:100110003F0664EC1B3C04BC163E3BE5B93CC93CC5
:1001200037C29E5A3D660498083EEA69AAAA3E0074
:100130000000803F0C9456110C94C30E0C947D0D5E
:100140000C94890F0C942B1A0C946E0F0C94760B54
:100150000C94EB160C94E70D0C94710F0C94F00DAD
:100160000C944B100C94ED0D0C94930F0C946B129B
:100170000C948D0F0C94900F0C94F30D0C94FC0DBB
:100180000C94980F0C94A10D0C9424110C94F60D62
:100190000C9415120C94F90D0C9459130C94FF0D3A
:1001A0000C94EA0D0C94740F2B1A11241FBECFEF80
:1001B000D1E2DEBFCDBF00E00CBF13E0A0E0B2E0B3
:1001C000E8ECF2E400E00BBF02C007900D92AA3DFC
:1001D000B107D9F72AE0AAEDB3E001C01D92AA3019
:1001E000B207E1F710E0C5EDD0E000E006C02197CE
:1001F0000109802FFE010E943C1FC43DD10780E011
:100200000807A9F70E942B190C9462210C94000096
:100210001F920F920FB60F9211242F938F939F93DB
:10022000AF93BF938091DE039091DF03A091E00331
:10023000B091E103905CAF4FBF4F8093DE0390938A
:10024000DF03A093E003B093E1038091DE0390917C
:10025000DF03A091E003B091E10381389E43A10543
:10026000B10500F18091DA039091DB03A091DC03EA
:10027000B091DD030196A11DB11D8093DA03909327
:10028000DB03A093DC03B093DD038091DE03909148
:10029000DF03A091E003B091E10380589E43A109E0
:1002A000B109CBCFBF91AF919F918F912F910F90BB
:1002B0000FBE0F901F90189585B5836085BDEEE643
:1002C000F0E08081816080830895F8946091DA0382
:1002D0007091DB038091DC039091DD0378940895A5
:1002E000E1ECF0E0808188618083E2ECF0E08081E5
:1002F000866080831092C50080E18093C4000895D9
:100300009091C00095FD02C00000FACF8093C60016
:1003100008958091C00087FF04C08091C60090E0DE
:1003200008958FEF9FEF0895A0EBB0E08C91806867
:100330008C938C9180628C93E0E7F0E08081816007
:100340008083E0EAF0E0808180688083808188603B
:1003500080838C9181608C93A1EBB0E08C9186605E
:100360008C93808181608083E1EAF0E08081846009
:100370008083089582E294E008954F925F926F9295
:100380007F928F929F92AF92BF92CF92DF92EF9225
:10039000FF920F931F93CF93DF93CDB7DEB7609794
:1003A0000FB6F894DEBF0FBECDBF2B013C012987ED
:1003B0003A874B875C8720E030E0A90169857A8520
:1003C0008B859C850E94F51B882309F4B0C02DE421
:1003D00033EF4EE85CE369857A858B859C850E94C6
:1003E000881D0E943F1E9B01AC0160E070E088E028
:1003F00092E40E94FA1B6B017C0120E030E048E8A7
:1004000051E40E945A1B4B015C019B01AC010E940C
:10041000881D20E030E840E953E40E945A1B0E9406
:10042000FB1D69837A838B839C83A701960160E01F
:1004300070E088E891E40E94591B9B01AC010E9486
:10044000881D20E030E840E953E40E945A1B0E94D6
:10045000FB1D6D837E838F83988720E030E048E822
:1004600051E4C701B6010E94591B9B01AC0160E039
:1004700070E088E891E40E94FA1B0E94C61B2B01E1
:100480003C01A701960160E070E088E891E40E94D9
:10049000FA1B0E94C61B6B017C01A501940160E060
:1004A00070E088E891E40E94FA1B0E94C61B6D87E9
:1004B0007E878F87988B8090FE039090FF03A0909B
:1004C0000004B090010422E435E540EC51E4C7019A
:1004D000B6010E94881D6B017C01A5019401C30136
:1004E000B2010E94881D29813A814B815C810E9462
:1004F000881DA70196010E94FA1B2B013C01A50152
:1005000094016D857E858F8598890E94881D2D8137
:100510003E814F8158850E94881DA70196010E9447
:10052000FA1B9B0142E455E560EC71E40DC09201B9
:10053000C3011D821E821F82188640E050E0BA016E
:1005400049835A836B837C83E984FA840B851C85F9
:10055000E092E203F092E3030093E4031093E503D7
:10056000E980FA800B811C81E092E603F092E703B8
:100570000093E8031093E9034093EA035093EB03DD
:100580006093EC037093ED03ED80FE800F8118857E
:10059000E092EE03F092EF030093F0031093F10367
:1005A000A201B3014093F2035093F3036093F40369
:1005B0007093F503A901BC014093F6035093F70330
:1005C0006093F8037093F90382EE93E060960FB6A0
:1005D000F894DEBF0FBECDBFDF91CF911F910F9179
:1005E000FF90EF90DF90CF90BF90AF909F908F9053
:1005F0007F906F905F904F9008958F929F92AF92EF
:10060000BF92CF92DF92EF92FF924B015C016901A2
:100610007A0120E030E0A9010E947B1D87FD04C023
:10062000809102018F7E03C08091020180618093DE
:100630000201C501B4010E946C1C9B0177FF04C03C
:1006400022273327261B370BB901330F880B990B51
:100650000E94A41C6093FE037093FF038093000428
:1006600090930104C092FA03D092FB03E092FC0342
:10067000F092FD03FF90EF90DF90CF90BF90AF908E
:100680009F908F900895CF93DF93EC0168817981DB
:100690008A819B810E94731C7093A9006093A800BB
:1006A0006C817D818E819F810E94731C6093B30059
:1006B000688579858A859B850E94731C6093B40048
:1006C0006C857D858E859F850E94731C7093AD001F
:1006D0006093AC00DF91CF9108958AEA809369001E
:1006E0008FE08DBB08950E9494010E946D03E1E0AC
:1006F000F1E0808188608083249A80818064808397
:1007000080818062808380818061808308951F92D0
:100710000F920FB60F9211240BB60F928F939F93E7
:10072000EF93FF93EAE2F4E0868197810196978345
:100730008683FF91EF919F918F910F900BBE0F9049
:100740000FBE0F901F9018951F920F920FB60F9229
:1007500011240BB60F928F939F93EF93FF93EAE2CE
:10076000F4E080819181019691838083FF91EF91E4
:100770009F918F910F900BBE0F900FBE0F901F9007
:1007800018951F920F920FB60F9211240BB60F926D
:100790008F939F93EF93FF93EAE2F4E08481958136
:1007A000019695838483FF91EF919F918F910F9094
:1007B0000BBE0F900FBE0F901F9018951F920F92B7
:1007C0000FB60F9211240BB60F928F939F93EF9356
:1007D000FF9385B1805885B9EAE2F4E08281938184
:1007E000019693838283FF91EF919F918F910F9058
:1007F0000BBE0F900FBE0F901F9018958F929F9277
:10080000AF92BF92CF92DF92EF92FF92CF93DF939E
:100810006A017B01C22FBC0180E090E00E94A21C13
:100820009B01AC01C701B6010E94591B4B015C0141
:1008300084E0C89FE0011124CE5FDB4F2AE037ED52
:1008400043EA5DE3C501B4010E94881D2881398116
:100850004A815B810E945A1B6B017C01688379830A
:100860008A839B8323E333E343E35FE3C501B4015E
:100870000E94881D4B015C0120E030E0A901C70106
:10088000B6010E94881D9B01AC01C501B4010E9404
:100890005A1B6B017C0120E030E04FE753E40E94DB
:1008A0007B1D18166CF020E030E0A901C701B601ED
:1008B0000E94F51B87FF0AC0C12CD12C760106C00F
:1008C000C12CD12C8FE7E82E83E4F82EC701B601A6
:1008D000DF91CF91FF90EF90DF90CF90BF90AF90DE
:1008E0009F908F9008952F923F924F925F926F92B8
:1008F0007F928F929F92AF92BF92CF92DF92EF92B0
:10090000FF920F931F93CF93DF93CDB7DEB7689716
:100910000FB6F894DEBF0FBECDBF162F072F382EAF
:10092000292EC090FA03D090FB03E090FC03F090D6
:10093000FD0320E030E0A901C701B6010E94F51BCC
:10094000882309F4ABC02DE433EF4EE85CE3C70124
:10095000B6010E94881D0E943F1E9B01AC0160E011
:1009600070E088E092E40E94FA1B6B017C0120E0B9
:1009700030E048E851E40E945A1B4B015C019B01A6
:10098000AC010E94881D20E030E840E953E40E9459
:100990005A1B0E94FB1D698B7A8B8B8B9C8BA7014A
:1009A000960160E070E088E891E40E94591B9B0189
:1009B000AC010E94881D20E030E840E953E40E9429
:1009C0005A1B0E94FB1D6D8B7E8B8F8B988F20E0B6
:1009D00030E048E851E4C701B6010E94591B9B0171
:1009E000AC0160E070E088E891E40E94FA1B0E948C
:1009F000C61B2B013C01A701960160E070E088E86E
:100A000091E40E94FA1B0E94C61B6B017C01A501A8
:100A1000940160E070E088E891E40E94FA1B0E9473
:100A2000C61B4B015C01A3019201612F702F832D26
:100A3000922D0E94881D29893A894B895C890E94E0
:100A4000881D2B013C0122E435E540EC51E4C7014F
:100A5000B6010E94881D6B017C019B01AC01C301A2
:100A6000B2010E94FA1B762E672E582E492EA50140
:100A70009401612F702F832D922D0E94881D2D8946
:100A80003E894F89588D0E94881DA70196010E94BA
:100A9000FA1B362F272F8301120103C09801832DE3
:100AA000922D432F522FBC0149835A836B837C8341
:100AB0004D835E836F837887812F902FA32DB22D76
:100AC00089879A87AB87BC878D879E87AF87B88BCE
:100AD000CE0101965C0182E2C82E84E0D82E92E11C
:100AE000E92E94E0F92E10E0F501419151916191C8
:100AF00071915F01212FF601819191916F010E9407
:100B0000FE03F70161937193819391937F011F5FBE
:100B1000143051F782E194E068960FB6F894DEBF86
:100B20000FBECDBFDF91CF911F910F91FF90EF903E
:100B3000DF90CF90BF90AF909F908F907F906F90FD
:100B40005F904F903F902F900C9443031F920F9211
:100B50000FB60F9211240BB60F920F931F932F9382
:100B60003F934F935F936F937F938F939F93AF9335
:100B7000BF93CF93DF93EF93FF93809132049091D3
:100B800033048A30910530F40196909333048093B6
:100B9000320436C002E214E0CAE2D4E0688179810E
:100BA00080E090E00E94A21C20E030E048E451E4A4
:100BB0000E94881D20E030E040E752E40E94881D3A
:100BC00020E030E046EE52E40E94FA1B0E94731CC3
:100BD000F801619371938F0119921992F4E0C23375
:100BE000DF07E1F66091FE037091FF03809100043E
:100BF000909101040E947304109233041092320405
:100C0000FF91EF91DF91CF91BF91AF919F918F9124
:100C10007F916F915F914F913F912F911F910F9114
:100C20000F900BBE0F900FBE0F901F901895CF9393
:100C3000382F492FC62F25E0EAE0F0E02C1308C03A
:100C4000832F942F6AE070E00E94C81ECF91089510
:100C5000832F942FBF010E94C81E215089F3362F85
:100C6000472FECCF6817790720F44617570728F469
:100C700009C04817590738F0CB014817590718F42D
:100C8000CA010895CB0108956817790720F4461723
:100C9000570710F405C0CB018417950708F4CA0163
:100CA00008958617970720F46417750710F405C098
:100CB000CB014817590708F4CA010895E1E8F0E0AC
:100CC0008081836080838BE99FEF90938500809380
:100CD0008400EFE6F0E080818160808308950E94C7
:100CE0005E0681B1856581B981B18A6A81B908954D
:100CF0000895CF93DF9300D01F92CDB7DEB7409118
:100D00001F025091200260912102709122024983BA
:100D10005A836B837C8322B1FE01E80FF11D81E0D1
:100D200090E0018002C0880F991F0A94E2F78227A1
:100D300082B90F900F900F900F90DF91CF9108958F
:100D4000CF92DF92EF92FF921F93CF93DF9300D069
:100D50001F92CDB7DEB7142FC0902302D09024028B
:100D6000E0902502F0902602C982DA82EB82FC82B2
:100D700020E030E0A9010E947B1D412F50E022B10C
:100D8000E1E0F0E0EC0FFD1FE40FF51F87FD0AC066
:100D900081E090E0008002C0880F991F0A94E2F77A
:100DA000822B0AC081E090E0008002C0880F991F6A
:100DB0000A94E2F78095822382B90F900F900F90EA
:100DC0000F90DF91CF911F91FF90EF90DF90CF9028
:100DD00008955F926F927F928F929F92AF92BF928F
:100DE000CF92DF92EF92FF920F931F93CF93DF93F7
:100DF000582E4A015B01C82FD0E08E01000F111F51
:100E0000000F111FF801EE5AFB4FC080D180E28025
:100E1000F38020E030E040E050E4C701B6010E94DA
:100E2000591BA50194010E94F51B9E012C563B4FB6
:100E30003901CC0FDD1F1816D4F020E030E040E07F
:100E400050E4C701B6010E945A1B9B01AC01C501C9
:100E5000B4010E94F51B181654F0F3011082F8013A
:100E6000EE59FB4FC082D182E282F38237C0A501E6
:100E70009401C701B6010E94591B6B017C01452DED
:100E80000E94A0068E010E571B4FC701B6010E949B
:100E90006C1C9B0177FF04C022273327261B370BCE
:100EA000B901330F880B990B0E94A41C20E030E09D
:100EB00048E455E40E94881D9B01AC010E945A1B26
:100EC00020E030E044EB53E40E94FA1B0E94731CC4
:100ED000F8017183608381E0F3018083C657DB4FA3
:100EE00019821882DF91CF911F910F91FF90EF909F
:100EF000DF90CF90BF90AF909F908F907F906F903A
:100F00005F900895E2E4F4E06083718382839383C9
:100F10008091FE099091FF09A091000AB091010A09
:100F200084839583A683B7838091020A9091030AF4
:100F3000A091040AB091050A80879187A287B387A0
:100F4000CF0108952F923F924F925F926F927F92BE
:100F50008F929F92AF92BF92CF92DF92EF92FF92C9
:100F60000F931F93CF93DF93CDB7DEB764970FB680
:100F7000F894DEBF0FBECDBF6B017C0120E030E0F6
:100F8000A9010E94F51B811117C01092FE09109251
:100F9000FF091092000A1092010A1092020A1092A0
:100FA000030A1092040A1092050A812C912C60E821
:100FB000A62E6FE3B62E6DC02DE433EF4EE85CE352
:100FC000C701B6010E94881D0E943F1E9B01AC0113
:100FD00060E070E088E092E40E94FA1B2B013C0183
:100FE0000E946C1C9B0177FF04C022273327261B1D
:100FF000370BB901330F880B990B0E94A41C9B017E
:10100000AC01C301B2010E94FA1B4B015C0120E05C
:1010100030E048E851E4C301B2010E945A1B9B0131
:10102000AC0160E070E088E891E40E94FA1B9F77D1
:101030000E94C61B23E333E345E652E40E94881D69
:101040006093FE097093FF098093000A9093010A50
:1010500020E030E048E851E4C301B2010E94591B8E
:101060009B01AC0160E070E088E891E40E94FA1B0B
:101070009F770E94C61B23E333E345E652E40E94B8
:10108000881D6093020A7093030A8093040A909368
:10109000050AD501C401B058898B9A8BAB8BBC8BE8
:1010A0004090020A5090030A6090040A7090050A6A
:1010B000A3019201BC01CD010E94881D69837A833E
:1010C0008B839C83A3019201C501B4010E94881DFA
:1010D0006D837E838F8398874090FE095090FF092F
:1010E0006090000A7090010AA3019201C501B40149
:1010F0000E94881D69877A878B879C87A30192014C
:1011000069897A898B899C890E94881D6D877E8771
:101110008F87988B20E030E044EB52ECC701B6019A
:101120000E94F51B87FD11C020E030E044EB52E443
:10113000C701B6010E947B1D18166CF4C12CD12C7E
:1011400054EBE52E52E4F52E06C0C12CD12C44EB15
:10115000E42E42ECF42E1091940480919504182B07
:1011600080919604182B80919704182B1093920469
:10117000A7019601609162047091630480916404F8
:10118000909165040E94F51B882309F469C0111130
:1011900067C0DE0111965D0182E5C82E84E0D82E7D
:1011A00092E6E92E94E0F92E02E714E022E8622E9E
:1011B00024E0722E34E9432E34E0532E312C2224C5
:1011C0002394F50161917191819191915F01D60113
:1011D0006D937D938D939D936D01F70121913191D5
:1011E000419151917F010E94591B4801D8016D9393
:1011F0007D938D939D938D01432D0E94A006F40154
:1012000060817181828193810E946C1C9B0177FFB8
:1012100004C022273327261B370BB901330F880B55
:10122000990B0E94A41C20E030E048E455E40E94A1
:10123000881D9B01AC010E945A1B20E030E044EB6A
:1012400053E40E94FA1B0E94731CD3016D937D939B
:101250003D01F20121922F013394F4E03F12B1CF0E
:1012600064960FB6F894DEBF0FBECDBFDF91CF916D
:101270001F910F91FF90EF90DF90CF90BF90AF90B4
:101280009F908F907F906F905F904F903F902F90A6
:101290000895CF93DF93C82F0E94E909D0E09E0103
:1012A000220F331F820F931FFC016081718180E048
:1012B00090E00E94A21C9B01AC0160E070E080E025
:1012C00094E40E94591BCC0FDD1FCC0FDD1FC050D2
:1012D000DE4F288139814A815B810E94881D9058A8
:1012E000DF91CF9108951F920F920FB60F921124A4
:1012F0000BB60F92CF92DF92EF92FF920F931F9354
:101300002F933F934F935F936F937F938F939F930D
:10131000AF93BF93CF93EF93FF938BE99FEF90939E
:1013200085008093840084E9C82E84E0D82E0AE8E2
:1013300014E092E8E92E94E0F92EC0E0F6018191E4
:101340006F018823D9F0F80120813181F701808174
:1013500091812817390750F48C2F0E947906F801E3
:101360008081918101969183808308C08C2F0E9497
:101370004909AB01BC018C2F0E94E906CF5F0E5FCB
:101380001F4FF2E0EF0EF11CC430C1F6FF91EF9158
:10139000CF91BF91AF919F918F917F916F915F910D
:1013A0004F913F912F911F910F91FF90EF90DF9000
:1013B000CF900F900BBE0F900FBE0F901F901895FF
:1013C0008DEC80937A0080911002806480937C0081
:1013D000089588E994E008951F920F920FB60F9236
:1013E00011240BB60F922F923F924F925F926F9201
:1013F0007F928F929F92AF92BF92CF92DF92EF92A5
:10140000FF920F931F932F933F934F935F936F938D
:101410007F938F939F93AF93BF93EF93FF93CF935C
:10142000DF9300D000D0CDB7DEB780911002E091FD
:10143000A004823061F1A8F4813009F04DC08091A0
:10144000780020917900F0E0EE0FFF1FEF53FB4F83
:1014500090E0922B9183808382E08093100282E45B
:1014600039C0833031F18430B9F580917800209112
:101470007900F0E0EE0FFF1FEF53FB4F90E0922B4F
:101480009183808381E08093100281E423C0809166
:10149000780020917900F0E0EE0FFF1FEF53FB4F33
:1014A00090E0922B9183808383E08093100283E409
:1014B00011C08091780020917900F0E0EE0FFF1FBD
:1014C000EF53FB4F90E0922B9183808384E08093D5
:1014D000100284E480937C008091A0048B3020F47F
:1014E0008F5F8093A004D2C01092A0042091C10409
:1014F0003091C2048091C9049091CA04820F931F55
:101500002091D1043091D204820F931F63E070E0E8
:101510000E94C81E80E090E00E94A21C6093B1046B
:101520007093B2048093B3049093B4042091C304E5
:101530003091C4048091CB049091CC04820F931F0E
:101540002091D3043091D404820F931F63E070E0A4
:101550000E94C81E80E090E00E94A21C6093B50427
:101560007093B6048093B7049093B8042091C50497
:101570003091C6048091CD049091CE04820F931FC8
:101580002091D5043091D604820F931F63E070E060
:101590000E94C81E80E090E00E94A21C6093B904E3
:1015A0007093BA048093BB049093BC042091C70449
:1015B0003091C8048091CF049091D004820F931F82
:1015C0002091D7043091D804820F931F63E070E01C
:1015D0000E94C81E80E090E00E94A21C6093BD049F
:1015E0007093BE048093BF049093C0044090150292
:1015F00050901602609017027090180280911102AC
:1016000090911202A0911302B091140289839A83DF
:10161000AB83BC8301EB14E0A1EAB4E0BE83AD83ED
:1016200088E9282E84E0382EF80181909190A190CD
:10163000B1908F01AD81BE812D913D914D915C9115
:10164000C301B2010E94881D6B017C0129813A818E
:101650004B815C81C501B4010E94881D9B01AC01D6
:10166000C701B6010E945A1BED81FE8161937193FF
:1016700081939193FE83ED830E94731CD1016D933E
:101680007D931D01B4E0013C1B0771F680917A0047
:10169000806480937A0026960FB6F894DEBF0FBE62
:1016A000CDBFDF91CF91FF91EF91BF91AF919F910E
:1016B0008F917F916F915F914F913F912F911F91EA
:1016C0000F91FF90EF90DF90CF90BF90AF909F90E1
:1016D0008F907F906F905F904F903F902F900F90E2
:1016E0000BBE0F900FBE0F901F901895CF93DF93F6
:1016F000EC012E853F85488959896A857B858C85D3
:101700009D850E94FD026E857F8588899989DF917C
:10171000CF910C94A2070895279A0E94E0090E9495
:101720006F060E9473032FEF81EE94E021508040FA
:101730009040E1F700C0000078940895CF92DF92C6
:10174000EF92FF920F931F93CF93DF938C01EB01E6
:10175000688179818A819B8120E03AEC4AE95BE3E8
:101760000E94F01EF801C080D180E280F380C20E9A
:10177000D31EE41EF51EC082D182E282F38268830A
:1017800079838A839B83DF91CF911F910F91FF9083
:10179000EF90DF90CF900895CF93DF93EC01CB01D2
:1017A000BA0120E03AEC4AE95BE30E94121F288369
:1017B00039834A835B836C837D838E839F83BE01E1
:1017C0006C5F7F4FCE010E949E0BCE01DF91CF91C7
:1017D00008950F931F93CF93DF93EC018881998134
:1017E000AA81BB810197A109B109FB010081118187
:1017F00022813381800F911FA21FB31F8883998399
:10180000AA83BB838C819D81AE81BF819653A546FF
:10181000B44C4481558166817781840F951FA61F42
:10182000B71F8C839D83AE83BF83BE016C5F7F4FE8
:10183000CE010E949E0BCE01DF91CF911F910F919F
:1018400008950F931F93CF93DF93EC0188819981C3
:10185000AA81BB810197A109B109FB010081118116
:1018600022813381801B910BA20BB30B8883998358
:10187000AA83BB838C819D81AE81BF819653A5468F
:10188000B44C4481558166817781841B950BA60BEE
:10189000B70B8C839D83AE83BF83BE016C5F7F4F8C
:1018A000CE010E949E0BCE01DF91CF911F910F912F
:1018B00008950F931F93CF93DF93CDB7DEB7609753
:1018C0000FB6F894DEBF0FBECDBFFB01DC014D911A
:1018D0005D916D917C9113970081118122813381FB
:1018E000401B510B620B730B49875A876B877C87B0
:1018F00014960D911D912D913C911797448155811E
:1019000066817781D901C801841B950BA60BB70BA3
:101910008D879E87AF87B88BBE01635F7F4FCE01F7
:1019200009960E94AF0C88E0FE013996DE011196FF
:1019300001900D928A95E1F729813A814B815C8172
:101940006D817E818F81988560960FB6F894DEBF99
:101950000FBECDBFDF91CF911F910F9108950F93CF
:101960001F93FB014081518162817381DC010D91E4
:101970001D912D913C914130BAEC5B07BAE96B07A0
:10198000BBE37B0744F05A5C6A497B430F5F1F4F00
:101990002F4F3F4FF0CF77FF08C056536546744C2A
:1019A0000150110921093109F6CFDC010D931D9376
:1019B0002D933C93139740835183628373831F91CC
:1019C0000F9108950F931F93CF93DF93EC0108813C
:1019D00019812A813B81FB0180819181A281B381A0
:1019E000800F911FA21FB31F88839983AA83BB8393
:1019F0000C811D812E813F8184819581A681B781D3
:101A0000800F911FA21FB31F8C839D83AE83BF8362
:101A1000BE016C5F7F4FCE010E94AF0CCE01DF9103
:101A2000CF911F910F9108950F931F93CF93DF9341
:101A3000EC0188819981AA81BB81FB010081118120
:101A400022813381801B910BA20BB30B8883998376
:101A5000AA83BB838C819D81AE81BF8144815581E6
:101A600066817781841B950BA60BB70B8C839D83B6
:101A7000AE83BF83BE016C5F7F4FCE010E94AF0C6F
:101A8000CE01DF91CF911F910F910895CF92DF92F8
:101A9000EF92FF92CF93DF93EC016A017B016881A3
:101AA00079818A819B810E94A41CA70196010E94D2
:101AB000881D0E946C1C688379838A839B836C8158
:101AC0007D818E819F810E94A41CA70196010E94A6
:101AD000881D0E946C1C6C837D838E839F83BE0156
:101AE0006C5F7F4FCE010E94AF0CCE01DF91CF9192
:101AF000FF90EF90DF90CF900895DC01FB011296EC
:101B00008C911297808313968C91139781831496EE
:101B10008C911497828315968C91159783831696D2
:101B20008C911697848317968C91179785831896B6
:101B30008C911897868319968C91878388E090E022
:101B40000895FC01DB014C9150E060E070E04283BD
:101B500053836483758311968C911197582B42831C
:101B600053836483758312968C911297682B4283FA
:101B700053836483758313968C911397782B4283D8
:101B800053836483758314964C91149750E060E0FE
:101B900070E0468357836087718715968C911597FF
:101BA000582B468357836087718716968C911697BA
:101BB000682B468357836087718717968C91782BA3
:101BC000468357836087718788E090E0089583E4B7
:101BD00092E0089581E592E0089582E792E0089509
:101BE0008BE892E008958CEA92E008958FEB92E002
:101BF000089587E292E0089580EE92E00895DC0176
:101C0000FB0112968C911297808313968C911397F7
:101C1000818314968C911497828315968C911597D5
:101C2000838316968C911697848317968C911797B9
:101C3000858318968C911897868319968C9119979D
:101C400087831A963C911A971B962C911B971C968A
:101C50009C911C971D968C911D97308721879287A8
:101C600083871E963C911E971F962C911F97509626
:101C70009C91509751968C915197348725879687E0
:101C8000878752963C91529753962C91539754962E
:101C90009C91549755968C915597308B218B928BB4
:101CA000838B56963C91569757962C9157975896FA
:101CB0009C91589759968C915997348B258B968B7C
:101CC000878B5A963C915A975B962C915B975C96C2
:101CD0009C915C975D968C915D97308F218F928F50
:101CE000838F5E963C915E975F962C915F9790965E
:101CF0009C91909791968C919197348F258F968F88
:101D0000878F92963C91929793962C919397949665
:101D10009C91949795968C91959730A321A392A32B
:101D200083A396963C91969797962C919797989621
:101D30009C91989799968C91999734A325A396A3F3
:101D400087A39A963C919A979B962C919B979C96E9
:101D50009C919C979D968C919D9730A721A792A7C7
:101D600083A79E963C919E979F962C919F97D09685
:101D70009C91D097D1968C9134A725A796A787A739
:101D800080E390E00895FC01DB014C9150E060E0BD
:101D900070E0428353836483758311968C9111970D
:101DA000582B428353836483758312968C911297C8
:101DB000682B428353836483758313968C911397A6
:101DC000782B428353836483758314964C911497C4
:101DD00050E060E070E04683578360877187159616
:101DE0008C911597582B4683578360877187169679
:101DF0008C911697682B4683578360877187179657
:101E00008C911797782B4683578360877187189634
:101E10004D915D916D917C911B97428753876487AB
:101E200075871C964D915D916D917C911F974687AA
:101E30005787608B718B50964D915D916D917C9120
:101E40005397428B538B648B758B54964D915D9158
:101E50006D917C915797468B578B608F718F5896F9
:101E60004D915D916D917C915B97428F538F648F03
:101E7000758F5C964D915D916D917C915F97468FCA
:101E8000578F60A371A390964D915D916D917C9158
:101E9000939742A353A364A375A394964D915D9128
:101EA0006D917C91979746A357A360A771A79896C9
:101EB0004D915D916D917C919B9742A753A764A72B
:101EC00075A79C968D919D910D90BC91A02D86A794
:101ED00097A7A0ABB1AB80E390E0089581E093E0D9
:101EE000089587E193E008950F931F93CF93DF93B5
:101EF0008C01EC012696CE010E94C30ED801D89623
:101F0000ED91FC91D997CE01DF91CF911F910F9167
:101F10001994FC0182AD93AD089581E093E008959A
:101F200087E193E008958F579B4FFC0180810895CE
:101F3000CF92DF92EF92FF920F931F93CF93DF9395
:101F400000D01F921F92CDB7DEB7643671053CF00A
:101F5000FC01EF57FB4F2081222309F46DC0DA0109
:101F60007B018C01BC01665E7D4FED91FC9101907F
:101F7000F081E02DCA01199568012DEEC21A2DEFEE
:101F8000D20A2FEFD6012C93F801EC5EFD4F2EEF15
:101F9000208331968083319690833196292F280FA4
:101FA000209520833196E0821696FC9245E050E021
:101FB00020E030E0DC011696A417B50734F06191FB
:101FC000260F311D4F5F5F4FF7CF7C01B8E0EB0E5E
:101FD000F11C800F911FFC01E65EFD4F20952083D0
:101FE000E1E0EE16E2E0FE066CF48601C8018C1911
:101FF0009D098E159F051CF5D8018D918D010E94BC
:102000008001F4CF83EA93E09A83898383E08B8312
:1020100088E393E09D838C83D801ED91FC9101903E
:10202000F081E02DAE014F5F5F4F67E070E0C801C7
:1020300019958FEF9FEF04C080E090E001C0C701C9
:102040000F900F900F900F900F90DF91CF911F91F5
:102050000F91FF90EF90DF90CF900895CF92DF9295
:10206000EF92FF9220E030E06A017B01022E04C073
:10207000F694E794D794C7940A94D2F7FC01C192DE
:10208000CF01285F3F4F2032310571F7FF90EF906D
:10209000DF90CF9008954F925F926F927F92AF92B0
:1020A000BF92CF92DF92EF92FF920F931F93CF9345
:1020B000DF93EC018B018A81FB0180838B8181831B
:1020C0008C8182838D818383DB0140E050E0BA0103
:1020D000E4E0F0E01496CA80DB80EC80FD80CF0164
:1020E00004964C155D056E057F05C8F42A853B8571
:1020F000E20FF31F3497D080F18032812381DC928C
:102100001196FC92119712963C93129713962C936A
:102110001397FC014F5F5F4F6F4F7F4FDBCF5F0126
:10212000A00EB11E2C85F50120832D8521832E85DF
:1021300022832F852383D50140E050E0BA01CC846F
:10214000DD84EE84FF849C012C5F3F4F4C155D05C0
:102150006E057F05F8F4CD018A199B09EC88FD888E
:102160008E0D9F1DFC01D080E180F280838114964A
:10217000DC9214971596EC9215971696FC9216978A
:1021800017968C931797C9014F5F5F4F6F4F7F4F23
:102190001496D5CFF801E80FF91F8E8980838F89B7
:1021A0008183888D8283898D83837901A12CB12CD1
:1021B000412C512C32018E899F89A88DB98D4816EA
:1021C00059066A067B0680F5EC8DFD8DEA0DFB1D38
:1021D000A081B181FD0101900020E9F731976F01E5
:1021E000CA1ADB0AA60160E070E0C8018E0D9F1DCF
:1021F0000E942E10F4E0EF0EF11CEC8DFD8DEA0D27
:10220000FB1D60817181A601C8018E0D9F1D0E947A
:102210003820EC0CFD1C8FEF481A580A680A780A1F
:10222000E2E0AE0EB11CC7CFC701DF91CF911F9185
:102230000F91FF90EF90DF90CF90BF90AF907F9085
:102240006F905F904F900895EF92FF920F931F93BE
:10225000CF93DF938C017B01DC0112962C911297B6
:10226000FB012193CF011396ED91FC911497EF019F
:1022700009900020E9F72197CE1BDF0BAE0160E04B
:1022800070E00E942E10D80113966D917C911497E6
:10229000AE01C70105960E943820CE010596DF9158
:1022A000CF911F910F91FF90EF900895CF92DF9201
:1022B000EF92FF920F931F93CF93DF937C018B01DB
:1022C000DC0112968C911297FB01808313968C91FE
:1022D000139781831496ED91FC911597EF01099066
:1022E0000020E9F72197CE1BDF0BAE0160E070E024
:1022F000C80102960E942E10D70114966D917C9110
:102300001597AE01C80106960E943820CE010696A8
:10231000F701A681B781FD0101900020E9F731970F
:102320006F01CA1ADB0AA60160E070E0800F911FFE
:102330000E942E102A96D70116966D917C911797C0
:10234000A601C8018C0F9D1F0E943820CC0DDD1DF9
:10235000D7011896ED91FC911997DF010D9000209F
:10236000E9F711976D01CE1ADF0AA60160E070E06F
:10237000C8018C0F9D1F0E942E102496F7016085C6
:102380007185A601C8018C0F9D1F0E943820C601CF
:102390008C0F9D1FD7011A966C911A971B964C9122
:1023A0001B971C963C911C971D962C91F801E80FE9
:1023B000F91F60834183328323830496DF91CF9199
:1023C0001F910F91FF90EF90DF90CF900895CF92E3
:1023D000DF92EF92FF92FC0110821182128213822F
:1023E000DB0120E030E04D9150E0022E02C0440FAE
:1023F000551F0A94E2F7052E000C660B770BC08080
:10240000D180E280F3804C295D296E297F294083A9
:10241000518362837383285F3F4F2032310519F760
:10242000FF90EF90DF90CF9008954F925F926F9260
:102430007F928F929F92AF92BF92EF92FF920F93F3
:102440001F93CF93DF9300D01F92CDB7DEB77C01EF
:102450008B01FB018191BF01F7018283CE010196BF
:102460000E94E71189819A81AB81BC814C015D0199
:10247000F5E08F0E911CA11CB11CA8014C5F5F4FB1
:10248000FA0125E030E02901612C712C481459042F
:102490006A047B0428F4618161932F5F3F4FF3CF7F
:1024A000F801E80FF91F1482F7015483438305965E
:1024B0000F900F900F900F90DF91CF911F910F9180
:1024C000FF90EF90BF90AF909F908F907F906F9014
:1024D0005F904F9008954F925F926F927F928F928C
:1024E0009F92AF92BF92CF92DF92EF92FF920F93A3
:1024F0001F93CF93DF93CDB7DEB72C970FB6F89429
:10250000DEBF0FBECDBF7C018B01DB018C9190E063
:10251000F7019383828311962C91922B938382836C
:102520006E5F7F4FCE0109960E94E71189849A84DD
:10253000AB84BC8424013501F6E04F0E511C611CB4
:10254000711C98012B5F3F4FF90186E090E0AC01D0
:1025500060E070E0441555056605770520F441817B
:1025600041930196F4CFF801E80DF91D1582D701CA
:1025700015963C932E931497B4016A5F7F4F600FBA
:10258000711FCE0105960E94E711BAE08B0E911CD7
:102590004D805E806F807884A401092C000C660B4E
:1025A000770B440D551D661D771DD801A80DB91D6B
:1025B000CD01801B910B5C01C12CD12CA416B5065A
:1025C000C606D70628F48D91FD0132978083F0CF9F
:1025D0005401A40CB51CB8016A0D7B1DFB01319799
:1025E0001082C4010197800F911FF70197838683A2
:1025F000CE0101960E94E71195012C5F3F4F898122
:102600009A81AB81BC812901032E000C66087708F2
:10261000480E591E6A1E7B1EF5013396E00FF11F0E
:10262000A9014A01A12CB12C84149504A604B70475
:1026300028F4618161934F5F5F4FF3CF820F931F47
:10264000F801E80FF91FDF0111971C9221503109A1
:10265000020F131FD70119961C930E93189721810F
:10266000428150E060E070E0BA0155274427522BC8
:102670002081422B2381722BF70142875387648785
:10268000758704962C960FB6F894DEBF0FBECDBFAB
:10269000DF91CF911F910F91FF90EF90DF90CF903E
:1026A000BF90AF909F908F907F906F905F904F9072
:1026B00008952F923F924F925F926F927F928F92E6
:1026C0009F92AF92BF92CF92DF92EF92FF920F93C1
:1026D0001F93CF93DF93CDB7DEB760970FB6F89413
:1026E000DEBF0FBECDBF8C016B01DB018D909D90D5
:1026F000AD90BC90FC0182819381A481B581881545
:102700009905AA05BB0570F4B401660F771F660F23
:10271000771F828593850E94531FD8011B969C9337
:102720008E931A97F80182829382A482B5829601D1
:10273000812C912C540144E050E0B8016A5F7F4F36
:102740002C5F3F4FF80182819381A481B581FA010A
:1027500034961F0188169906AA06BB0650F5D901C2
:102760001196FC90119712968C9190E0A0E0B0E049
:10277000DC01992788279F29F901F0808F29F380B0
:10278000BF29F80186839783A087B187DA01A10169
:10279000149782859385A80FB91F84E0FB010190EF
:1027A0000D928A95E1F7FFEF8F1A9F0AAF0ABF0AD1
:1027B000C7CF4601840E951ED4018C9111969C9131
:1027C000119712964C901297512C612C712C32015A
:1027D00055244424592A482A13968C91782A5F015B
:1027E000F80184859585A685B78584159505A60588
:1027F000B70570F4B201660F771F660F771F8489E3
:1028000095890E94531FD80155969C938E93549797
:10281000F8014486558666867786C401412C512C82
:1028200032019801205F3F4FD8011C964D915D9178
:102830006D917C911F97F5013496441655066606F6
:10284000770698F5DC011596FC90159716964C9135
:10285000169750E060E070E0BA01552744275F29E1
:102860001496FC9014974F291796FC907F29D80155
:1028700050964D935D936D937C9353975F01AC019C
:102880004819590954960D90BC91A02DA40FB51F5D
:1028900044E0F90101900D924A95E1F7BFEF4B1A20
:1028A0005B0A6B0A7B0A0496BFCFD601AA0DBB1D3B
:1028B0008C9111969C91119712968C901297912C55
:1028C000A12CB12C540199248824992A882A139682
:1028D0008C91B82A7F01F80186899789A08DB18DE6
:1028E00088159905AA05BB0560F4B401660F771F2A
:1028F000848D958D0E94531FD8015D969C938E9375
:102900005C97F801868A978AA08EB18E212C312C93
:10291000812C912C54019801265E3F4F3A872987DC
:10292000F80186899789A08DB18D88169906AA0627
:10293000BB0608F05FC0B6016E0D7F1DCE0101968B
:102940000E94E71197012C5F3F4F388B2F874981F9
:102950005A816B817C81C901330FAA0BBB0B2C01FF
:102960003D01440E551E661E771E4B865C866D86A5
:102970007E8623E0E20EF11CF601EE0DFF1D2F8591
:102980003889C901A0E0B0E04B845C846D847E840A
:1029900084159505A605B70528F4A181A1932F5F9D
:1029A0003F4FEFCF6F847888460D571DF601E40F37
:1029B000F51F31971082C30101978C0D9D1DD80121
:1029C0005B969C938E935A977A015C96ED91FC915D
:1029D0005D97E20DF31DA985BA858D919C91918338
:1029E0008083BFEF8B1A9B0AAB0ABB0AE2E02E0E74
:1029F000311C96CFC70160960FB6F894DEBF0FBEAC
:102A0000CDBFDF91CF911F910F91FF90EF90DF909D
:102A1000CF90BF90AF909F908F907F906F905F907E
:102A20004F903F902F9008950F931F93CF93DF9374
:102A3000CDB7DEB72A970FB6F894DEBF0FBECDBF75
:102A40008C018BE893E09A8389831B821C821D8210
:102A50001E821F82188619861A86D801ED91FC9174
:102A60000190F081E02DAE014F5F5F4F6AE070E0B2
:102A7000C80119950E946501F801638374838583F9
:102A800096832A960FB6F894DEBF0FBECDBFDF91B6
:102A9000CF911F910F9108954F925F926F927F9205
:102AA000AF92BF92CF92DF92EF92FF920F931F935C
:102AB000CF93DF93CDB7DEB72E970FB6F894DEBF76
:102AC0000FBECDBF8C0187E993E09A8389831C8276
:102AD0001B8280E793E09E838D8398878F839A87FC
:102AE00089871B861C861D861E8668018DEEC81A86
:102AF0008BEFD80A7801ABEBEA1AABEFFA0A412C5C
:102B000092E0592E612C712CD601ED91FC913097F9
:102B1000A9F1848195819C838B83808191819E839F
:102B20008D8382819381DC01ED91FC910480F5819C
:102B3000E02D199598878F83D601ED91FC918281C4
:102B40009381DC01ED91FC910680F781E02D1995D0
:102B50009A8789874B865C866D867E86D601ED9145
:102B6000FC9160857185D801ED91FC910190F08117
:102B7000E02DAE014F5F5F4FC8011995B2E0CB0E5B
:102B8000D11CCE14DF0409F0BFCF6801E9E8CE1AEA
:102B9000EBEFDE0A412C82E0582E612C712CF701FC
:102BA000A081B1811097E1F112968D919C911397BC
:102BB0009C838B8314968D919C9115979E838D8316
:102BC000ED91FC9111970480F581E02DCD011995CF
:102BD00098878F83D7018D919C91DC01ED91FC91B9
:102BE0000680F781E02D19959A8789874B865C8648
:102BF0006D867E86D801ED91FC91A080B180F701B1
:102C000080819181DC01ED91FC910280F381E02DC6
:102C10001995AE014F5F5F4FBC01C801F5011995D1
:102C2000F2E0EF0EF11CCE14DF0409F0B8CFF8018A
:102C3000EF57FB4F81E080832E960FB6F894DEBFEE
:102C40000FBECDBFDF91CF911F910F91FF90EF90FD
:102C5000DF90CF90BF90AF907F906F905F904F903C
:102C600008958F929F92AF92BF92CF92DF92EF9290
:102C7000FF920F931F93CF93DF93CDB7DEB72A97C1
:102C80000FB6F894DEBF0FBECDBF8C015B018BE8A1
:102C900093E09A8389831B821C821D821E821F827D
:102CA000188619861A860E946501F801C380D480AF
:102CB000E580F6809B01AC012C193D094E095F09A6
:102CC00069017A01B501CE0101960E94A10D88EE3D
:102CD000882E83E0982EA12CB12CC701B601A50146
:102CE00094010E94F01ECB80DC80ED80FE80C20E3D
:102CF000D31EE41EF51ECB82DC82ED82FE829B0198
:102D0000AC0160E472E48FE090E00E94B81ECF80D6
:102D1000D884E984FA84DC01CB018C0D9D1DAE1DA5
:102D2000BF1D8F839887A987BA870E946501CB80D2
:102D3000DC80ED80FE8031E0C31AD108E108F108A3
:102D4000A50194010E94F01EC21AD30AE40AF50AF2
:102D5000F801C782D086E186F286CF80D884E984E4
:102D6000FA84F6E3DF1AF5E6EF0AF4ECFF0A9B01BA
:102D7000AC0160E472E48FE090E00E94B81EC61AD5
:102D8000D70AE80AF90AF801C386D486E586F686EA
:102D9000B801655F7F4FC80107960E949E0B0E9495
:102DA0006501F801EA57FB4F608371838283938347
:102DB0002A960FB6F894DEBF0FBECDBFDF91CF913C
:102DC0001F910F91FF90EF90DF90CF90BF90AF9049
:102DD0009F908F9008952F923F924F925F926F92A3
:102DE0007F928F929F92AF92BF92CF92DF92EF929B
:102DF000FF920F931F93CF93DF93CDB7DEB7629708
:102E00000FB6F894DEBF0FBECDBF9A8B898B0E94A0
:102E100065014B015C0129893A892A573B4F3C8364
:102E20002B83F90180819181A281B381A501940155
:102E3000281B390B4A0B5B0BDA01C901893F9A4207
:102E4000A105B10528F0E989FA89EF57FB4F1082F7
:102E500009891A8909581B4FD8018D919C91892B9A
:102E600081F0E989FA89E657FB4F80819181A2813F
:102E7000B38188159905AA05BB0518F4F8011182DC
:102E800010821A82198269887A88F1E86F1AFBEF3A
:102E90007F0AC988DA8825E8C21A2BEFD20A498846
:102EA0005A8833E1430E511C49895A894F575B4F69
:102EB0005E834D8389899A8981579B4F98878F8339
:102EC000A989BA89A257BB4FBA87A987E988FA8826
:102ED000B7E8EB1ABBEFFB0A29883A88E3E82E1A19
:102EE000EBEF3E0A29893A8926573B4F3C872B87CF
:102EF000D501C4014496A11DB11D8D879E87AF8762
:102F0000B88BE989FA8987859089A189B289892B4B
:102F10008A2B8B2B31F40E9489019C0197FF15C0ED
:102F200049C10E946501DC01CB0188199909AA09F0
:102F3000BB09E989FA89278530894189528928178F
:102F400039074A075B0738F765C1D3018D919C911A
:102F50001197820F931F8D939C93F80140815181AB
:102F600047305105E9F4D1018D919C911197AC0145
:102F70004F5F5F4F4D935C93E989FA89E80FF91F22
:102F8000238BF70180819181019791838083892B25
:102F900009F0B7CFE8E0F0E0D801ED93FC93B1CFB2
:102FA0004115510541F52F3F310581F481E090E055
:102FB000918380832D853E854F855889AB85BC855F
:102FC0002D933D934D935C9313979BCF0E94650186
:102FD000DC01CB0188199909AA09BB0989389341F9
:102FE000A105B10508F48DCF29893A892F573B4FA8
:102FF000D9011C920FC14130510591F42E3F31058A
:1030000019F482E090E02BC011821082ED81FE81E4
:103010008081811176CF89899A890E94141571CF98
:103020004230510569F4D7012D933C93F10111828F
:10303000108283E090E0D8018D939C93F3014FC000
:103040004330510581F4322F2227D7018D919C9175
:103050001197280F391F2D933C9384E090E0F801DD
:10306000918380834ECF4430510581F460E071E05C
:103070000E94DC1E8F3F910529F485E090E091834A
:1030800080833FCFF801118210823BCF453051053C
:1030900061F4D6012D933C9386E090E0F801918392
:1030A0008083D3012D933C932CCF46305105D1F42E
:1030B000322F2227F60180819181280F391F318319
:1030C0002083E7E0F0E0D801ED93FC93D7018D91E8
:1030D0009C91892B09F015CF28E030E0F80131836D
:1030E00020830FCF4830510509F00BCF1182108299
:1030F00060E071E00E94DC1E8F3F910509F001CF76
:10310000F601808191810097D9F489899A890E947A
:10311000141589899A890E944C1529893A892E5754
:103120003B4FD9018D929D92AD92BC921397EB814A
:10313000FC8180829182A282B3828FEF9FEF72C066
:103140008A30910541F4B20189899A890E94311629
:10315000F1E0FA83D6CE8630910551F4B2018F8129
:1031600098850E94591381E0A985BA858C93C9CEB0
:103170008B30910531F4ED81FE811082F1E0F9830D
:10318000C0CEFC01E456F109EE0FFF1F29893A89F0
:10319000E20FF31FEB5BFB4F80819181009709F4F5
:1031A000B0CEDC01ED91FC910190F081E02DB201F7
:1031B0001995A7CEE989FA89EF57FB4F80818823BB
:1031C00001F109891A890E571B4FF80180819181FD
:1031D000A281B381A5019401281B390B4A0B5B0B1B
:1031E000DA01C901853C9940A105B10550F08989F2
:1031F0009A890E941415D8018D929D92AD92BC922D
:103200001397BA81B11109C0E981E11109C080E0C9
:1032100090E008C08EEF9FEF05C08CEF9FEF02C0DB
:103220008DEF9FEF62960FB6F894DEBF0FBECDBF55
:10323000DF91CF911F910F91FF90EF90DF90CF9092
:10324000BF90AF909F908F907F906F905F904F90C6
:103250003F902F9008950FB6F894A8958091600044
:10326000886180936000109260000FBE0E945C0134
:103270000E94700178941092C9091092C8091092A6
:10328000CB091092CA091092CF091092CE09109260
:10329000CD091092CC09E6E9F9E080E090E02191B7
:1032A0003191232B81F4FC01EE0FFF1FEA56F64FFC
:1032B00025E135E0318320838C599F4F9093180589
:1032C0008093170504C001968931910541F7E4E622
:1032D000F9E080E090E021913191232BB1F4FC01E1
:1032E000EE0FFF1FEC59F64F29ED34E031832083B8
:1032F00083589F4F9093DE048093DD0481E595E031
:103300009093E0048093DF0404C001968931910515
:1033100011F70E948C0BC12CD12C76010E94650103
:10332000DC01CB018C199D09AE09BF09893C9105CF
:10333000A105B10508F48AC085B1805885B90E94FD
:10334000BA01DC0112966D917C91139780E090E0B8
:103350000E94A21C6093F5047093F6048093F70416
:103360009093F8040E94BA01FC016481758180E0A9
:1033700090E00E94A21C6093F9047093FA04809379
:10338000FB049093FC040E94BA01DC016D917C91D6
:1033900080E090E00E94A21C6093FD047093FE0404
:1033A0008093FF04909300050E94BA01FC0166819E
:1033B000778180E090E00E94A21C609301057093E9
:1033C0000205809303059093040581E00E9449095A
:1033D0006093050570930605809307059093080593
:1033E00082E00E9449096093090570930A05809361
:1033F0000B0590930C0580E00E94490960930D0530
:1034000070930E0580930F059093100583E00E9442
:1034100049096093110570931205809313059093E9
:1034200014058091DF049091E0046091DD047091B7
:10343000DE04DC01ED91FC910190F081E02D43EE82
:1034400054E019950E9465016B017C0181E595E0CE
:103450000E94EB1663CFE1E5F5E087EC93E0918302
:103460008083138214821582168217821086118639
:10347000128613861486158616861786108A118A78
:10348000128A80E092E0E4E6F5E0DF019C011D9203
:1034900021503040E1F7E4E6F7E0DF019C011D92A6
:1034A00021503040E1F782E3E4E6F9E0DF01282F24
:1034B0001D922A95E9F7E6E9F9E0DF011D928A9568
:1034C000E9F71092C9091092C8091092CB0910921D
:1034D000CA091092CD091092CC091092CF0910920E
:1034E000CE091092D1091092D0091092D2091092EF
:1034F000D3091092D4091092D5091092D6091092CE
:10350000D7091092D8091092D9091092DA091092AD
:10351000DB091092DC091092DD091092DE0910928D
:10352000DF098FEA93E09093E1098093E00910921C
:10353000E2091092E3091092E4091092E509109251
:10354000E6091092E7091092E8091092E909109231
:10355000EB091092EA091092EC091092ED09109211
:10356000EE091092EF091092F0091092F1091092F1
:10357000F2091092F3091092F5091092F4091092D1
:10358000F6091092F7091092F8091092F9091092B1
:10359000FB091092FA091092FD091092FC09E5E16D
:1035A000F5E081ED93E0918380838BEB93E097834B
:1035B00086831086118612861386148615861686D3
:1035C0001786108A118A128A138A148A158A168A13
:1035D000178A108E118E128E138E148E158E168EE3
:1035E000178E10A211A212A213A214A215A216A243
:1035F00017A210A611A612A613A614A615A616A603
:1036000017A610AA11AA12AA13AA14AA15AA16AAD2
:1036100017AA26E73BE031AF20AF21E030E033AF1F
:1036200022AF21E733E035832483E3EEF4E0918396
:10363000808312821382148215821682178210866A
:103640001186128613861486158616861786108AAA
:10365000118A128A138A148A158A168A178A108E7A
:10366000118E128E138E148E158E168E178E10A23A
:1036700011A212A213A214A215A216A217A210A69A
:1036800011A612A613A614A615A616A617A610AA6A
:1036900011AAA9EDB4E08BE793E011969C938E9369
:1036A0001396FC93EE93129719961C921E921897FC
:1036B00008955058BB27AA270E94711B0C94411DE6
:1036C0000E94331D38F00E943A1D20F039F49F3FCC
:1036D00019F426F40C94091D0EF4E095E7FB0C9404
:1036E000031DE92F0E94521D58F3BA176207730792
:1036F0008407950720F079F4A6F50C94741D0EF458
:10370000E0950B2EBA2FA02D0B01B90190010C01F1
:10371000CA01A0011124FF27591B99F0593F50F409
:10372000503E68F11A16F040A22F232F342F442761
:10373000585FF3CF469537952795A795F040539559
:10374000C9F77EF41F16BA0B620B730B840BBAF029
:103750009150A1F0FF0FBB1F661F771F881FC2F794
:103760000EC0BA0F621F731F841F48F487957795A8
:103770006795B795F7959E3F08F0B0CF9395880F62
:1037800008F09927EE0F979587950895DF93DD2729
:10379000B92FBF7740E85FE31616170648075B07A7
:1037A00018F4D92F0E94801D9F938F937F936F935E
:1037B0000E943B1EE4EEF0E00E940C1D0E94411DA1
:1037C0002F913F914F915F910E949B1DDD2351F0FE
:1037D0009058A2EA2AED3FE049EC5FE3D0785D27FC
:1037E0000E94711BDF910C94411D0E94DF1C08F4A4
:1037F00081E008950E940E1C0C94411D0E943A1D08
:1038000058F00E94331D40F029F45F3F29F00C94DA
:10381000031D51110C94751D0C94091D0E94521D1D
:1038200068F39923B1F3552391F3951B550BBB27EF
:10383000AA2762177307840738F09F5F5F4F220F34
:10384000331F441FAA1FA9F335D00E2E3AF0E0E82B
:1038500032D091505040E695001CCAF72BD0FE2F75
:1038600029D0660F771F881FBB1F26173707480709
:10387000AB07B0E809F0BB0B802DBF01FF279358C1
:103880005F4F3AF09E3F510578F00C94031D0C9465
:10389000751D5F3FE4F3983ED4F386957795679561
:1038A000B795F7959F5FC9F7880F911D96958795F6
:1038B00097F90895E1E0660F771F881FBB1F621715
:1038C00073078407BA0720F0621B730B840BBA0BD3
:1038D000EE1F88F7E09508950E94731C6894B1115B
:1038E0000C94751D08950E945A1D88F09F5798F0FA
:1038F000B92F9927B751B0F0E1F0660F771F881FF5
:10390000991F1AF0BA95C9F714C0B13091F00E940E
:10391000741DB1E008950C94741D672F782F8827CB
:10392000B85F39F0B93FCCF3869577956795B39535
:10393000D9F73EF490958095709561957F4F8F4FA4
:103940009F4F0895E89409C097FB3EF490958095A9
:10395000709561957F4F8F4F9F4F9923A9F0F92F55
:1039600096E9BB279395F695879577956795B795D3
:10397000F111F8CFFAF4BB0F11F460FF1BC06F5FB9
:103980007F4F8F4F9F4F16C0882311F096E911C0CB
:10399000772321F09EE8872F762F05C0662371F0EC
:1039A00096E8862F70E060E02AF09A95660F771F00
:1039B000881FDAF7880F9695879597F90895990FDC
:1039C0000008550FAA0BE0E8FEEF16161706E807E9
:1039D000F907C0F012161306E407F50798F0621B0A
:1039E000730B840B950B39F40A2661F0232B242BDF
:1039F000252B21F408950A2609F4A140A6958FEFFE
:103A0000811D811D089597F99F6780E870E060E04F
:103A100008959FEF80EC0895DF93CF931F930F934A
:103A2000FF92EF92DF927B018C01689406C0DA2E40
:103A3000EF010E949B1DFE01E894A591259135910F
:103A400045915591A6F3EF010E94711BFE0197016C
:103A5000A801DA9469F7DF90EF90FF900F911F9122
:103A6000CF91DF91089500240A94161617061806C0
:103A70000906089500240A94121613061406050672
:103A80000895092E0394000C11F4882352F0BB0F03
:103A900040F4BF2B11F460FF04C06F5F7F4F8F4F66
:103AA0009F4F089557FD9058440F551F59F05F3FA1
:103AB00071F04795880F97FB991F61F09F3F79F050
:103AC00087950895121613061406551FF2CF4695D2
:103AD000F1DF08C0161617061806991FF1CF869554
:103AE0007105610508940895E894BB276627772738
:103AF000CB0197F908950E94DF1C08F48FEF089519
:103B00009B01AC0160E070E080E89FE30C94FA1B3D
:103B10000E949B1D0C94411D0E94331D38F00E9491
:103B20003A1D20F0952311F00C94031D0C94091DEF
:103B300011240C94751D0E94521D70F3959FC1F3C2
:103B4000950F50E0551F629FF001729FBB27F00D4B
:103B5000B11D639FAA27F00DB11DAA1F649F6627A0
:103B6000B00DA11D661F829F2227B00DA11D621FEF
:103B7000739FB00DA11D621F839FA00D611D221FA9
:103B8000749F3327A00D611D231F849F600D211D8D
:103B9000822F762F6A2F11249F5750409AF0F1F010
:103BA00088234AF0EE0FFF1FBB1F661F771F881F79
:103BB00091505040A9F79E3F510580F00C94031D91
:103BC0000C94751D5F3FE4F3983ED4F3869577958A
:103BD0006795B795F795E7959F5FC1F7FE2B880F1F
:103BE000911D9695879597F9089519F416F40C94FC
:103BF000091D0C94641E0E945A1DB8F39923C9F341
:103C0000B6F39F57550B87FF0E94721E0024A0E653
:103C100040EA900180585695979528F4805C660F8D
:103C2000771F881F20F026173707480730F4621BDC
:103C3000730B840B202931294A2BA69517940794DE
:103C4000202531254A2758F7660F771F881F20F057
:103C500026173707480730F4620B730B840B200DCF
:103C6000311D411DA09581F7B901842F9158880F0E
:103C70009695879508959B01AC010C94881DDF9360
:103C8000D92F0E948F1EE695D7952AED3FE049E493
:103C90005FE3B33A6207730784079507D7953AF055
:103CA000A2EA49EC90680E94711B0E94411DE1E16B
:103CB000F1E00E94791EDD0F13F00E94801DDD0FE0
:103CC0000BF49058DF9108959F3F31F0915020F40C
:103CD000879577956795B795880F911D96958795E8
:103CE00097F9089591505040660F771F881FD2F7BB
:103CF00008959F938F937F936F93FF93EF939B010F
:103D0000AC010E94881DEF91FF910E940C1D2F9124
:103D10003F914F915F910C94881D0C94091D0E9456
:103D20005A1DD8F3E894E0E0BB279F57F0F02AED46
:103D30003FE049EC06C0EE0FBB0F661F771F881FE0
:103D400028F0B23A62077307840728F0B25A620B70
:103D5000730B840BE3959A9572F7803830F49A953B
:103D6000BB0F661F771F881FD2F790480C94661E02
:103D7000DB018F939F930E94311FBF91AF91A29F50
:103D8000800D911DA39F900DB29F900D1124089559
:103D9000AA1BBB1B51E107C0AA1FBB1FA617B70771
:103DA00010F0A61BB70B881F991F5A95A9F780958D
:103DB0009095BC01CD01089597FB072E16F4009451
:103DC00007D077FD09D00E94C81E07FC05D03EF43D
:103DD000909581959F4F0895709561957F4F0895B7
:103DE000A1E21A2EAA1BBB1BFD010DC0AA1FBB1FFF
:103DF000EE1FFF1FA217B307E407F50720F0A21B71
:103E0000B30BE40BF50B661F771F881F991F1A94DD
:103E100069F760957095809590959B01AC01BD0107
:103E2000CF010895052E97FB1EF400940E94291FD0
:103E300057FD07D00E94F01E07FC03D04EF40C94EF
:103E4000291F50954095309521953F4F4F4F5F4F1B
:103E5000089590958095709561957F4F8F4F9F4FF6
:103E600008950E94441FA59F900DB49F900DA49F9C
:103E7000800D911D11240895EE0FFF1F881F8BBF29
:103E80000790F691E02D1994A29FB001B39FC00155
:103E9000A39F700D811D1124911DB29F700D811D76
:103EA0001124911D08956F927F928F929F92AF92ED
:103EB000BF92CF92DF92EF92FF920F931F93CF9317
:103EC000DF93009789F4CB01DF91CF911F910F9180
:103ED000FF90EF90DF90CF90BF90AF909F908F902A
:103EE0007F906F900C944120FC01E60FF71F9C011E
:103EF00022503109E217F30708F4A9C0EC01D901F7
:103F00000D911C91119706171707B0F00530110598
:103F100008F49BC0C80104978617970708F495C05A
:103F200002501109061B170B019311936D937C939B
:103F3000CF010E94D92089C05B01A01AB10A4C01AF
:103F4000800E911EA091080AB091090A612C712C73
:103F5000E12CF12C109709F446C08D919C9111979A
:103F6000A815B905B1F56C0142E0C40ED11CCA1404
:103F7000DB0478F14C018A189B08640142E0C40E0E
:103F8000D11C1296BC9012971396AC91B5E0CB164B
:103F9000D10440F0B282A38391828082D9016D93D3
:103FA0007C9309C00E5F1F4F800F911FF901918311
:103FB0008083EB2DFA2FE114F10431F0D701139631
:103FC000FC93EE93129741C0F093090AE093080A1C
:103FD0003CC06816790608F43C017D0112960D90EC
:103FE000BC91A02DB7CF8091060A9091070A881640
:103FF0009906E1F466167706C8F48091190290914B
:104000001A02009741F48DB79EB740911D0250915E
:104010001E02841B950BE817F907C8F4F093070AF2
:10402000E093060AF901718360830FC0CB010E94FF
:1040300041207C01009759F0A801BE010E94382060
:10404000CE010E94D920C70104C0CE0102C080E089
:1040500090E0DF91CF911F910F91FF90EF90DF9053
:10406000CF90BF90AF909F908F907F906F9008956A
:10407000FB01DC0102C001900D9241505040D8F785
:1040800008950F931F93CF93DF938230910510F41F
:1040900082E090E0E091080AF091090A20E030E027
:1040A000A0E0B0E0309719F1408151810281138185
:1040B00048175907C8F08417950769F4109731F02D
:1040C00012960C93129713961C9327C00093080A1C
:1040D0001093090A22C02115310519F04217530720
:1040E00018F49A01BD01EF01DF01F801DBCF2115C2
:1040F0003105F9F0281B390B2430310580F48A8111
:104100009B816115710521F0FB019383828304C0BB
:104110009093090A8093080AFE01329644C0FE017A
:10412000E20FF31F81939193225031093983288341
:104130003AC02091060A3091070A232B41F42091BE
:104140001B0230911C023093070A2093060A20912B
:10415000190230911A022115310541F42DB73EB7ED
:1041600040911D0250911E02241B350BE091060A5E
:10417000F091070AE217F307A0F42E1B3F0B281754
:10418000390778F0AC014E5F5F4F2417350748F0D0
:104190004E0F5F1F5093070A4093060A8193919335
:1041A00002C0E0E0F0E0CF01DF91CF911F910F91CD
:1041B0000895CF93DF93009709F481C0FC013297F3
:1041C00013821282A091080AB091090A109781F413
:1041D00020813181820F931F2091060A3091070AB6
:1041E0002817390751F5F093070AE093060A67C0CC
:1041F000ED0120E030E0CE17DF0740F44A815B811B
:104200009E0141155105F1F0EA01F5CFD383C28338
:1042100040815181840F951FC817D90759F48881AF
:104220009981840F951F0296918380838A819B8157
:10423000938382832115310529F4F093090AE093D1
:10424000080A3DC0E901FB83EA8349915991C40FF3
:10425000D51FEC17FD0761F480819181840F951FB4
:104260000296E90199838883828193819B838A8363
:10427000E0E0F0E012968D919C911397009719F071
:10428000FD01DC01F7CF8D919C9111979D012E5F6F
:104290003F4F820F931F2091060A3091070A28177B
:1042A000390769F4309729F41092090A1092080A24
:1042B00002C013821282B093070AA093060ADF910C
:0842C000CF910895F894FFCF9F
:1042C8004C37893E4C37893E4C37893E4C37893EBE
:1042D80001295C8F3D7B146E3F00000A0A20000212
:1042E80006040003070501726F7373657269616CD8
:1042F8005F6D7367732F5265717565737450617262
:10430800616D007374645F6D7367732F54696D65B5
:104318000063643731363663373463353532633397
:10432800313166626363326665356137626332389C
:104338003900726F7373657269616C5F6D7367734F
:104348002F546F706963496E666F00306164353150
:104358006638386663343438393266386331303613
:10436800383430373736343630303500726F73733F
:10437800657269616C5F6D7367732F4C6F6700318D
:104388003161626437333163323539333332363130
:104398006364363138336264313264363239350019
:1043A80039663065393862646136353938313938BB
:1043B8003664646635336166613761343065343933
:1043C800006B697474795F6D7367732F4B697474CC
:1043D80079537461746500326138616437363935F0
:1043E8003533623939663334326666303365306264
:1043F80065633333396335004D65737361676520D1
:1044080066726F6D206465766963652064726F708B
:104418007065643A206D657373616765206C6172BD
:10442800676572207468616E206275666665722EB3
:10443800007365745F7370656564006B6974747983
:104448005F737461746500000000007D0DA10DE7C5
:104458000DEA0D0000000056116B12ED0DF00D0075
:1044680000000024111512F30DF60D000000004B9A
:10447800105913F90DFC0D00000000FF0DC30E6E5E
:104488000F710F00000000980FEB16930F0000004B
:0A44980000740F890F8D0F900F00C4
:00000001FF
