S0100000756172745F656E632E73726563C3
S113000071C0000023C100008CC000008AC0000041
S113001088C0000086C0000084C0000082C00000C8
S113002080C000007EC000007CC000007AC00000D8
S113003078C0000076C0000074C0000099C10000C0
S113004070C000006EC000006CC000006AC00000F8
S113005068C0000066C0000064C0000062C0000008
S113006060C000005EC000005CC000005AC0000018
S113007058C0000056C0000054C0000052C0000028
S113008050C000004EC000004CC000004AC0000038
S113009048C0000046C0000044C0000042C0000048
S11300A040C000003EC000003CC000003AC0000058
S11300B038C0000036C0000034C0000032C0000068
S11300C030C000002EC000002CC000002AC0000078
S11300D028C0000026C0000024C0000022C0000088
S11300E020C0000011241FBECFEFD1E2DEBFCDBF80
S11300F000E00CBF12E0A0E0B2E0ECEEF9E000E0BA
S11301000BBF02C007900D92A830B107D9F722E0C7
S1130110A8E0B2E001C01D92AC31B207E1F788D18A
S113012063C46ECFA0EBB0E08C9180688C938C910B
S113013080628C93E0E7F0E0808181608083E0EA74
S1130140F0E08081806880838081886080838C91E6
S113015083608C93A1EBB0E08C9186608C9380815A
S113016081608083E1EAF0E080818860808380811F
S113017084608083089582E08093690081E08DBB70
S11301800895D0DFF8DFE1E0F1E0808180628083D0
S1130190808188608083249A8081806480838081C8
S11301A0806180830895CF92DF92EF92FF926B017A
S11301B07C01A4D26093B3006093B400C701B6017C
S11301C09DD27093A9006093A8007093AD006093D2
S11301D0AC00FF90EF90DF90CF90089580911402CF
S11301E0909115020895CF92DF92EF92FF926B01E6
S11301F07C0120E030E0A9015FD3882334F0E2E001
S1130200F1E080818F7E808305C0E2E0F1E08081AF
S113021080618083C701B6016CD29B01772324F4EB
S113022022273327261B370BB901330F880B990B71
S113023093D260930C0270930D0280930E029093FC
S11302400F02FF90EF90DF90CF9008951F920F92CE
S11302500FB60F9211248F939F938091180290915F
S11302601902019690931902809318029F918F911D
S11302700F900FBE0F901F9018958F929F92AF9280
S1130280BF92CF92DF92EF92FF926A017B01BC0191
S113029080E090E05FD29B01AC01C701B601C0D100
S11302A04B015C012DEC3CEC4CE45EE309D3209162
S11302B008023091090240910A0250910B02B1D117
S11302C06B017C01609308027093090280930A0217
S11302D090930B022AE939E949E15FE3C501B401CE
S11302E0EFD24B015C012AE939E949E95EE3C70130
S11302F0B601E6D29B01AC01C501B40192D16B01F8
S11303007C0120E030E04FE753E4D6D2181664F0C5
S113031020E030E0A901C701B601E7D1882364F4E5
S1130320C12CD12C760108C00F2EC12CD12CFFE793
S1130330EF2EF3E4FF2EF02DC701B601FF90EF90EE
S1130340DF90CF90BF90AF909F908F900895AB01B6
S1130350BC0180911402909115028FDF609310020A
S11303607093110280931202909313021CCF08958C
S11303701F920F920FB60F9211240BB60F922F9368
S11303803F934F935F936F937F938F939F93AF9319
S1130390BF93EF93FF9380911A0290911B028233D3
S11303A0910530F4019690931B0280931A0228C0A1
S11303B02091180230911902ACE2B1E006D323E790
S11303C030E040E050E0DFD2209314023093150275
S11303D040931602509317021092190210921802B9
S11303E060910C0270910D0280910E0290910F02A7
S11303F0AEDF85B1805885B910921B0210921A02A3
S1130400FF91EF91BF91AF919F918F917F916F91E8
S11304105F914F913F912F910F900BBE0F900FBEA4
S11304200F901F90189578D0ACDE279A7894089591
S1130430FADF2FEF80E792E0215080409040E1F70F
S113044000C0000060E070E0CB01CDDE89E01AD08E
S113045080E090E01FD089E015D0C0DE1BD089E099
S113046011D0BCDEBC0180E090E074D19B01AC01F2
S113047060E070E0CB01D4D03CD1CB010BD08DE057
S113048001D0E0CFE0ECF0E0908195FFFDCF8093C8
S1130490C6000895EF92FF920F931F93CF93DF93BB
S11304A07C01009711F12CF4F194E194F1088DE2B0
S11304B0E9DFC1E01E2DDF2D01C0CE2DEE24E39433
S11304C0EC0E012FFD2E6C2F812F9D2F55D08823EC
S11304D0A1F3C63060F46C2F802F9F2D4DD0805D2A
S11304E0D1DFCF5FC630B9F702C080E3CBDFDF9145
S11304F0CF911F910F91FF90EF900895CF93DF93C9
S1130500EC018881882329F02196BCDF899181112F
S1130510FCCFDF91CF910895CF93DF93CDB7DEB7B2
S113052028970FB6F894DEBF0FBECDBF88E0E0E099
S1130530F2E0DE01119601900D928A95E1F7E1EC6B
S1130540F0E0808188618083E2ECF0E08081866065
S113055080831092C50083E38093C400CE0101968A
S1130560CDDF8DE08FDF28960FB6F894DEBF0FBE87
S1130570CDBFDF91CF910895CF93F82FC62F65306B
S113058009F03DC0282F392FADECBCEC1ED2969556
S1130590879596958795969587959C01220F331F8D
S11305A0880F991F880F991F880F991F820F931F17
S11305B0F81B33C09A01ADECBCEC07D29695879535
S11305C096958795969587959C01220F331F880FE2
S11305D0991F880F991F880F991F820F931FF42F5B
S11305E0F81BCE17D1F09A01F0D1AC01569547957E
S11305F05695479556954795E150E1F60EC0282F3C
S1130600392FADECBCECE1D1AC015695479556952C
S1130610479556954795E4E0CDCF8F2FCF91089518
S11306205058BB27AA270ED00DC1FED030F003D1FD
S113063020F031F49F3F11F41EF4F3C00EF4E09562
S1130640E7FBE9C0E92F0FD180F3BA1762077307FC
S11306508407950718F071F49EF527C10EF4E09510
S11306600B2EBA2FA02D0B01B90190010C01CA0168
S1130670A0011124FF27591B99F0593F50F4503E13
S113068068F11A16F040A22F232F342F4427585F05
S1130690F3CF469537952795A795F0405395C9F71D
S11306A07EF41F16BA0B620B730B840BBAF09150D5
S11306B0A1F0FF0FBB1F661F771F881FC2F70EC074
S11306C0BA0F621F731F841F48F487957795679547
S11306D0B795F7959E3F08F0B3CF9395880F08F030
S11306E09927EE0F97958795089571D008F481E0C6
S11306F0089504D06894B111D9C00895BCD088F08D
S11307009F5790F0B92F9927B751A0F0D1F0660FF9
S1130710771F881F991F1AF0BA95C9F712C0B13014
S113072081F0C3D0B1E00895C0C0672F782F882727
S1130730B85F39F0B93FCCF3869577956795B39553
S1130740D9F73EF490958095709561957F4F8F4FC2
S11307509F4F0895E89409C097FB3EF490958095C7
S1130760709561957F4F8F4F9F4F9923A9F0F92F73
S113077096E9BB279395F695879577956795B795F1
S1130780F111F8CFFAF4BB0F11F460FF1BC06F5FD7
S11307907F4F8F4F9F4F16C0882311F096E911C0E9
S11307A0772321F09EE8872F762F05C0662371F00A
S11307B096E8862F70E060E02AF09A95660F771F1E
S11307C0881FDAF7880F9695879597F90895990FFA
S11307D00008550FAA0BE0E8FEEF16161706E80707
S11307E0F907C0F012161306E407F50798F0621B28
S11307F0730B840B950B39F40A2661F0232B242BFD
S1130800252B21F408950A2609F4A140A6958FEF1B
S1130810811D811D089597F99F6780E870E060E06D
S113082008959FEF80EC089500240A941616170685
S113083018060906089500240A94121613061406CD
S113084005060895092E0394000C11F4882352F030
S1130850BB0F40F4BF2B11F460FF04C06F5F7F4FE8
S11308608F4F9F4F089557FD9058440F551F59F0CF
S11308705F3F71F04795880F97FB991F61F09F3F89
S113088079F087950895121613061406551FF2CFB2
S11308904695F1DF08C0161617061806991FF1CF02
S11308A086957105610508940895E894BB27662729
S11308B07727CB0197F908958ADF08F48FEF08951D
S11308C00BD0C0CFB1DF28F0B6DF18F0952309F0C4
S11308D0A2CFA7CF1124EACFC6DFA0F3959FD1F30F
S11308E0950F50E0551F629FF001729FBB27F00DDA
S11308F0B11D639FAA27F00DB11DAA1F649F66272F
S1130900B00DA11D661F829F2227B00DA11D621F7D
S1130910739FB00DA11D621F839FA00D611D221F37
S1130920749F3327A00D611D231F849F600D211D1B
S1130930822F762F6A2F11249F5750408AF0E1F0BE
S113094088234AF0EE0FFF1FBB1F661F771F881F07
S113095091505040A9F79E3F510570F05CCFA6CF4F
S11309605F3FECF3983EDCF3869577956795B795F2
S1130970F795E7959F5FC1F7FE2B880F911D96951C
S1130980879597F90895A1E21A2EAA1BBB1BFD01B6
S11309900DC0AA1FBB1FEE1FFF1FA217B307E4075A
S11309A0F50720F0A21BB30BE40BF50B661F771FB2
S11309B0881F991F1A9469F7609570958095909592
S11309C09B01AC01BD01CF010895A29FB001B39F6B
S11309D0C001A39F700D811D1124911DB29F700D44
S10F09E0811D1124911D0895F894FFCF8F
S10B09EC554152545F4F4B00CA
S9030000FC
