S00C00006D61696E2E7372656373
S11300000C9434000C9451000C9451000C94510045
S11300100C9451000C9451000C9451000C94510018
S11300200C9451000C9451000C9451000C94510008
S11300300C9451000C94BF020C9451000C94510088
S11300400C9451000C9451000C9451000C945100E8
S11300500C9451000C9451000C9451000C945100D8
S11300600C9451000C94510011241FBECFEFD8E022
S1130070DEBFCDBF11E0A0E0B1E0EAEAF8E002C0E3
S113008005900D92A630B107D9F721E0A6E0B1E0C2
S113009001C01D92AC30B207E1F70E9420020C941B
S11300A053040C9400009091C00095FFFCCF809302
S11300B0C6000895CF93DF93EC0103C021960E94FC
S11300C0530088818111FACFDF91CF910895CF93A6
S11300D0DF9300D000D01F92CDB7DEB785E0E0E01B
S11300E0F1E0DE01119601900D928A95E1F7E1ECC1
S11300F0F0E0808188618083E2ECF0E080818660BA
S113010080831092C50087E68093C400CE010196D7
S11301100E945A008DE00E9453000F900F900F90A0
S11301200F900F90DF91CF910895CF93DF93FC014F
S1130130D62F45E027C09F01ADECBCEC0E944404DF
S11301409695879596958795969587959C01220F08
S1130150331F880F991F880F991F880F991F820FCB
S1130160931FCE2FC81B5FEF540F4D1769F09F01EB
S11301700E944404FC01F695E795F695E795F695FB
S1130180E795452F4111D7CF8C2FDF91CF9108955B
S11301900F931F93CF93DF938C01892BB9F0C1E0A8
S11301A001C0CD2FD1E0DC0F6C2FC8010E94950057
S11301B08823B9F308C06C2FC8010E949500805DA4
S11301C00E945300CF5FC630B0F303C080E30E94A7
S11301D05300DF91CF911F910F91089584EA80938A
S11301E0BC008091BC008823E4F7089584E98093DF
S11301F0BC0008958093BB0084E88093BC00809188
S1130200BC008823E4F70895882321F084E88093D0
S1130210BC0003C084EC8093BC008091BC008823A4
S1130220E4F78091BB0008950F931F93CF93DF935E
S1130230082FD62F172FC42F0E94EE00802F880F6F
S11302400E94FA00812F0E94FA008D2F0E94FA006A
S11302508C2F0E94FA000E94F600DF91CF911F912B
S11302600F9108951F93CF93DF93C82FD62F172F85
S11302700E94EE008C2F880F0E94FA00812F0E94AA
S1130280FA008D2F0E94FA000E94EE008C2F90E05D
S1130290880F991F81600E94FA0081E00E94040186
S11302A0C82F0E94F6008C2FDF91CF911F910895E3
S11302B0CF93C82F66E170E00E943201813009F0CB
S11302C0BCC040E066E170E08C2F0E94140141E064
S11302D067E072E08C2F0E94140141E068E072E054
S11302E08C2F0E94140140E066E970E08C2F0E947C
S11302F014014DEF67E970E08C2F0E94140140E077
S113030063EE70E08C2F0E94140144E064EE70E010
S11303108C2F0E94140142E065EE70E08C2F0E9445
S1130320140141E066EE70E08C2F0E94140143E05A
S113033067EE70E08C2F0E94140142E065EF70E0DC
S11303408C2F0E94140145E069ED70E08C2F0E940F
S113035014014EEC6BED70E08C2F0E94140143E00D
S11303606CED70E08C2F0E94140148EF6DED70E08D
S11303708C2F0E94140140E06FE970E08C2F0E94E2
S113038014014CE363EA70E08C2F0E94140140E0F6
S113039067EB70E08C2F0E9414014CE36BEB70E070
S11303A08C2F0E94140149E062EB70E08C2F0E94B4
S11303B0140149E06AEC70E08C2F0E94140141E0C2
S11303C068E971E08C2F0E94140147E160EB71E051
S11303D08C2F0E94140140E06DEA71E08C2F0E9482
S11303E0140145E06FEF70E08C2F0E94140145E08A
S11303F060E071E08C2F0E94140145E069E971E02E
S11304008C2F0E9414014BE166EA71E08C2F0E944C
S113041014014EE36CEA71E08C2F0E9414014FE149
S113042067EA71E08C2F0E94140140E060E370E001
S11304308C2F0E94140180E001C08FEFCF910895AA
S11304402FEF81EE94E0215080409040E1F700C00E
S1130450000082E08093810081EB8093850080EE30
S11304608093840081E080936F008CE08093B800D7
S11304700E94670089E20E9458012FEF81EE94E008
S1130480215080409040E1F700C000007894FFCFF5
S1130490CF93DF93C82F44E064E170E00E9414011D
S11304A041E068E170E08C2F0E9414016FE470E079
S11304B08C2F0E9432018430C9F762E670E08C2FE1
S11304C00E943201D82F47E065E170E08C2F0E9432
S11304D014018D2FDF91CF910895EF92FF920F9326
S11304E01F93CF93C82F40E264E170E00E9414018F
S11304F040E060E470E08C2F0E94140143E661E464
S113050070E08C2F0E94140146E46FE370E08C2F9E
S11305100E94140141E068E370E08C2F0E941401F2
S11305202FEF81EE94E0215080409040E1F700C02D
S113053000006FE470E08C2F0E9432018032C9F712
S113054061E570E08C2F0E943201E82EF12C60E509
S113055070E08C2F0E943201082F10E0102F00272A
S11305600E291F2947E065E170E08C2F0E941401D9
S1130570C801CF911F910F91FF90EF9008951F92A2
S11305800F920FB60F9211242F933F934F935F93C3
S11305906F937F938F939F93AF93BF93EF93FF9347
S11305A081EB8093850080EE809384008091060126
S11305B0843620F48F5F809306012BC010920601CD
S11305C089E20E94480280930B0190E00E94C800D7
S11305D089E00E94530089E20E946D02BC0180E020
S11305E090E00E9449032AE037ED43EA5EE30E946B
S11305F0AF036093070170930801809309019093FE
S11306000A010E941A03CB010E94C8008DE00E94D7
S11306105300FF91EF91BF91AF919F918F917F9183
S11306206F915F914F913F912F910F900FBE0F905B
S11306301F9018950E948E0388F09F5798F0B92F49
S11306409927B751B0F0E1F0660F771F881F991F03
S11306501AF0BA95C9F714C0B13091F00E94A803FA
S1130660B1E008950C94A803672F782F8827B85F0A
S113067039F0B93FCCF3869577956795B395D9F75B
S11306803EF490958095709561957F4F8F4F9F4F65
S11306900895E89409C097FB3EF490958095709571
S11306A061957F4F8F4F9F4F9923A9F0F92F96E9BA
S11306B0BB279395F695879577956795B795F1112F
S11306C0F8CFFAF4BB0F11F460FF1BC06F5F7F4FCC
S11306D08F4F9F4F16C0882311F096E911C07723DE
S11306E021F09EE8872F762F05C0662371F096E8E7
S11306F0862F70E060E02AF09A95660F771F881FB6
S1130700DAF7880F9695879597F9089557FD9058CD
S1130710440F551F59F05F3F71F04795880F97FBC1
S1130720991F61F09F3F79F087950895121613067B
S11307301406551FF2CF4695F1DF08C016161706AA
S11307401806991FF1CF86957105610508940895DF
S1130750E894BB2766277727CB0197F908950E9471
S1130760C2030C9433040E94250438F00E942C0424
S113077020F0952311F00C941C040C9422041124F1
S11307800C94A9030E94860370F3959FC1F3950FFF
S113079050E0551F629FF001729FBB27F00DB11D01
S11307A0639FAA27F00DB11DAA1F649F6627B00D91
S11307B0A11D661F829F2227B00DA11D621F739F7A
S11307C0B00DA11D621F839FA00D611D221F749F88
S11307D03327A00D611D231F849F600D211D822FCF
S11307E0762F6A2F11249F5750409AF0F1F08823F6
S11307F04AF0EE0FFF1FBB1F661F771F881F915023
S11308005040A9F79E3F510580F00C941C040C94B1
S1130810A9035F3FE4F3983ED4F3869577956795F3
S1130820B795F795E7959F5FC1F7FE2B880F911D4C
S11308309695879597F9089597F99F6780E870E0F2
S113084060E008959FEF80EC089500240A94161642
S1130850170618060906089500240A9412161306AA
S1130860140605060895092E0394000C11F4882338
S113087052F0BB0F40F4BF2B11F460FF04C06F5F54
S11308807F4F8F4F9F4F0895A29FB001B39FC00128
S1130890A39F700D811D1124911DB29F700D811DA8
S10D08A01124911D0895F894FFCF70
S10908AA54455354000004
S9030000FC
