S00F000064635F737465702E7372656333
S113000071C000009CC20000BAC20000D5C200004A
S1130010F0C2000087C0000085C0000083C000005B
S113002081C000007FC000007DC000007BC00000D4
S113003079C0000077C0000075C0000097C30000BD
S113004071C000006FC000006DC000006BC00000F4
S113005018C6000067C0000065C0000063C000004F
S113006061C00000FFC600005DC000005BC000006E
S113007059C0000064C0000055C0000053C0000017
S113008051C000004FC000004DC000004BC0000034
S113009049C0000047C0000045C0000043C0000044
S11300A041C000003FC000003DC000003BC0000054
S11300B039C0000037C0000035C0000033C0000064
S11300C031C000002FC000002DC000002BC0000074
S11300D029C0000027C0000025C0000023C0000084
S11300E021C0000011241FBECFEFD1E2DEBFCDBF7F
S11300F000E00CBF12E0A0E0B2E0E0EBF4E100E0CD
S11301000BBF02C007900D92A232B107D9F722E0CB
S1130110A2E2B2E001C01D92A93EB207E1F7BCD34E
S11301200C94560A6DCF8DEC80937A008091000276
S1130130806480937C00089582E292E008951F9287
S11301400F920FB60F9211240BB60F924F925F923B
S11301506F927F928F929F92AF92BF92CF92DF92D3
S1130160EF92FF920F931F932F933F934F935F93BD
S11301706F937F938F939F93AF93BF93EF93FF936B
S1130180CF93DF93CDB7DEB72A97DEBFCDBF809183
S11301900002823001F118F4813039F05DC08330FF
S11301A081F1843009F443C057C0809178002091D4
S11301B07900E0912A02F0E0EE0FFF1FE55BFD4FAE
S11301C090E0922B9183808382E08093000282E40A
S11301D080937C0041C08091780020917900E09167
S11301E02A02F0E0EE0FFF1FE55BFD4F90E0922B3B
S11301F09183808383E08093000283E480937C0076
S11302002BC08091780020917900E0912A02F0E0DF
S1130210EE0FFF1FE55BFD4F90E0922B91838083EF
S113022084E08093000284E480937C0015C0809174
S1130230780020917900E0912A02F0E0EE0FFF1F90
S1130240E55BFD4F90E0922B9183808381E0809366
S1130250000281E480937C0080912A028B3020F498
S11302608F5F80932A02D9C010922A020BE312E016
S1130270ABE4B2E02D913C918091530290915402F1
S1130280280F391F80915B0290915C02280F391F5F
S1130290ABEABAEA0E94470A96958795BC0180E0CA
S11302A090E0DCD7F801608371838283938320918B
S11302B04D0230914E028091550290915602280FC2
S11302C0391F80915D0290915E02280F391FABEABD
S11302D0BAEA0E94470A96958795BC0180E090E0AF
S11302E0BDD7D80114966D937D938D939C931797E6
S11302F020914F0230915002809157029091580200
S1130300280F391F80915F0290916002280F391FD6
S1130310ABEABAEA0E94470A96958795BC0180E049
S113032090E09CD7F801608771878287938720913A
S11303305102309152028091590290915A02280F31
S1130340391F8091610290916202280F391FABEA34
S1130350BAEA0E94470A96958795BC0180E090E02E
S11303607DD7D8011C966D937D938D939C931F9795
S11303708091050290910602A0910702B0910802B3
S11303808D839E83AF83B887809001029090020290
S1130390A0900302B0900402ABE2B2E0BA87A9874E
S11303A00F2EF2E2EF2EF2E0FF2EF02D0F2EFBE4E3
S11303B0CF2EF2E0DF2EF02DF801419051906190A4
S11303C071908F01A985BA852D913D914D915C91D4
S11303D06D817E818F819885F7D769837A838B833A
S11303E09C83A5019401C301B201EED79B01AC012A
S11303F069817A818B819C8130D6E985FA85619304
S1130400719381939193FA87E987FCD6D7016D9311
S11304107D937D010C151D0579F6EAE7F0E08081F6
S1130420806480832A960FB6F894DEBF0FBECDBFDA
S1130430DF91CF91FF91EF91BF91AF919F918F91F8
S11304407F916F915F914F913F912F911F910F91E8
S1130450FF90EF90DF90CF90BF90AF909F908F90E0
S11304607F906F905F904F900F900BBE0F900FBED8
S11304700F901F901895A0EBB0E08C9180688C933E
S11304808C9180628C93E0E7F0E0808181608083CE
S1130490E0EAF0E0808180688083808188608083E6
S11304A08C9181608C93A1EBB0E08C9186608C93ED
S11304B0808181608083E1EAF0E0808184608083D0
S11304C00895CF93DF93EC016C857D858E859F85A0
S11304D099D66093B300688579858A859B8592D681
S11304E06093B4006C817D818E819F818BD67093E3
S11304F0A9006093A800688179818A819B8182D652
S11305007093AD006093AC00DF91CF9108958AEAB7
S1130510809369008FE08DBB0895ADDFF8DFE1E0E3
S1130520F1E0808180628083808188608083249A66
S113053080818064808380818061808308951F929C
S11305400F920FB60F9211240BB60F928F939F93B5
S1130550EF93FF9385B1805885B9EFE8F2E080818D
S11305609181019691838083FF91EF919F918F9167
S11305700F900BBE0F900FBE0F901F9018951F92F7
S11305800F920FB60F9211240BB60F928F939F9375
S1130590EF93FF93EFE8F2E08281938101969383D6
S11305A08283FF91EF919F918F910F900BBE0F90DB
S11305B00FBE0F901F9018951F920F920FB60F92B7
S11305C011240BB60F928F939F93EF93FF93EFE851
S11305D0F2E084819581019695838483FF91EF9164
S11305E09F918F910F900BBE0F900FBE0F901F9095
S11305F018951F920F920FB60F9211240BB60F92FB
S11306008F939F93EF93FF93EFE8F2E086819781B6
S1130610019697838683FF91EF919F918F910F901D
S11306200BBE0F900FBE0F901F9018958F929F9244
S1130630AF92BF92CF92DF92EF92FF92CF93DF936C
S11306406A017B01C22FBC0180E090E007D69B01C8
S1130650AC01C701B60100D54B015C01D0E0CC0F61
S1130660DD1FCC0FDD1FC959DD4F2AE037ED43EA0A
S11306705DE3AAD6288139814A815B81EED46B017E
S11306807C01688379838A839B8323E333E343E395
S11306905FE3C501B40198D64B015C012AE939E94D
S11306A049E95EE3C701B6018FD69B01AC01C501E0
S11306B0B401D3D46B017C0120E030E04FE753E474
S11306C07FD6181664F020E030E0A901C701B60116
S11306D028D5882364F4C12CD12C760108C00F2EB0
S11306E0C12CD12CFFE7EF2EF3E4FF2EF02DC70130
S11306F0B601DF91CF91FF90EF90DF90CF90BF9044
S1130700AF909F908F9008958F929F92AF92BF92D7
S1130710EF92FF920F931F93CF934B015C010F2E27
S1130720F7E8EF2EF2E0FF2EF02D07E712E0C0E02D
S11307302C2FB501A401F701819191917F0176DFFE
S1130740F80161937193819391938F01CF5FC430CA
S113075079F787E792E0B5DECF911F910F91FF9073
S1130760EF90BF90AF909F908F9008951F920F923B
S11307700FB60F9211240BB60F92EF92FF920F93C4
S11307801F932F933F934F935F936F937F938F9315
S11307909F93AF93BF93CF93DF93EF93FF93809196
S11307A09702909198028A30910530F401969093C3
S11307B098028093970235C007E812E0CFE8D2E0B0
S11307C00F2EF7E9EF2EF2E0FF2EF02D68817981EC
S11307D080E090E043D520E030E048E451E4F4D5F3
S11307E020E030E040E752E4EFD520E030E046EE90
S11307F052E49BD407D5F801619371938F01199248
S11308001992CE15DF0511F76091630270916402AD
S1130810809165029091660277DF1092980210929F
S11308209702FF91EF91DF91CF91BF91AF919F918B
S11308308F917F916F915F914F913F912F911F9174
S11308400F91FF90EF900F900BBE0F900FBE0F9083
S11308501F901895CED2279A66DC34D05EDE2FEF37
S113086081EE94E0215080409040E1F700C0000008
S113087078940895CF9389E072D2C0E08C2FDBD1B5
S1130880BCD4CB0174D289E06AD2CF5FC430B1F753
S11308908DE065D2CF910895DDDFDBD2DDD0EADFD4
S11308A0FCCFE1E8F0E08081836080838BE99FEFF7
S11308B09093850080938400EFE6F0E0808181606E
S11308C080830895EEDF81B1856581B981B18A6A3B
S11308D081B9089542B1880F21E030E0B90102C026
S11308E0660F771F8A95E2F7CB01842782B90895B2
S11308F0CF93440FC1E0C40F20E030E0A90160D5DC
S113090088235CF022B181E090E002C0880F991F37
S1130910CA95E2F7822B82B90BC022B181E090E044
S113092002C0880F991FCA95E2F78095822382B985
S1130930CF9108958F929F92AF92BF92CF92DF9200
S1130940EF92FF920F931F93CF93DF93182F4A01D7
S11309505B01C82FD0E0FE01EE0FFF1FEE0FFF1F5B
S1130960E756FD4FC080D180E280F38020E030E084
S113097040E050E4C701B6016FD3A5019401D1D37F
S1130980181624F120E030E040E050E4C701B6013D
S113099064D39B01AC01C501B401C3D31816B4F0F0
S11309A0FE01E652FD4F1082FE01EE0FFF1FEE0F17
S11309B0FF1FE755FD4FC082D182E282F382CC0F44
S11309C0DD1FCF52DD4F1982188239C0A501940171
S11309D0C701B60141D36B017C01412F89DF8E0130
S11309E0000F111F07531D4FC701B60106D49B0109
S11309F0772324F422273327261B370BB901330F1F
S1130A00880B990B2DD420E030E048E455E4DCD485
S1130A109B01AC0122D320E030E044EB53E485D3C6
S1130A20F1D3F80171836083FE01E652FD4F81E04A
S1130A308083CC0FDD1FCF52DD4F19821882DF91E6
S1130A40CF911F910F91FF90EF90DF90CF90BF90C7
S1130A50AF909F908F9008952F923F924F925F9204
S1130A606F927F928F929F92AF92BF92CF92DF92BA
S1130A70EF92FF920F931F93CF93DF932B013C01CF
S1130A8020E030E044EB52EC4CD388239CF020E08F
S1130A9030E044EB52E4C301B20192D418160CF0D6
S1130AA09AC00F2E412C512CF4EB6F2EF2E47F2EC2
S1130AB0F02D08C00F2E412C512CF4EB6F2EF2ECCC
S1130AC07F2EF02DEAEDF2E0C0818181C82BC09326
S1130AD0D902D1E0A30192016091A9027091AA0206
S1130AE08091AB029091AC021CD3811101C0D0E083
S1130AF0DD2309F48DC081E0C11180E0882309F46D
S1130B0087C00F2EF9E9CF2EF2E0DF2EF02D0F2E45
S1130B10F9EAEF2EF2E0FF2EF02D09EB12E00F2E92
S1130B20F9EC8F2EF2E09F2EF02D0F2EFAED2F2EE2
S1130B30F2E03F2EF02DC0E0D0E007C0C230D10576
S1130B4021F477FA709477F87094F60141925192F7
S1130B50619271926F01F70121913191419151910B
S1130B607F01C301B20178D25801F80161937193F6
S1130B70819391938F014C2FBBDEF50160817181CC
S1130B80828193813AD39B01772324F4222733274C
S1130B90261B370BB901330F880B990B61D320E067
S1130BA030E048E455E410D49B01AC0156D220E077
S1130BB030E044EB53E4B9D225D3F401619371934B
S1130BC04F01F10181E081931F012196C430D105C9
S1130BD009F0B4CF1DC0EAEDF2E0C0818181C82BD9
S1130BE0C093D902D1E0A30192016091A90270914E
S1130BF0AA028091AB029091AC0293D2811101C000
S1130C00D0E0DD2329F081E0C11180E0811179CFAA
S1130C10DF91CF911F910F91FF90EF90DF90CF90D4
S1130C20BF90AF909F908F907F906F905F904F9008
S1130C303F902F900895CF93DF93C82F7DDAD0E0B3
S1130C409E01220F331F820F931FFC01608171816B
S1130C5080E090E003D39B01AC0160E070E080E0B1
S1130C6094E4FAD1CC0FDD1FCC0FDD1FC75FDD4F3D
S1130C70288139814A815B81A7D39058DF91CF9134
S1130C8008951F920F920FB60F9211240BB60F9274
S1130C90CF92DF92EF92FF920F931F932F933F9384
S1130CA04F935F936F937F938F939F93AF93BF9370
S1130CB0CF93EF93FF938BE99FEF909385008093FD
S1130CC084000F2EFAEDCF2EF2E0DF2EF02D01ED91
S1130CD012E00F2EF9ECEF2EF2E0FF2EF02DC0E023
S1130CE0F60181916F018823C1F0F80120813181DF
S1130CF0F701808191812817390748F48C2FEADDA8
S1130D00F8018081918101969183808306C08C2FA4
S1130D1092DFAB01BC018C2F0DDECF5F0E5F1F4F46
S1130D20F2E0EF0EF11CC430D9F6FF91EF91CF91B0
S1130D30BF91AF919F918F917F916F915F914F91EF
S1130D403F912F911F910F91FF90EF90DF90CF90E3
S1130D500F900BBE0F900FBE0F901F901895E0ECF4
S1130D60F0E0908195FFFDCF8093C6000895EF9247
S1130D70FF920F931F93CF93DF937C01009711F1A0
S1130D802CF4F194E194F1088DE2E9DFC1E01E2D29
S1130D90DF2D01C0CE2DEE24E394EC0E012FFD2EA9
S1130DA06C2F812F9D2F04D18823A1F3C63060F4CA
S1130DB06C2F802F9F2DFCD0805DD1DFCF5FC6309C
S1130DC0B9F702C080E3CBDFDF91CF911F910F9180
S1130DD0FF90EF900895CF93DF93EC0188818823EF
S1130DE029F02196BCDF89918111FCCFDF91CF914D
S1130DF00895CF93DF93CDB7DEB728970FB6F89455
S1130E00DEBF0FBECDBF88E0E9E1F2E0DE0111965E
S1130E1001900D928A95E1F7E1ECF0E08081886918
S1130E208083E2ECF0E08081866080831092C500CC
S1130E3083E38093C400CE010196CDDF8DE08FDF84
S1130E4028960FB6F894DEBF0FBECDBFDF91CF91C9
S1130E5008956091E1027091E2028091E302909121
S1130E60E40208951F920F920FB60F9211240BB64D
S1130E700F92CF92DF92EF92FF922F933F934F9373
S1130E805F936F937F938F939F93AF93BF93CF930E
S1130E90EF93FF936091C6006093E0026D3019F404
S1130EA01092DE0211C06A3021F481E08093DE02E8
S1130EB032C06D3249F481E08093DF028091DE021A
S1130EC0813009F05DC02FC0C0EDC60FCA3018F5DF
S1130ED0C093E00220E030E040E251E46091E5029A
S1130EE07091E6028091E7029091E8026DD26B0165
S1130EF07C016C2F70E080E090E0B2D19B01AC01EA
S1130F00C701B601AAD06093E5027093E60280930C
S1130F10E7029093E8028091DE02813089F58091A6
S1130F20DF02813089F48091E5029091E602A0917C
S1130F30E702B091E802B0588093E5029093E6028C
S1130F40A093E702B093E8028091E5029091E60253
S1130F50A091E702B091E8028093E1029093E2024B
S1130F60A093E302B093E4021092DE021092DF0237
S1130F701092E5021092E6021092E7021092E80243
S1130F80FF91EF91CF91BF91AF919F918F917F91FD
S1130F906F915F914F913F912F91FF90EF90DF9070
S1130FA0CF900F900BBE0F900FBE0F901F9018950F
S1130FB0CF93F82FC62F653009F03DC0282F392F65
S1130FC0ADECBCEC64D296958795969587959695ED
S1130FD087959C01220F331F880F991F880F991F33
S1130FE0880F991F820F931FF81B33C09A01ADEC31
S1130FF0BCEC4DD296958795969587959695879551
S11310009C01220F331F880F991F880F991F880F87
S1131010991F820F931FF42FF81BCE17D1F09A015A
S113102036D2AC01569547955695479556954795B2
S1131030E150E1F60EC0282F392FADECBCEC27D2DD
S1131040AC01569547955695479556954795E4E0D6
S1131050CDCF8F2FCF9108955058BB27AA270ED0FC
S113106075C166D130F06BD120F031F49F3F11F49B
S11310701EF45BC10EF4E095E7FB51C1E92F77D173
S113108080F3BA17620773078407950718F071F4A1
S11310909EF58FC10EF4E0950B2EBA2FA02D0B01F7
S11310A0B90190010C01CA01A0011124FF27591BA9
S11310B099F0593F50F4503E68F11A16F040A22FAF
S11310C0232F342F4427585FF3CF46953795279520
S11310D0A795F0405395C9F77EF41F16BA0B620B1F
S11310E0730B840BBAF09150A1F0FF0FBB1F661F66
S11310F0771F881FC2F70EC0BA0F621F731F841FA9
S113110048F4879577956795B795F7959E3F08F0CE
S1131110B3CF9395880F08F09927EE0F979587958D
S11311200895D9D008F481E008950CD00FC107D1F7
S113113040F0FED030F021F45F3F19F0F0C05111BF
S113114039C1F3C014D198F39923C9F35523B1F3EA
S1131150951B550BBB27AA2762177307840738F022
S11311609F5F5F4F220F331F441FAA1FA9F333D081
S11311700E2E3AF0E0E830D091505040E695001C35
S1131180CAF729D0FE2F27D0660F771F881FBB1FF1
S1131190261737074807AB07B0E809F0BB0B802DCB
S11311A0BF01FF2793585F4F2AF09E3F510568F017
S11311B0B6C000C15F3FECF3983EDCF386957795AB
S11311C06795B795F7959F5FC9F7880F911D969519
S11311D0879597F90895E1E0660F771F881FBB1F75
S11311E0621773078407BA0720F0621B730B840B22
S11311F0BA0BEE1F88F7E095089504D06894B111F6
S1131200D9C00895BCD088F09F5790F0B92F992782
S1131210B751A0F0D1F0660F771F881F991F1AF0FD
S1131220BA95C9F712C0B13081F0C3D0B1E00895C6
S1131230C0C0672F782F8827B85F39F0B93FCCF347
S1131240869577956795B395D9F73EF490958095F3
S1131250709561957F4F8F4F9F4F0895E89409C013
S113126097FB3EF490958095709561957F4F8F4FD5
S11312709F4F9923A9F0F92F96E9BB279395F695EB
S1131280879577956795B795F111F8CFFAF4BB0F69
S113129011F460FF1BC06F5F7F4F8F4F9F4F16C0CD
S11312A0882311F096E911C0772321F09EE8872F57
S11312B0762F05C0662371F096E8862F70E060E013
S11312C02AF09A95660F771F881FDAF7880F96958C
S11312D0879597F90895990F0008550FAA0BE0E830
S11312E0FEEF16161706E807F907C0F012161306E4
S11312F0E407F50798F0621B730B840B950B39F424
S11313000A2661F0232B242B252B21F408950A2689
S113131009F4A140A6958FEF811D811D089597F9C9
S11313209F6780E870E060E008959FEF80EC089587
S113133000240A94161617061806090608950024B0
S11313400A9412161306140605060895092E03942A
S1131350000C11F4882352F0BB0F40F4BF2B11F49E
S113136060FF04C06F5F7F4F8F4F9F4F089557FDFD
S11313709058440F551F59F05F3F71F04795880FFF
S113138097FB991F61F09F3F79F087950895121696
S113139013061406551FF2CF4695F1DF08C0161642
S11313A017061806991FF1CF8695710561050894F3
S11313B00895E894BB2766277727CB0197F908950A
S11313C08ADF08F48FEF08950BD0C0CFB1DF28F087
S11313D0B6DF18F0952309F0A2CFA7CF1124EACFE6
S11313E0C6DFA0F3959FD1F3950F50E0551F629F80
S11313F0F001729FBB27F00DB11D639FAA27F00D6A
S1131400B11DAA1F649F6627B00DA11D661F829F90
S11314102227B00DA11D621F739FB00DA11D621F75
S1131420839FA00D611D221F749F3327A00D611D92
S1131430231F849F600D211D822F762F6A2F112474
S11314409F5750408AF0E1F088234AF0EE0FFF1FC7
S1131450BB1F661F771F881F91505040A9F79E3FFE
S1131460510570F05CCFA6CF5F3FECF3983EDCF300
S1131470869577956795B795F795E7959F5FC1F73B
S1131480FE2B880F911D9695879597F90895A29F35
S1131490B001B39FC001A39F700D811D1124911D44
S11314A0B29F700D811D1124911D0895F894FFCFF2
S11314B001295C8F3D7B146E3F4C37893E4C378944
S11314C03E4C37893E4C37893E554152545F4F4B11
S10514D0000016
S9030000FC
