S00C00006D61696E2E7372656373
S11300000C9434000C9449000C9449000C9449005D
S11300100C9449000C9449000C9449000C94490038
S11300200C9449000C9449000C9449000C94490028
S11300300C9449000C9449000C9449000C94490018
S11300400C9449000C9449000C9449000C94490008
S11300500C9449000C9449000C9449000C944900F8
S11300600C9449000C94490011241FBECFEFD8E032
S1130070DEBFCDBF11E0A0E0B1E0E2EEF6E002C0E9
S113008005900D92A830B107D9F70E948E000C9408
S11300906F030C94000084EA8093BC008091BC0040
S11300A08823E4F7089584E98093BC00089580933D
S11300B0BB0084E88093BC008091BC008823E4F7F3
S11300C008950F931F93CF93DF93C82F8B010E9442
S11300D04B008C2F880F0E945700C0E00CC0D1E069
S11300E0DC0F8D2F0E945700F801EC0FF11D808169
S11300F00E945700CD2FC83090F38CE00E94570027
S11301008FEF0E9457000E945300DF91CF911F91FF
S11301100F91089580E28093B8000895CF93DF9300
S1130120CDB7DEB7CB52D1400FB6F894DEBF0FBEC9
S1130130CDBF88E0E0E0F1E0DE01119601900D9280
S11301408A95E1F7FE01399681E5DF011D928A95D2
S1130150E9F79DE9998781E88A878B878C878D8762
S11301608E878F87888B9A8B9B8B8C8B8D8B8E8BBA
S11301708F8B888F898F8B8F9C8F9D8F8E8F8F8F86
S113018088A389A38AA38CA38DA39EA39FA388A7D6
S113019089A78AA78BA78DA78EA78FA798AB99ABA2
S11301A08AAB8BAB8CAB8EAB8FAB88AF89AF9AAF7E
S11301B09BAF8CAF8DAF8FAF21968FAF21972296D7
S11301C08FAF229723968FAF239724968FAF2497D0
S11301D025969FAF259726969FAF269727968FAF94
S11301E0279729968FAF29972A968FAF2A972B9610
S11301F08FAF2B972C968FAF2C972D968FAF2D9773
S11302002E968FAF2E972F969FAF2F9760969FAF06
S1130210609762968FAF629763968FAF6397649689
S11302208FAF649765968FAF659766968FAF669725
S113023067968FAF679768968FAF689769969FAFF9
S11302406997EF5AFF4F82EDDF011D928A95E9F716
S113025071E0708352E0518344E0428338E0338399
S113026020E1248390E2958380E4868360E86783B9
S113027056874787308B218B928B838B648B858B3E
S1130280448F358F268F978F80A361A382A393A376
S113029032A723A794A785A766A787A790AB21AB0E
S11302A020AF91AF82AF63AF84AF95AF26AF37AFC6
S11302B0C056DF4F9883C05AD040CF55DF4F888354
S11302C0C15AD040CE55DF4F6883C25AD040CD5575
S11302D0DF4F8883C35AD040CC55DF4F9883C45A2C
S11302E0D040CB55DF4F2883C55AD040CA55DF4F85
S11302F03883C65AD040C955DF4F4883C75AD040C7
S1130300C255DF4F8883CE5AD040C155DF4F688332
S1130310CF5AD040C055DF4F8883C05BD040CF5404
S1130320DF4F9883C15BD040CE54DF4F2883C25B3C
S1130330D040CD54DF4F3883C35BD040CC54DF4F23
S11303404883C45BD040CB54DF4F5883C55BD04057
S1130350C454DF4F6883CC5BD040C354DF4F8883E1
S1130360CD5BD040C254DF4F9883CE5BD040C154A4
S1130370DF4F2883CF5BD040C054DF4F3883C05C4D
S1130380D040CF53DF4F4883C15CD040CE53DF4FC2
S11303905883C25CD040CD53DF4F7883C35CD040D8
S11303A0C653DF4F8883CA5CD040C553DF4F988360
S11303B0CB5CD040C453DF4F2883CC5CD040C353C4
S11303C0DF4F3883CD5CD040C253DF4F4883CE5CCF
S11303D0D040C153DF4F5883CF5CD040C053DF4F70
S11303E07883C05DD040CF52DF4F5883C15DD04089
S11303F0C852DF4F9883C85DD040C752DF4F28836F
S1130400C95DD040C652DF4F3883CA5DD040C55263
S1130410DF4F4883CB5DD040C452DF4F5883CC5D5F
S1130420D040C352DF4F7883CD5DD040C252DF4FFE
S11304305883CE5DD040C152DF4F4883CF5DD0405A
S1130440CA51DF4F2883C65ED040C951DF4F38837D
S1130450C75ED040C851DF4F4883C85ED040C75103
S1130460DF4F5883C95ED040C651DF4F7883CA5EE0
S1130470D040C551DF4F5883CB5ED040C451DF4FCD
S11304804883CC5ED040C351DF4F3883CD5ED0402B
S1130490CC50DF4F3883C45FD040CB50DF4F48830C
S11304A0C55FD040CA50DF4F5883C65FD040C950A3
S11304B0DF4F7883C75FD040C850DF4F5883C85F91
S11304C0D040C750DF4F4883C95FD040C650DF4F8C
S11304D03883CA5FD040C550DF4F2883CB5FD040FC
S11304E0CE5FDE4F4883C250D140CD5FDE4F58838C
S11304F0C350D140CC5FDE4F7883C450D140CB5F32
S1130500DE4F5883C550D140CA5FDE4F4883C65082
S1130510D140C95FDE4F3883C750D140C85FDE4F3A
S11305202883C850D140C75FDE4F9883C950D1405B
S1130530C05FDE4F5883C051D140CF5EDE4F788319
S1130540C151D140CE5EDE4F5883C251D140CD5E01
S1130550DE4F4883C351D140CC5EDE4F3883C45153
S1130560D140CB5EDE4F2883C551D140CA5EDE4FF9
S11305709883C651D140C95EDE4F8883C751D140AC
S1130580C25EDE4F7883CE51D140C15EDE4F5883C8
S1130590CF51D140C05EDE4F4883C052D140CF5DC1
S11305A0DE4F3883C152D140CE5DDE4F2883C25224
S11305B0D140CD5DDE4F9883C352D140CC5DDE4F38
S11305C08883C452D140CB5DDE4F6883C552D1408D
S11305D080E60E948A00BE016F5F7F4F80E60E9422
S11305E06100BFEF27EA81E6B15020408040E1F787
S11305F000C0000000E025C0812F90E0880F991F03
S1130600BC01660F771F660F771F660F771F681B85
S1130610790BAAE5B0E0AC0FBD1F6A0F7B1F80E623
S11306200E946100BFE729EA83E0B1502040804086
S1130630E1F700C000001F5F01C010E01E30E0F2CF
S11306400F5F0A30D0F300E047C0812F90E0BC0177
S1130650660F771F660F771F660F771F680F791F66
S1130660A9E0B0E0AC0FBD1F6A0F7B1F80E60E94BB
S11306706100BFE729EA83E0B15020408040E1F700
S113068000C000001F5F01C010E01930F0F210E05C
S113069020C068E070E0611B7109CB01880F991FCD
S11306A0880F991F880F991F680F791FA9E0B0E080
S11306B0AC0FBD1F6A0F7B1F80E60E946100BFE77D
S11306C029EA83E0B15020408040E1F700C00000F7
S11306D01F5F1930F0F20F5F0830B0F28BCFF8943F
S10506E0FFCF46
S10B06E23C4299A1A199423C9C
S9030000FC
