S00C00006D61696E2E7372656373
S11300000C9434000C9449000C9449000C9449005D
S11300100C9449000C9449000C9449000C94490038
S11300200C9449000C9449000C9449000C94490028
S11300300C9449000C9449000C9449000C94490018
S11300400C9449000C9449000C9449000C94490008
S11300500C9449000C9449000C9449000C944900F8
S11300600C9449000C94490011241FBECFEFD8E032
S1130070DEBFCDBF11E0A0E0B1E0E2E3F3E002C0F7
S113008005900D92AC30B107D9F70E9437010C945A
S113009097010C94000084B18C6284B98AB18160A8
S11300A08AB983E58CBD85B1877F85B90895CF93DF
S11300B0DF93FC01D62F43E027C09F01ADECBCECDD
S11300C00E9488019695879596958795969587952C
S11300D09C01220F331F880F991F880F991F880FC7
S11300E0991F820F931FCE2FC81B5FEF540F4D171C
S11300F069F09F010E948801FC01F695E795F69549
S1130100E795F695E795452F4111D7CF8C2FDF91D1
S1130110CF910895BF92CF92DF92EF92FF920F9307
S11301201F93CF93DF93CDB7DEB72F970FB6F89415
S1130130DEBF0FBECDBF7C0119821A821B828CE008
S1130140E0E0F1E0DE01149601900D928A95E1F76A
S1130150FF202CF4CC24DD24CE18DF0801C0670175
S1130160BB24B39412C00B2D0B2C000C110B0150AB
S113017011096B2DC6010E945700E1E0F0E0EC0F7D
S1130180FD1FE00FF11F8083B39483E08B155CF7B0
S1130190CD2821F480E043C08F5F01C080E0282F88
S11301A030E0E1E0F0E0EC0FFD1FE20FF31F90817F
S11301B0992391F3FF2034F48FE78EBD0DB407FE2D
S11301C0FDCF05C08FEF8EBD0DB407FEFDCF80E0DF
S11301D01DC0482F082E000C550B421753071CF462
S11301E09E859EBD0FC0E1E0F0E0EC0FFD1FE40F23
S11301F0F51F9081E4E0F0E0EC0FFD1FE90FF11D25
S113020090819EBD0DB407FEFDCF8F5F83300CF34C
S11302100DC09E859EBD0DB407FEFDCF8F5F83305C
S1130220C4F38C818EBD0DB407FEFDCF8BB18E7FE0
S11302308BB98AE68A95F1F700C08BB181608BB9DE
S11302408AE68A95F1F700C08BB18E7F8BB92F9621
S11302500FB6F894DEBF0FBECDBFDF91CF911F91D3
S11302600F91FF90EF90DF90CF90BF9008950E9480
S11302704B002FEF83EC99E0215080409040E1F750
S113028000C0000081E18EBD0DB407FEFDCF87E004
S11302908EBD0DB407FEFDCF8DE08EBD0DB407FEFF
S11302A0FDCF83E48EBD0DB407FEFDCF2FEF83EDAC
S11302B090E3215080409040E1F700C00000CDE978
S11302C010C08C2F0C2E000C990B0E948A002FE773
S11302D08AE196E0215080409040E1F700C00000A0
S11302E0CF5FC43674F3C3E610C08C2F0C2E000C01
S11302F0990B0E948A002FE78AE196E02150804002
S11303009040E1F700C00000C150CD3974F7D7CF59
S1130310A29FB001B39FC001A39F700D811D112442
S1130320911DB29F700D811D1124911D0895F894A3
S1050330FFCFF9
S10F033281F34961332505F10121FF7FAF
S9030000FC
