:100000000C9434000C9451010C9451000C94510048
:100010000C9451000C9451000C9451000C9451001C
:100020000C9451000C9451000C9451000C9451000C
:100030000C9451000C9451000C9451000C945100FC
:100040000C9451000C9451000C9451000C945100EC
:100050000C9451000C9451000C9451000C945100DC
:100060000C9451000C94510011241FBECFEFD8E026
:10007000DEBFCDBF11E0A0E0B1E0EAE2F3E002C0F4
:1000800005900D92AC30B107D9F721E0ACE0B1E0BA
:1000900001C01D92AE30B207E1F70E9439010C9405
:1000A00093010C94000084B18D6284B983E58CBD0A
:1000B0000895CF93DF93FC01D62F43E027C09F0123
:1000C000ADECBCEC0E94840196958795969587953A
:1000D000969587959C01220F331F880F991F880FD3
:1000E000991F880F991F820F931FCE2FC81B5FEF98
:1000F000540F4D1769F09F010E948401FC01F69591
:10010000E795F695E795F695E795452F4111D7CFF9
:100110008C2FDF91CF910895BF92CF92DF92EF9213
:10012000FF920F931F93CF93DF93CDB7DEB72F9737
:100130000FB6F894DEBF0FBECDBF7C0119821A82C4
:100140001B828CE0E0E0F1E0DE01149601900D925C
:100150008A95E1F7FF202CF4CC24DD24CE18DF08AB
:1001600001C06701BB24B39412C00B2D0B2C000CF3
:10017000110B015011096B2DC6010E945900E1E0DD
:10018000F0E0EC0FFD1FE00FF11F8083B39483E0DC
:100190008B155CF7CD2821F480E043C08F5F01C050
:1001A00080E0282F30E0E1E0F0E0EC0FFD1FE20FEF
:1001B000F31F9081992391F3FF2034F48FE78EBDD4
:1001C0000DB407FEFDCF05C08FEF8EBD0DB407FE49
:1001D000FDCF80E01DC0482F082E000C550B4217A4
:1001E00053071CF49E859EBD0FC0E1E0F0E0EC0FCC
:1001F000FD1FE40FF51F9081E4E0F0E0EC0FFD1F20
:10020000E90FF11D90819EBD0DB407FEFDCF8F5FFC
:1002100083300CF30DC09E859EBD0DB407FEFDCF4F
:100220008F5F8330C4F38C818EBD0DB407FEFDCF8C
:1002300085B18E7F85B98AE68A95F1F700C085B1D0
:10024000816085B98AE68A95F1F700C085B18E7F15
:1002500085B92F960FB6F894DEBF0FBECDBFDF91E4
:10026000CF911F910F91FF90EF90DF90CF90BF90B3
:10027000089581E08DBB809369000E9453002FEFA9
:1002800083EC99E0215080409040E1F700C00000ED
:100290007894F89480910D0190E00E948C007894FD
:1002A000F8CF1F920F920FB60F9211248F93809167
:1002B0000C01813001F510920C014A9B0EC04B9B42
:1002C00006C080910D01815080930D0117C080916F
:1002D0000D018F5F80930D0111C04B9B06C0809173
:1002E0000D018F5F80930D0109C080910D01815038
:1002F00080930D0103C081E080930C018F910F90DA
:100300000FBE0F901F901895A29FB001B39FC00120
:10031000A39F700D811D1124911DB29F700D811D31
:0A0320001124911D0895F894FFCFF9
:0C032A0081F34961332505F10121FF7FBB
:00000001FF
