:1000000071C000008EC000008CC000008AC00000DB
:1000100088C0000086C0000084C0000082C00000CC
:1000200080C000007EC000007CC0000050C1000005
:1000300078C0000076C0000074C0000072C00000EC
:1000400070C000006EC000006CC000006AC00000FC
:1000500068C0000066C0000064C00000D4C000009A
:1000600060C000005EC000005CC000005AC000001C
:1000700058C0000056C0000054C0000052C000002C
:1000800050C000004EC000004CC000004AC000003C
:1000900048C0000046C0000044C0000042C000004C
:1000A00040C000003EC000003CC000003AC000005C
:1000B00038C0000036C0000034C0000032C000006C
:1000C00030C000002EC000002CC000002AC000007C
:1000D00028C0000026C0000024C0000022C000008C
:1000E00020C0000011241FBECFEFD1E2DEBFCDBF84
:1000F00000E00CBF12E0A0E0B2E0EAE8F6E000E0C9
:100100000BBF02C007900D92A830B107D9F722E0CB
:10011000A8E0B2E001C01D92AC31B207E1F724D1F2
:10012000B2C26ECFA0EBB0E08C9180688C938C91C2
:1001300080628C93E0EAF0E0808180688083808137
:10014000886080838C9183608C93A1EBB0E08C916C
:1001500081608C93808181608083E1EAF0E080811E
:10016000886080838081816080830895DBDFE1E0A7
:10017000F1E0808180628083808188608083249A1E
:100180008081806480838081806180830895CF92A4
:10019000DF92EF92FF926B017C0120E030E0A90139
:1001A00014D2882334F0E2E0F1E080818F7E8083F6
:1001B00005C0E2E0F1E0808180618083C701B60183
:1001C0006DD19B01772324F422273327261B370B7D
:1001D0004FEF429FC001439F900D112464E670E0F1
:1001E0001CD26093B3006093B40077277093A9008A
:1001F0006093A8007093AD006093AC00FF90EF9007
:10020000DF90CF9008951F920F920FB60F92112496
:100210000BB60F920F931F932F933F934F935F93C0
:100220006F937F938F939F93AF93BF93CF93DF93FE
:10023000EF93FF9380911A0290911B0289319105EF
:1002400030F4019690931B0280931A0229C0CAE0F1
:10025000D2E0E2E1F2E00AE112E04CE251E080811A
:100260009181849F9001859F300D949F300D1124C2
:100270003695279536952795ADE3B5E2E1D196956C
:1002800087959695879596958795899399931192D9
:100290001192E017F10719F710921B0210921A023F
:1002A000FF91EF91DF91CF91BF91AF919F918F918E
:1002B0007F916F915F914F913F912F911F910F917E
:1002C0000F900BBE0F900FBE0F901F9018951F92AE
:1002D0000F920FB60F9211240BB60F922F933F93EC
:1002E0008F939F93EF93FF9399B19093080280911E
:1002F0000902892784FF08C0E2E1F2E02081318110
:100300002F5F3F4F3183208385FF08C0E2E1F2E099
:10031000228133812F5F3F4F3383228386FF08C0C2
:10032000E2E1F2E0248135812F5F3F4F3583248362
:10033000882344F4E2E1F2E0268137812F5F3F4FCA
:100340003783268390930902FF91EF919F918F91BC
:100350003F912F910F900BBE0F900FBE0F901F90EB
:1003600018956CD003CF0895FCDF279A2FEF80E714
:1003700092E0215080409040E1F700C0000033D06F
:10038000BC01990F880B990BBCD06B017C01FFDE7F
:1003900020E030E048E452E4C701B60116D1181657
:1003A00074F785B1805885B9EACFE0ECF0E0908130
:1003B00095FFFDCF8093C6000895E0ECF0E08081CA
:1003C0008823ECF78091C6000895CF93DF93EC016A
:1003D0008881882329F02196E8DF89918111FCCF5B
:1003E000DF91CF9108950F931F93CF93DF9310E088
:1003F000C0E0D0E001E001C0102FDFDF8D30E9F375
:100400008A3089F08D32C1F39E01220F331FCC0F49
:10041000DD1FCC0FDD1FCC0FDD1FC20FD31F80539C
:10042000C80FD11DEACF113019F4D195C195D1096A
:10043000CE01DF91CF911F910F910895CF93DF935C
:10044000CDB7DEB728970FB6F894DEBF0FBECDBF8D
:1004500088E0E0E0F2E0DE01119601900D928A95CD
:10046000E1F7E1ECF0E0808188698083E2ECF0E084
:100470008081866080831092C50083E38093C400EE
:10048000CE010196A2DF8DE090DF28960FB6F8949A
:10049000DEBF0FBECDBFDF91CF91089504D0689429
:1004A000B1118DC0089570D088F09F5790F0B92F8A
:1004B0009927B751A0F0D1F0660F771F881F991FB9
:1004C0001AF0BA95C9F712C0B13081F077D0B1E017
:1004D000089574C0672F782F8827B85F39F0B93F27
:1004E000CCF3869577956795B395D9F73EF49095BB
:1004F0008095709561957F4F8F4F9F4F0895E89439
:1005000009C097FB3EF490958095709561957F4F5B
:100510008F4F9F4F9923A9F0F92F96E9BB27939509
:10052000F695879577956795B795F111F8CFFAF419
:10053000BB0F11F460FF1BC06F5F7F4F8F4F9F4F4A
:1005400016C0882311F096E911C0772321F09EE8A8
:10055000872F762F05C0662371F096E8862F70E00E
:1005600060E02AF09A95660F771F881FDAF7880FE8
:100570009695879597F9089557FD9058440F551F04
:1005800059F05F3F71F04795880F97FB991F61F015
:100590009F3F79F087950895121613061406551F8C
:1005A000F2CF4695F1DF08C0161617061806991FF8
:1005B000F1CF86957105610508940895E894BB27ED
:1005C00066277727CB0197F9089503D008F48FEFBA
:1005D0000895990F0008550FAA0BE0E8FEEF1616D4
:1005E0001706E807F907C0F012161306E407F50727
:1005F00098F0621B730B840B950B39F40A2661F09B
:10060000232B242B252B21F408950A2609F4A1403D
:10061000A6958FEF811D811D089597FB072E16F477
:10062000009406D077FD08D01AD007FC05D03EF420
:10063000909581959F4F0895709561957F4F08958E
:10064000A29FB001B39FC001A39F700D811D112413
:10065000911DB29F700D811D1124911D0895AA1B3B
:10066000BB1B51E107C0AA1FBB1FA617B70710F09D
:10067000A61BB70B881F991F5A95A9F780959095CF
:0A068000BC01CD010895F894FFCFEE
:08068A00554152545F4F4B0033
:00000001FF
