S00C0000756172742E737265635C
S113000071C000008EC000008CC000008AC00000D7
S113001088C0000086C0000084C0000082C00000C8
S113002080C000007EC000007CC0000042C100000F
S113003078C0000076C0000074C0000072C00000E8
S113004070C000006EC000006CC000006AC00000F8
S113005068C0000066C0000064C00000C6C00000A4
S113006060C000005EC000005CC000005AC0000018
S113007058C0000056C0000054C0000052C0000028
S113008050C000004EC000004CC000004AC0000038
S113009048C0000046C0000044C0000042C0000048
S11300A040C000003EC000003CC000003AC0000058
S11300B038C0000036C0000034C0000032C0000068
S11300C030C000002EC000002CC000002AC0000078
S11300D028C0000026C0000024C0000022C0000088
S11300E020C0000011241FBECFEFD1E2DEBFCDBF80
S11300F000E00CBF12E0A0E0B2E0E4E5F7E000E0CD
S11301000BBF02C007900D92AE30B107D9F722E0C1
S1130110AEE0B2E001C01D92A232B207E1F785D190
S113012017C36ECFA0EBB0E08C9180688C938C9158
S113013080628C93E0EAF0E0808180688083808133
S1130140886080838C9183608C93A1EBB0E08C9168
S113015081608C93808181608083E1EAF0E080811A
S1130160886080838081816080830895DBDFE1E0A3
S1130170F1E0808180628083808188608083249A1A
S11301808081806480838081806180830895CF92A0
S1130190DF92EF92FF926B017C0120E030E0A90135
S11301A0A0D2882334F0E2E0F1E080818F7E808366
S11301B005C0E2E0F1E0808180618083C701B6017F
S11301C0FED16093B3006093B400C701B601F7D1C8
S11301D07093A9006093A8007093AD006093AC0085
S11301E0FF90EF90DF90CF9008951F920F920FB67B
S11301F00F9211240BB60F920F931F932F933F93DB
S11302004F935F936F937F938F939F93AF93BF931A
S1130210CF93DF93EF93FF9380912002909121027B
S11302208931910530F40196909321028093200244
S113023029C0C0E1D2E0E8E1F2E000E212E04CE2E1
S113024051E080819181849F9001859F300D949F1E
S1130250300D11243695279536952795ADE3B5E2F3
S113026068D296958795969587959695879589935F
S1130270999311921192E017F10719F71092210244
S113028010922002FF91EF91DF91CF91BF91AF9136
S11302909F918F917F916F915F914F913F912F919A
S11302A01F910F910F900BBE0F900FBE0F901F90D8
S11302B018951F920F920FB60F9211240BB60F923E
S11302C02F933F938F939F93EF93FF9399B19093C1
S11302D00E0280910F02892784FF08C0E8E1F2E052
S11302E0208131812F5F3F4F3183208385FF08C0F8
S11302F0E8E1F2E0228133812F5F3F4F3383228391
S113030086FF08C0E8E1F2E0248135812F5F3F4F8A
S113031035832483882344F4E8E1F2E0268137819D
S11303202F5F3F4F3783268390930F02FF91EF9106
S11303309F918F913F912F910F900BBE0F900FBE05
S11303400F901F901895E1ECF0E080818861808324
S1130350E2ECF0E08081866080831092C50087E63D
S11303608093C4000895E0ECF0E0908195FFFDCF08
S11303708093C6000895E0ECF0E080818823ECF7D8
S11303808091C6000895CF93DF93EC018881882380
S113039029F02196E8DF89918111FCCFDF91CF917B
S11303A008950F931F93CF93DF938C01892BA9F0AA
S11303B0C1E001C0CD2FD1E0DC0F6C2FC801ABD060
S11303C08823C1F3C63058F46C2FC801A4D0805DD3
S11303D0CADFCF5FC630C1F702C080E3C4DFDF915C
S11303E0CF911F910F910895CF93DF93C0E0D0E098
S11303F0C2DF8D30E9F38A3089F080538A3070F49B
S11304009E01220F331FCC0FDD1FCC0FDD1FCC0F3D
S1130410DD1FC20FD31FC80FD11DEACFCE01DF915C
S1130420CF91089548D0A2CE0895CF93DF9300D002
S11304301F921F92CDB7DEB7F5DF2FEF80E792E072
S1130440215080409040E1F700C0000085E0E0E0EA
S1130450F2E0DE01119601900D928A95E1F773DFC7
S1130460CE01019690DF8DE07EDFBEDF8C01682F28
S113047070E080E090E0CFD08ADE89E074DFC801CC
S113048099278FDF8DE06FDFF0CFE0ECF0E0908113
S113049095FFFDCF8093C6000895CF93DF93EC01C1
S11304A08881882329F02196F0DF89918111FCCF7E
S11304B0DF91CF910895CF93DF93CDB7DEB728971F
S11304C00FB6F894DEBF0FBECDBF88E0E5E0F2E0E2
S11304D0DE01119601900D928A95E1F7E1ECF0E0CE
S11304E0808188698083E2ECF0E08081866080838B
S11304F01092C50083E38093C400CE010196CDDF42
S11305008DE0C3DF28960FB6F894DEBF0FBECDBFD3
S1130510DF91CF910895CF93F82FC62F653009F05E
S11305203DC0282F392FADECBCEC03D196958795AF
S113053096958795969587959C01220F331F880F72
S1130540991F880F991F880F991F820F931FF81BFB
S113055033C09A01ADECBCECECD09695879596959A
S11305608795969587959C01220F331F880F991FB5
S1130570880F991F880F991F820F931FF42FF81B60
S1130580CE17D1F09A01D5D0AC0156954795569522
S1130590479556954795E150E1F60EC0282F392F1F
S11305A0ADECBCECC6D0AC01569547955695479535
S11305B056954795E4E0CDCF8F2FCF91089570D015
S11305C088F09F5790F0B92F9927B751A0F0D1F038
S11305D0660F771F881F991F1AF0BA95C9F712C0C2
S11305E0B13081F077D0B1E0089574C0672F782FCF
S11305F08827B85F39F0B93FCCF38695779567952E
S1130600B395D9F73EF490958095709561957F4F99
S11306108F4F9F4F0895E89409C097FB3EF490953F
S11306208095709561957F4F8F4F9F4F9923A9F0C7
S1130630F92F96E9BB279395F69587957795679556
S1130640B795F111F8CFFAF4BB0F11F460FF1BC09A
S11306506F5F7F4F8F4F9F4F16C0882311F096E92D
S113066011C0772321F09EE8872F762F05C06623DB
S113067071F096E8862F70E060E02AF09A95660F94
S1130680771F881FDAF7880F9695879597F908954D
S113069057FD9058440F551F59F05F3F71F047952F
S11306A0880F97FB991F61F09F3F79F08795089514
S11306B0121613061406551FF2CF4695F1DF08C033
S11306C0161617061806991FF1CF86957105610550
S11306D008940895E894BB2766277727CB0197F9F8
S11306E0089503D008F48FEF0895990F0008550F6B
S11306F0AA0BE0E8FEEF16161706E807F907C0F0A4
S113070012161306E407F50798F0621B730B840BAB
S1130710950B39F40A2661F0232B242B252B21F485
S113072008950A2609F4A140A6958FEF811D811D25
S11307300895A29FB001B39FC001A39F700D811DB6
S11307401124911DB29F700D811D1124911D0895D6
S1070750F894FFCF47
S11107545445535400554152545F4F4B00001E
S9030000FC
